{
	"evoting.sol": {
		"SistemVoting": {
			"abi": [
				{
					"inputs": [
						{
							"internalType": "string[]",
							"name": "_namaKandidat",
							"type": "string[]"
						},
						{
							"internalType": "uint256",
							"name": "_durasiVotingDetik",
							"type": "uint256"
						}
					],
					"stateMutability": "nonpayable",
					"type": "constructor"
				},
				{
					"anonymous": false,
					"inputs": [
						{
							"indexed": true,
							"internalType": "address",
							"name": "pemilih",
							"type": "address"
						}
					],
					"name": "PemilihDidaftarkan",
					"type": "event"
				},
				{
					"anonymous": false,
					"inputs": [
						{
							"indexed": true,
							"internalType": "address",
							"name": "pemilih",
							"type": "address"
						},
						{
							"indexed": false,
							"internalType": "uint256",
							"name": "idKandidat",
							"type": "uint256"
						}
					],
					"name": "SuaraDiberikan",
					"type": "event"
				},
				{
					"inputs": [
						{
							"internalType": "uint256",
							"name": "_idKandidat",
							"type": "uint256"
						}
					],
					"name": "berikanSuara",
					"outputs": [],
					"stateMutability": "nonpayable",
					"type": "function"
				},
				{
					"inputs": [
						{
							"internalType": "address",
							"name": "_alamatPemilih",
							"type": "address"
						}
					],
					"name": "daftarkanPemilih",
					"outputs": [],
					"stateMutability": "nonpayable",
					"type": "function"
				},
				{
					"inputs": [
						{
							"internalType": "uint256",
							"name": "_idKandidat",
							"type": "uint256"
						}
					],
					"name": "getKandidat",
					"outputs": [
						{
							"components": [
								{
									"internalType": "uint256",
									"name": "id",
									"type": "uint256"
								},
								{
									"internalType": "string",
									"name": "nama",
									"type": "string"
								},
								{
									"internalType": "uint256",
									"name": "jumlahSuara",
									"type": "uint256"
								}
							],
							"internalType": "struct SistemVoting.Kandidat",
							"name": "",
							"type": "tuple"
						}
					],
					"stateMutability": "view",
					"type": "function"
				},
				{
					"inputs": [
						{
							"internalType": "uint256",
							"name": "",
							"type": "uint256"
						}
					],
					"name": "kandidatList",
					"outputs": [
						{
							"internalType": "uint256",
							"name": "id",
							"type": "uint256"
						},
						{
							"internalType": "string",
							"name": "nama",
							"type": "string"
						},
						{
							"internalType": "uint256",
							"name": "jumlahSuara",
							"type": "uint256"
						}
					],
					"stateMutability": "view",
					"type": "function"
				},
				{
					"inputs": [],
					"name": "owner",
					"outputs": [
						{
							"internalType": "address",
							"name": "",
							"type": "address"
						}
					],
					"stateMutability": "view",
					"type": "function"
				},
				{
					"inputs": [
						{
							"internalType": "address",
							"name": "",
							"type": "address"
						}
					],
					"name": "pemilihTerdaftar",
					"outputs": [
						{
							"internalType": "bool",
							"name": "",
							"type": "bool"
						}
					],
					"stateMutability": "view",
					"type": "function"
				},
				{
					"inputs": [
						{
							"internalType": "address",
							"name": "",
							"type": "address"
						}
					],
					"name": "sudahMemilih",
					"outputs": [
						{
							"internalType": "bool",
							"name": "",
							"type": "bool"
						}
					],
					"stateMutability": "view",
					"type": "function"
				},
				{
					"inputs": [],
					"name": "waktuMulai",
					"outputs": [
						{
							"internalType": "uint256",
							"name": "",
							"type": "uint256"
						}
					],
					"stateMutability": "view",
					"type": "function"
				},
				{
					"inputs": [],
					"name": "waktuSelesai",
					"outputs": [
						{
							"internalType": "uint256",
							"name": "",
							"type": "uint256"
						}
					],
					"stateMutability": "view",
					"type": "function"
				}
			],
			"devdoc": {
				"author": "Gemini AI",
				"kind": "dev",
				"methods": {
					"berikanSuara(uint256)": {
						"params": {
							"_idKandidat": "ID kandidat yang dipilih (dimulai dari 0)."
						}
					},
					"daftarkanPemilih(address)": {
						"params": {
							"_alamatPemilih": "Alamat yang akan didaftarkan."
						}
					},
					"getKandidat(uint256)": {
						"params": {
							"_idKandidat": "ID kandidat yang ingin dilihat."
						},
						"returns": {
							"_0": "Detail kandidat (id, nama, jumlah suara)."
						}
					}
				},
				"title": "SistemVoting",
				"version": 1
			},
			"evm": {
				"assembly": "    /* \"evoting.sol\":230:3678  contract SistemVoting {... */\n  mstore(0x40, 0xa0)\n    /* \"evoting.sol\":1524:2037  constructor(string[] memory _namaKandidat, uint _durasiVotingDetik) {... */\n  callvalue\n  dup1\n  iszero\n  tag_1\n  jumpi\n  revert(0x00, 0x00)\ntag_1:\n  pop\n  mload(0x40)\n  sub(codesize, bytecodeSize)\n  dup1\n  bytecodeSize\n  dup4\n  codecopy\n  dup2\n  dup2\n  add\n  0x40\n  mstore\n  dup2\n  add\n  swap1\n  tag_2\n  swap2\n  swap1\n  tag_3\n  jump\t// in\ntag_2:\n    /* \"evoting.sol\":1610:1620  msg.sender */\n  caller\n    /* \"evoting.sol\":1602:1620  owner = msg.sender */\n  0xffffffffffffffffffffffffffffffffffffffff\n  and\n  0x80\n  dup2\n  0xffffffffffffffffffffffffffffffffffffffff\n  and\n  dup2\n  mstore\n  pop\n  pop\n    /* \"evoting.sol\":1643:1658  block.timestamp */\n  timestamp\n    /* \"evoting.sol\":1630:1640  waktuMulai */\n  0x03\n    /* \"evoting.sol\":1630:1658  waktuMulai = block.timestamp */\n  dup2\n  swap1\n  sstore\n  pop\n    /* \"evoting.sol\":1701:1719  _durasiVotingDetik */\n  dup1\n    /* \"evoting.sol\":1683:1698  block.timestamp */\n  timestamp\n    /* \"evoting.sol\":1683:1719  block.timestamp + _durasiVotingDetik */\n  tag_6\n  swap2\n  swap1\n  tag_7\n  jump\t// in\ntag_6:\n    /* \"evoting.sol\":1668:1680  waktuSelesai */\n  0x04\n    /* \"evoting.sol\":1668:1719  waktuSelesai = block.timestamp + _durasiVotingDetik */\n  dup2\n  swap1\n  sstore\n  pop\n    /* \"evoting.sol\":1825:1831  uint i */\n  0x00\n    /* \"evoting.sol\":1834:1835  0 */\n  0x00\n    /* \"evoting.sol\":1825:1835  uint i = 0 */\n  swap1\n  pop\n    /* \"evoting.sol\":1820:2031  for (uint i = 0; i < _namaKandidat.length; i++) {... */\ntag_8:\n    /* \"evoting.sol\":1841:1854  _namaKandidat */\n  dup3\n    /* \"evoting.sol\":1841:1861  _namaKandidat.length */\n  mload\n    /* \"evoting.sol\":1837:1838  i */\n  dup2\n    /* \"evoting.sol\":1837:1861  i < _namaKandidat.length */\n  lt\n    /* \"evoting.sol\":1820:2031  for (uint i = 0; i < _namaKandidat.length; i++) {... */\n  iszero\n  tag_9\n  jumpi\n    /* \"evoting.sol\":1882:1894  kandidatList */\n  0x00\n    /* \"evoting.sol\":1900:2019  Kandidat({... */\n  mload(0x40)\n  dup1\n  0x60\n  add\n  0x40\n  mstore\n  dup1\n    /* \"evoting.sol\":1931:1932  i */\n  dup4\n    /* \"evoting.sol\":1900:2019  Kandidat({... */\n  dup2\n  mstore\n  0x20\n  add\n    /* \"evoting.sol\":1956:1969  _namaKandidat */\n  dup6\n    /* \"evoting.sol\":1970:1971  i */\n  dup5\n    /* \"evoting.sol\":1956:1972  _namaKandidat[i] */\n  dup2\n  mload\n  dup2\n  lt\n  tag_11\n  jumpi\n  tag_12\n  tag_13\n  jump\t// in\ntag_12:\ntag_11:\n  0x20\n  mul\n  0x20\n  add\n  add\n  mload\n    /* \"evoting.sol\":1900:2019  Kandidat({... */\n  dup2\n  mstore\n  0x20\n  add\n    /* \"evoting.sol\":2003:2004  0 */\n  0x00\n    /* \"evoting.sol\":1900:2019  Kandidat({... */\n  dup2\n  mstore\n  pop\n    /* \"evoting.sol\":1882:2020  kandidatList.push(Kandidat({... */\n  swap1\n  dup1\n  0x01\n  dup2\n  sload\n  add\n  dup1\n  dup3\n  sstore\n  dup1\n  swap2\n  pop\n  pop\n  0x01\n  swap1\n  sub\n  swap1\n  0x00\n  mstore\n  keccak256(0x00, 0x20)\n  swap1\n  0x03\n  mul\n  add\n  0x00\n  swap1\n  swap2\n  swap1\n  swap2\n  swap1\n  swap2\n  pop\n  0x00\n  dup3\n  add\n  mload\n  dup2\n  0x00\n  add\n  sstore\n  0x20\n  dup3\n  add\n  mload\n  dup2\n  0x01\n  add\n  swap1\n  dup2\n  tag_15\n  swap2\n  swap1\n  tag_16\n  jump\t// in\ntag_15:\n  pop\n  0x40\n  dup3\n  add\n  mload\n  dup2\n  0x02\n  add\n  sstore\n  pop\n  pop\n    /* \"evoting.sol\":1863:1866  i++ */\n  dup1\n  dup1\n  0x01\n  add\n  swap2\n  pop\n  pop\n    /* \"evoting.sol\":1820:2031  for (uint i = 0; i < _namaKandidat.length; i++) {... */\n  jump(tag_8)\ntag_9:\n  pop\n    /* \"evoting.sol\":1524:2037  constructor(string[] memory _namaKandidat, uint _durasiVotingDetik) {... */\n  pop\n  pop\n    /* \"evoting.sol\":230:3678  contract SistemVoting {... */\n  jump(tag_17)\n    /* \"#utility.yul\":7:82   */\ntag_18:\n    /* \"#utility.yul\":40:46   */\n  0x00\n    /* \"#utility.yul\":73:75   */\n  0x40\n    /* \"#utility.yul\":67:76   */\n  mload\n    /* \"#utility.yul\":57:76   */\n  swap1\n  pop\n    /* \"#utility.yul\":7:82   */\n  swap1\n  jump\t// out\n    /* \"#utility.yul\":88:205   */\ntag_19:\n    /* \"#utility.yul\":197:198   */\n  0x00\n    /* \"#utility.yul\":194:195   */\n  0x00\n    /* \"#utility.yul\":187:199   */\n  revert\n    /* \"#utility.yul\":211:328   */\ntag_20:\n    /* \"#utility.yul\":320:321   */\n  0x00\n    /* \"#utility.yul\":317:318   */\n  0x00\n    /* \"#utility.yul\":310:322   */\n  revert\n    /* \"#utility.yul\":334:451   */\ntag_21:\n    /* \"#utility.yul\":443:444   */\n  0x00\n    /* \"#utility.yul\":440:441   */\n  0x00\n    /* \"#utility.yul\":433:445   */\n  revert\n    /* \"#utility.yul\":457:559   */\ntag_22:\n    /* \"#utility.yul\":498:504   */\n  0x00\n    /* \"#utility.yul\":549:551   */\n  0x1f\n    /* \"#utility.yul\":545:552   */\n  not\n    /* \"#utility.yul\":540:542   */\n  0x1f\n    /* \"#utility.yul\":533:538   */\n  dup4\n    /* \"#utility.yul\":529:543   */\n  add\n    /* \"#utility.yul\":525:553   */\n  and\n    /* \"#utility.yul\":515:553   */\n  swap1\n  pop\n    /* \"#utility.yul\":457:559   */\n  swap2\n  swap1\n  pop\n  jump\t// out\n    /* \"#utility.yul\":565:745   */\ntag_23:\n    /* \"#utility.yul\":613:690   */\n  0x4e487b7100000000000000000000000000000000000000000000000000000000\n    /* \"#utility.yul\":610:611   */\n  0x00\n    /* \"#utility.yul\":603:691   */\n  mstore\n    /* \"#utility.yul\":710:714   */\n  0x41\n    /* \"#utility.yul\":707:708   */\n  0x04\n    /* \"#utility.yul\":700:715   */\n  mstore\n    /* \"#utility.yul\":734:738   */\n  0x24\n    /* \"#utility.yul\":731:732   */\n  0x00\n    /* \"#utility.yul\":724:739   */\n  revert\n    /* \"#utility.yul\":751:1032   */\ntag_24:\n    /* \"#utility.yul\":834:861   */\n  tag_65\n    /* \"#utility.yul\":856:860   */\n  dup3\n    /* \"#utility.yul\":834:861   */\n  tag_22\n  jump\t// in\ntag_65:\n    /* \"#utility.yul\":826:832   */\n  dup2\n    /* \"#utility.yul\":822:862   */\n  add\n    /* \"#utility.yul\":964:970   */\n  dup2\n    /* \"#utility.yul\":952:962   */\n  dup2\n    /* \"#utility.yul\":949:971   */\n  lt\n    /* \"#utility.yul\":928:946   */\n  0xffffffffffffffff\n    /* \"#utility.yul\":916:926   */\n  dup3\n    /* \"#utility.yul\":913:947   */\n  gt\n    /* \"#utility.yul\":910:972   */\n  or\n    /* \"#utility.yul\":907:995   */\n  iszero\n  tag_66\n  jumpi\n    /* \"#utility.yul\":975:993   */\n  tag_67\n  tag_23\n  jump\t// in\ntag_67:\n    /* \"#utility.yul\":907:995   */\ntag_66:\n    /* \"#utility.yul\":1015:1025   */\n  dup1\n    /* \"#utility.yul\":1011:1013   */\n  0x40\n    /* \"#utility.yul\":1004:1026   */\n  mstore\n    /* \"#utility.yul\":794:1032   */\n  pop\n    /* \"#utility.yul\":751:1032   */\n  pop\n  pop\n  jump\t// out\n    /* \"#utility.yul\":1038:1167   */\ntag_25:\n    /* \"#utility.yul\":1072:1078   */\n  0x00\n    /* \"#utility.yul\":1099:1119   */\n  tag_69\n  tag_18\n  jump\t// in\ntag_69:\n    /* \"#utility.yul\":1089:1119   */\n  swap1\n  pop\n    /* \"#utility.yul\":1128:1161   */\n  tag_70\n    /* \"#utility.yul\":1156:1160   */\n  dup3\n    /* \"#utility.yul\":1148:1154   */\n  dup3\n    /* \"#utility.yul\":1128:1161   */\n  tag_24\n  jump\t// in\ntag_70:\n    /* \"#utility.yul\":1038:1167   */\n  swap2\n  swap1\n  pop\n  jump\t// out\n    /* \"#utility.yul\":1173:1494   */\ntag_26:\n    /* \"#utility.yul\":1260:1264   */\n  0x00\n    /* \"#utility.yul\":1350:1368   */\n  0xffffffffffffffff\n    /* \"#utility.yul\":1342:1348   */\n  dup3\n    /* \"#utility.yul\":1339:1369   */\n  gt\n    /* \"#utility.yul\":1336:1392   */\n  iszero\n  tag_72\n  jumpi\n    /* \"#utility.yul\":1372:1390   */\n  tag_73\n  tag_23\n  jump\t// in\ntag_73:\n    /* \"#utility.yul\":1336:1392   */\ntag_72:\n    /* \"#utility.yul\":1422:1426   */\n  0x20\n    /* \"#utility.yul\":1414:1420   */\n  dup3\n    /* \"#utility.yul\":1410:1427   */\n  mul\n    /* \"#utility.yul\":1402:1427   */\n  swap1\n  pop\n    /* \"#utility.yul\":1482:1486   */\n  0x20\n    /* \"#utility.yul\":1476:1480   */\n  dup2\n    /* \"#utility.yul\":1472:1487   */\n  add\n    /* \"#utility.yul\":1464:1487   */\n  swap1\n  pop\n    /* \"#utility.yul\":1173:1494   */\n  swap2\n  swap1\n  pop\n  jump\t// out\n    /* \"#utility.yul\":1500:1617   */\ntag_27:\n    /* \"#utility.yul\":1609:1610   */\n  0x00\n    /* \"#utility.yul\":1606:1607   */\n  0x00\n    /* \"#utility.yul\":1599:1611   */\n  revert\n    /* \"#utility.yul\":1623:1740   */\ntag_28:\n    /* \"#utility.yul\":1732:1733   */\n  0x00\n    /* \"#utility.yul\":1729:1730   */\n  0x00\n    /* \"#utility.yul\":1722:1734   */\n  revert\n    /* \"#utility.yul\":1746:2054   */\ntag_29:\n    /* \"#utility.yul\":1808:1812   */\n  0x00\n    /* \"#utility.yul\":1898:1916   */\n  0xffffffffffffffff\n    /* \"#utility.yul\":1890:1896   */\n  dup3\n    /* \"#utility.yul\":1887:1917   */\n  gt\n    /* \"#utility.yul\":1884:1940   */\n  iszero\n  tag_77\n  jumpi\n    /* \"#utility.yul\":1920:1938   */\n  tag_78\n  tag_23\n  jump\t// in\ntag_78:\n    /* \"#utility.yul\":1884:1940   */\ntag_77:\n    /* \"#utility.yul\":1958:1987   */\n  tag_79\n    /* \"#utility.yul\":1980:1986   */\n  dup3\n    /* \"#utility.yul\":1958:1987   */\n  tag_22\n  jump\t// in\ntag_79:\n    /* \"#utility.yul\":1950:1987   */\n  swap1\n  pop\n    /* \"#utility.yul\":2042:2046   */\n  0x20\n    /* \"#utility.yul\":2036:2040   */\n  dup2\n    /* \"#utility.yul\":2032:2047   */\n  add\n    /* \"#utility.yul\":2024:2047   */\n  swap1\n  pop\n    /* \"#utility.yul\":1746:2054   */\n  swap2\n  swap1\n  pop\n  jump\t// out\n    /* \"#utility.yul\":2060:2199   */\ntag_30:\n    /* \"#utility.yul\":2149:2155   */\n  dup3\n    /* \"#utility.yul\":2144:2147   */\n  dup2\n    /* \"#utility.yul\":2139:2142   */\n  dup4\n    /* \"#utility.yul\":2133:2156   */\n  mcopy\n    /* \"#utility.yul\":2190:2191   */\n  0x00\n    /* \"#utility.yul\":2181:2187   */\n  dup4\n    /* \"#utility.yul\":2176:2179   */\n  dup4\n    /* \"#utility.yul\":2172:2188   */\n  add\n    /* \"#utility.yul\":2165:2192   */\n  mstore\n    /* \"#utility.yul\":2060:2199   */\n  pop\n  pop\n  pop\n  jump\t// out\n    /* \"#utility.yul\":2205:2639   */\ntag_31:\n    /* \"#utility.yul\":2294:2299   */\n  0x00\n    /* \"#utility.yul\":2319:2385   */\n  tag_82\n    /* \"#utility.yul\":2335:2384   */\n  tag_83\n    /* \"#utility.yul\":2377:2383   */\n  dup5\n    /* \"#utility.yul\":2335:2384   */\n  tag_29\n  jump\t// in\ntag_83:\n    /* \"#utility.yul\":2319:2385   */\n  tag_25\n  jump\t// in\ntag_82:\n    /* \"#utility.yul\":2310:2385   */\n  swap1\n  pop\n    /* \"#utility.yul\":2408:2414   */\n  dup3\n    /* \"#utility.yul\":2401:2406   */\n  dup2\n    /* \"#utility.yul\":2394:2415   */\n  mstore\n    /* \"#utility.yul\":2446:2450   */\n  0x20\n    /* \"#utility.yul\":2439:2444   */\n  dup2\n    /* \"#utility.yul\":2435:2451   */\n  add\n    /* \"#utility.yul\":2484:2487   */\n  dup5\n    /* \"#utility.yul\":2475:2481   */\n  dup5\n    /* \"#utility.yul\":2470:2473   */\n  dup5\n    /* \"#utility.yul\":2466:2482   */\n  add\n    /* \"#utility.yul\":2463:2488   */\n  gt\n    /* \"#utility.yul\":2460:2572   */\n  iszero\n  tag_84\n  jumpi\n    /* \"#utility.yul\":2491:2570   */\n  tag_85\n  tag_28\n  jump\t// in\ntag_85:\n    /* \"#utility.yul\":2460:2572   */\ntag_84:\n    /* \"#utility.yul\":2581:2633   */\n  tag_86\n    /* \"#utility.yul\":2626:2632   */\n  dup5\n    /* \"#utility.yul\":2621:2624   */\n  dup3\n    /* \"#utility.yul\":2616:2619   */\n  dup6\n    /* \"#utility.yul\":2581:2633   */\n  tag_30\n  jump\t// in\ntag_86:\n    /* \"#utility.yul\":2300:2639   */\n  pop\n    /* \"#utility.yul\":2205:2639   */\n  swap4\n  swap3\n  pop\n  pop\n  pop\n  jump\t// out\n    /* \"#utility.yul\":2659:3014   */\ntag_32:\n    /* \"#utility.yul\":2726:2731   */\n  0x00\n    /* \"#utility.yul\":2775:2778   */\n  dup3\n    /* \"#utility.yul\":2768:2772   */\n  0x1f\n    /* \"#utility.yul\":2760:2766   */\n  dup4\n    /* \"#utility.yul\":2756:2773   */\n  add\n    /* \"#utility.yul\":2752:2779   */\n  slt\n    /* \"#utility.yul\":2742:2864   */\n  tag_88\n  jumpi\n    /* \"#utility.yul\":2783:2862   */\n  tag_89\n  tag_21\n  jump\t// in\ntag_89:\n    /* \"#utility.yul\":2742:2864   */\ntag_88:\n    /* \"#utility.yul\":2893:2899   */\n  dup2\n    /* \"#utility.yul\":2887:2900   */\n  mload\n    /* \"#utility.yul\":2918:3008   */\n  tag_90\n    /* \"#utility.yul\":3004:3007   */\n  dup5\n    /* \"#utility.yul\":2996:3002   */\n  dup3\n    /* \"#utility.yul\":2989:2993   */\n  0x20\n    /* \"#utility.yul\":2981:2987   */\n  dup7\n    /* \"#utility.yul\":2977:2994   */\n  add\n    /* \"#utility.yul\":2918:3008   */\n  tag_31\n  jump\t// in\ntag_90:\n    /* \"#utility.yul\":2909:3008   */\n  swap2\n  pop\n    /* \"#utility.yul\":2732:3014   */\n  pop\n    /* \"#utility.yul\":2659:3014   */\n  swap3\n  swap2\n  pop\n  pop\n  jump\t// out\n    /* \"#utility.yul\":3036:3996   */\ntag_33:\n    /* \"#utility.yul\":3153:3158   */\n  0x00\n    /* \"#utility.yul\":3178:3269   */\n  tag_92\n    /* \"#utility.yul\":3194:3268   */\n  tag_93\n    /* \"#utility.yul\":3261:3267   */\n  dup5\n    /* \"#utility.yul\":3194:3268   */\n  tag_26\n  jump\t// in\ntag_93:\n    /* \"#utility.yul\":3178:3269   */\n  tag_25\n  jump\t// in\ntag_92:\n    /* \"#utility.yul\":3169:3269   */\n  swap1\n  pop\n    /* \"#utility.yul\":3289:3294   */\n  dup1\n    /* \"#utility.yul\":3318:3324   */\n  dup4\n    /* \"#utility.yul\":3311:3316   */\n  dup3\n    /* \"#utility.yul\":3304:3325   */\n  mstore\n    /* \"#utility.yul\":3352:3356   */\n  0x20\n    /* \"#utility.yul\":3345:3350   */\n  dup3\n    /* \"#utility.yul\":3341:3357   */\n  add\n    /* \"#utility.yul\":3334:3357   */\n  swap1\n  pop\n    /* \"#utility.yul\":3405:3409   */\n  0x20\n    /* \"#utility.yul\":3397:3403   */\n  dup5\n    /* \"#utility.yul\":3393:3410   */\n  mul\n    /* \"#utility.yul\":3385:3391   */\n  dup4\n    /* \"#utility.yul\":3381:3411   */\n  add\n    /* \"#utility.yul\":3434:3437   */\n  dup6\n    /* \"#utility.yul\":3426:3432   */\n  dup2\n    /* \"#utility.yul\":3423:3438   */\n  gt\n    /* \"#utility.yul\":3420:3542   */\n  iszero\n  tag_94\n  jumpi\n    /* \"#utility.yul\":3453:3532   */\n  tag_95\n  tag_27\n  jump\t// in\ntag_95:\n    /* \"#utility.yul\":3420:3542   */\ntag_94:\n    /* \"#utility.yul\":3568:3574   */\n  dup4\n    /* \"#utility.yul\":3551:3990   */\ntag_96:\n    /* \"#utility.yul\":3585:3591   */\n  dup2\n    /* \"#utility.yul\":3580:3583   */\n  dup2\n    /* \"#utility.yul\":3577:3592   */\n  lt\n    /* \"#utility.yul\":3551:3990   */\n  iszero\n  tag_98\n  jumpi\n    /* \"#utility.yul\":3667:3670   */\n  dup1\n    /* \"#utility.yul\":3661:3671   */\n  mload\n    /* \"#utility.yul\":3703:3721   */\n  0xffffffffffffffff\n    /* \"#utility.yul\":3690:3701   */\n  dup2\n    /* \"#utility.yul\":3687:3722   */\n  gt\n    /* \"#utility.yul\":3684:3806   */\n  iszero\n  tag_99\n  jumpi\n    /* \"#utility.yul\":3725:3804   */\n  tag_100\n  tag_21\n  jump\t// in\ntag_100:\n    /* \"#utility.yul\":3684:3806   */\ntag_99:\n    /* \"#utility.yul\":3849:3860   */\n  dup1\n    /* \"#utility.yul\":3841:3847   */\n  dup7\n    /* \"#utility.yul\":3837:3861   */\n  add\n    /* \"#utility.yul\":3887:3945   */\n  tag_101\n    /* \"#utility.yul\":3941:3944   */\n  dup10\n    /* \"#utility.yul\":3929:3939   */\n  dup3\n    /* \"#utility.yul\":3887:3945   */\n  tag_32\n  jump\t// in\ntag_101:\n    /* \"#utility.yul\":3882:3885   */\n  dup6\n    /* \"#utility.yul\":3875:3946   */\n  mstore\n    /* \"#utility.yul\":3975:3979   */\n  0x20\n    /* \"#utility.yul\":3970:3973   */\n  dup6\n    /* \"#utility.yul\":3966:3980   */\n  add\n    /* \"#utility.yul\":3959:3980   */\n  swap5\n  pop\n    /* \"#utility.yul\":3627:3990   */\n  pop\n  pop\n    /* \"#utility.yul\":3611:3615   */\n  0x20\n    /* \"#utility.yul\":3606:3609   */\n  dup2\n    /* \"#utility.yul\":3602:3616   */\n  add\n    /* \"#utility.yul\":3595:3616   */\n  swap1\n  pop\n    /* \"#utility.yul\":3551:3990   */\n  jump(tag_96)\ntag_98:\n    /* \"#utility.yul\":3555:3576   */\n  pop\n    /* \"#utility.yul\":3159:3996   */\n  pop\n  pop\n    /* \"#utility.yul\":3036:3996   */\n  swap4\n  swap3\n  pop\n  pop\n  pop\n  jump\t// out\n    /* \"#utility.yul\":4018:4423   */\ntag_34:\n    /* \"#utility.yul\":4110:4115   */\n  0x00\n    /* \"#utility.yul\":4159:4162   */\n  dup3\n    /* \"#utility.yul\":4152:4156   */\n  0x1f\n    /* \"#utility.yul\":4144:4150   */\n  dup4\n    /* \"#utility.yul\":4140:4157   */\n  add\n    /* \"#utility.yul\":4136:4163   */\n  slt\n    /* \"#utility.yul\":4126:4248   */\n  tag_103\n  jumpi\n    /* \"#utility.yul\":4167:4246   */\n  tag_104\n  tag_21\n  jump\t// in\ntag_104:\n    /* \"#utility.yul\":4126:4248   */\ntag_103:\n    /* \"#utility.yul\":4277:4283   */\n  dup2\n    /* \"#utility.yul\":4271:4284   */\n  mload\n    /* \"#utility.yul\":4302:4417   */\n  tag_105\n    /* \"#utility.yul\":4413:4416   */\n  dup5\n    /* \"#utility.yul\":4405:4411   */\n  dup3\n    /* \"#utility.yul\":4398:4402   */\n  0x20\n    /* \"#utility.yul\":4390:4396   */\n  dup7\n    /* \"#utility.yul\":4386:4403   */\n  add\n    /* \"#utility.yul\":4302:4417   */\n  tag_33\n  jump\t// in\ntag_105:\n    /* \"#utility.yul\":4293:4417   */\n  swap2\n  pop\n    /* \"#utility.yul\":4116:4423   */\n  pop\n    /* \"#utility.yul\":4018:4423   */\n  swap3\n  swap2\n  pop\n  pop\n  jump\t// out\n    /* \"#utility.yul\":4429:4506   */\ntag_35:\n    /* \"#utility.yul\":4466:4473   */\n  0x00\n    /* \"#utility.yul\":4495:4500   */\n  dup2\n    /* \"#utility.yul\":4484:4500   */\n  swap1\n  pop\n    /* \"#utility.yul\":4429:4506   */\n  swap2\n  swap1\n  pop\n  jump\t// out\n    /* \"#utility.yul\":4512:4634   */\ntag_36:\n    /* \"#utility.yul\":4585:4609   */\n  tag_108\n    /* \"#utility.yul\":4603:4608   */\n  dup2\n    /* \"#utility.yul\":4585:4609   */\n  tag_35\n  jump\t// in\ntag_108:\n    /* \"#utility.yul\":4578:4583   */\n  dup2\n    /* \"#utility.yul\":4575:4610   */\n  eq\n    /* \"#utility.yul\":4565:4628   */\n  tag_109\n  jumpi\n    /* \"#utility.yul\":4624:4625   */\n  0x00\n    /* \"#utility.yul\":4621:4622   */\n  0x00\n    /* \"#utility.yul\":4614:4626   */\n  revert\n    /* \"#utility.yul\":4565:4628   */\ntag_109:\n    /* \"#utility.yul\":4512:4634   */\n  pop\n  jump\t// out\n    /* \"#utility.yul\":4640:4783   */\ntag_37:\n    /* \"#utility.yul\":4697:4702   */\n  0x00\n    /* \"#utility.yul\":4728:4734   */\n  dup2\n    /* \"#utility.yul\":4722:4735   */\n  mload\n    /* \"#utility.yul\":4713:4735   */\n  swap1\n  pop\n    /* \"#utility.yul\":4744:4777   */\n  tag_111\n    /* \"#utility.yul\":4771:4776   */\n  dup2\n    /* \"#utility.yul\":4744:4777   */\n  tag_36\n  jump\t// in\ntag_111:\n    /* \"#utility.yul\":4640:4783   */\n  swap3\n  swap2\n  pop\n  pop\n  jump\t// out\n    /* \"#utility.yul\":4789:5519   */\ntag_3:\n    /* \"#utility.yul\":4903:4909   */\n  0x00\n    /* \"#utility.yul\":4911:4917   */\n  0x00\n    /* \"#utility.yul\":4960:4962   */\n  0x40\n    /* \"#utility.yul\":4948:4957   */\n  dup4\n    /* \"#utility.yul\":4939:4946   */\n  dup6\n    /* \"#utility.yul\":4935:4958   */\n  sub\n    /* \"#utility.yul\":4931:4963   */\n  slt\n    /* \"#utility.yul\":4928:5047   */\n  iszero\n  tag_113\n  jumpi\n    /* \"#utility.yul\":4966:5045   */\n  tag_114\n  tag_19\n  jump\t// in\ntag_114:\n    /* \"#utility.yul\":4928:5047   */\ntag_113:\n    /* \"#utility.yul\":5107:5108   */\n  0x00\n    /* \"#utility.yul\":5096:5105   */\n  dup4\n    /* \"#utility.yul\":5092:5109   */\n  add\n    /* \"#utility.yul\":5086:5110   */\n  mload\n    /* \"#utility.yul\":5137:5155   */\n  0xffffffffffffffff\n    /* \"#utility.yul\":5129:5135   */\n  dup2\n    /* \"#utility.yul\":5126:5156   */\n  gt\n    /* \"#utility.yul\":5123:5240   */\n  iszero\n  tag_115\n  jumpi\n    /* \"#utility.yul\":5159:5238   */\n  tag_116\n  tag_20\n  jump\t// in\ntag_116:\n    /* \"#utility.yul\":5123:5240   */\ntag_115:\n    /* \"#utility.yul\":5264:5363   */\n  tag_117\n    /* \"#utility.yul\":5355:5362   */\n  dup6\n    /* \"#utility.yul\":5346:5352   */\n  dup3\n    /* \"#utility.yul\":5335:5344   */\n  dup7\n    /* \"#utility.yul\":5331:5353   */\n  add\n    /* \"#utility.yul\":5264:5363   */\n  tag_34\n  jump\t// in\ntag_117:\n    /* \"#utility.yul\":5254:5363   */\n  swap3\n  pop\n    /* \"#utility.yul\":5057:5373   */\n  pop\n    /* \"#utility.yul\":5412:5414   */\n  0x20\n    /* \"#utility.yul\":5438:5502   */\n  tag_118\n    /* \"#utility.yul\":5494:5501   */\n  dup6\n    /* \"#utility.yul\":5485:5491   */\n  dup3\n    /* \"#utility.yul\":5474:5483   */\n  dup7\n    /* \"#utility.yul\":5470:5492   */\n  add\n    /* \"#utility.yul\":5438:5502   */\n  tag_37\n  jump\t// in\ntag_118:\n    /* \"#utility.yul\":5428:5502   */\n  swap2\n  pop\n    /* \"#utility.yul\":5383:5512   */\n  pop\n    /* \"#utility.yul\":4789:5519   */\n  swap3\n  pop\n  swap3\n  swap1\n  pop\n  jump\t// out\n    /* \"#utility.yul\":5525:5705   */\ntag_38:\n    /* \"#utility.yul\":5573:5650   */\n  0x4e487b7100000000000000000000000000000000000000000000000000000000\n    /* \"#utility.yul\":5570:5571   */\n  0x00\n    /* \"#utility.yul\":5563:5651   */\n  mstore\n    /* \"#utility.yul\":5670:5674   */\n  0x11\n    /* \"#utility.yul\":5667:5668   */\n  0x04\n    /* \"#utility.yul\":5660:5675   */\n  mstore\n    /* \"#utility.yul\":5694:5698   */\n  0x24\n    /* \"#utility.yul\":5691:5692   */\n  0x00\n    /* \"#utility.yul\":5684:5699   */\n  revert\n    /* \"#utility.yul\":5711:5902   */\ntag_7:\n    /* \"#utility.yul\":5751:5754   */\n  0x00\n    /* \"#utility.yul\":5770:5790   */\n  tag_121\n    /* \"#utility.yul\":5788:5789   */\n  dup3\n    /* \"#utility.yul\":5770:5790   */\n  tag_35\n  jump\t// in\ntag_121:\n    /* \"#utility.yul\":5765:5790   */\n  swap2\n  pop\n    /* \"#utility.yul\":5804:5824   */\n  tag_122\n    /* \"#utility.yul\":5822:5823   */\n  dup4\n    /* \"#utility.yul\":5804:5824   */\n  tag_35\n  jump\t// in\ntag_122:\n    /* \"#utility.yul\":5799:5824   */\n  swap3\n  pop\n    /* \"#utility.yul\":5847:5848   */\n  dup3\n    /* \"#utility.yul\":5844:5845   */\n  dup3\n    /* \"#utility.yul\":5840:5849   */\n  add\n    /* \"#utility.yul\":5833:5849   */\n  swap1\n  pop\n    /* \"#utility.yul\":5868:5871   */\n  dup1\n    /* \"#utility.yul\":5865:5866   */\n  dup3\n    /* \"#utility.yul\":5862:5872   */\n  gt\n    /* \"#utility.yul\":5859:5895   */\n  iszero\n  tag_123\n  jumpi\n    /* \"#utility.yul\":5875:5893   */\n  tag_124\n  tag_38\n  jump\t// in\ntag_124:\n    /* \"#utility.yul\":5859:5895   */\ntag_123:\n    /* \"#utility.yul\":5711:5902   */\n  swap3\n  swap2\n  pop\n  pop\n  jump\t// out\n    /* \"#utility.yul\":5908:6088   */\ntag_13:\n    /* \"#utility.yul\":5956:6033   */\n  0x4e487b7100000000000000000000000000000000000000000000000000000000\n    /* \"#utility.yul\":5953:5954   */\n  0x00\n    /* \"#utility.yul\":5946:6034   */\n  mstore\n    /* \"#utility.yul\":6053:6057   */\n  0x32\n    /* \"#utility.yul\":6050:6051   */\n  0x04\n    /* \"#utility.yul\":6043:6058   */\n  mstore\n    /* \"#utility.yul\":6077:6081   */\n  0x24\n    /* \"#utility.yul\":6074:6075   */\n  0x00\n    /* \"#utility.yul\":6067:6082   */\n  revert\n    /* \"#utility.yul\":6094:6193   */\ntag_39:\n    /* \"#utility.yul\":6146:6152   */\n  0x00\n    /* \"#utility.yul\":6180:6185   */\n  dup2\n    /* \"#utility.yul\":6174:6186   */\n  mload\n    /* \"#utility.yul\":6164:6186   */\n  swap1\n  pop\n    /* \"#utility.yul\":6094:6193   */\n  swap2\n  swap1\n  pop\n  jump\t// out\n    /* \"#utility.yul\":6199:6379   */\ntag_40:\n    /* \"#utility.yul\":6247:6324   */\n  0x4e487b7100000000000000000000000000000000000000000000000000000000\n    /* \"#utility.yul\":6244:6245   */\n  0x00\n    /* \"#utility.yul\":6237:6325   */\n  mstore\n    /* \"#utility.yul\":6344:6348   */\n  0x22\n    /* \"#utility.yul\":6341:6342   */\n  0x04\n    /* \"#utility.yul\":6334:6349   */\n  mstore\n    /* \"#utility.yul\":6368:6372   */\n  0x24\n    /* \"#utility.yul\":6365:6366   */\n  0x00\n    /* \"#utility.yul\":6358:6373   */\n  revert\n    /* \"#utility.yul\":6385:6705   */\ntag_41:\n    /* \"#utility.yul\":6429:6435   */\n  0x00\n    /* \"#utility.yul\":6466:6467   */\n  0x02\n    /* \"#utility.yul\":6460:6464   */\n  dup3\n    /* \"#utility.yul\":6456:6468   */\n  div\n    /* \"#utility.yul\":6446:6468   */\n  swap1\n  pop\n    /* \"#utility.yul\":6513:6514   */\n  0x01\n    /* \"#utility.yul\":6507:6511   */\n  dup3\n    /* \"#utility.yul\":6503:6515   */\n  and\n    /* \"#utility.yul\":6534:6552   */\n  dup1\n    /* \"#utility.yul\":6524:6605   */\n  tag_129\n  jumpi\n    /* \"#utility.yul\":6590:6594   */\n  0x7f\n    /* \"#utility.yul\":6582:6588   */\n  dup3\n    /* \"#utility.yul\":6578:6595   */\n  and\n    /* \"#utility.yul\":6568:6595   */\n  swap2\n  pop\n    /* \"#utility.yul\":6524:6605   */\ntag_129:\n    /* \"#utility.yul\":6652:6654   */\n  0x20\n    /* \"#utility.yul\":6644:6650   */\n  dup3\n    /* \"#utility.yul\":6641:6655   */\n  lt\n    /* \"#utility.yul\":6621:6639   */\n  dup2\n    /* \"#utility.yul\":6618:6656   */\n  sub\n    /* \"#utility.yul\":6615:6699   */\n  tag_130\n  jumpi\n    /* \"#utility.yul\":6671:6689   */\n  tag_131\n  tag_40\n  jump\t// in\ntag_131:\n    /* \"#utility.yul\":6615:6699   */\ntag_130:\n    /* \"#utility.yul\":6436:6705   */\n  pop\n    /* \"#utility.yul\":6385:6705   */\n  swap2\n  swap1\n  pop\n  jump\t// out\n    /* \"#utility.yul\":6711:6852   */\ntag_42:\n    /* \"#utility.yul\":6760:6764   */\n  0x00\n    /* \"#utility.yul\":6783:6786   */\n  dup2\n    /* \"#utility.yul\":6775:6786   */\n  swap1\n  pop\n    /* \"#utility.yul\":6806:6809   */\n  dup2\n    /* \"#utility.yul\":6803:6804   */\n  0x00\n    /* \"#utility.yul\":6796:6810   */\n  mstore\n    /* \"#utility.yul\":6840:6844   */\n  0x20\n    /* \"#utility.yul\":6837:6838   */\n  0x00\n    /* \"#utility.yul\":6827:6845   */\n  keccak256\n    /* \"#utility.yul\":6819:6845   */\n  swap1\n  pop\n    /* \"#utility.yul\":6711:6852   */\n  swap2\n  swap1\n  pop\n  jump\t// out\n    /* \"#utility.yul\":6858:6951   */\ntag_43:\n    /* \"#utility.yul\":6895:6901   */\n  0x00\n    /* \"#utility.yul\":6942:6944   */\n  0x20\n    /* \"#utility.yul\":6937:6939   */\n  0x1f\n    /* \"#utility.yul\":6930:6935   */\n  dup4\n    /* \"#utility.yul\":6926:6940   */\n  add\n    /* \"#utility.yul\":6922:6945   */\n  div\n    /* \"#utility.yul\":6912:6945   */\n  swap1\n  pop\n    /* \"#utility.yul\":6858:6951   */\n  swap2\n  swap1\n  pop\n  jump\t// out\n    /* \"#utility.yul\":6957:7064   */\ntag_44:\n    /* \"#utility.yul\":7001:7009   */\n  0x00\n    /* \"#utility.yul\":7051:7056   */\n  dup3\n    /* \"#utility.yul\":7045:7049   */\n  dup3\n    /* \"#utility.yul\":7041:7057   */\n  shl\n    /* \"#utility.yul\":7020:7057   */\n  swap1\n  pop\n    /* \"#utility.yul\":6957:7064   */\n  swap3\n  swap2\n  pop\n  pop\n  jump\t// out\n    /* \"#utility.yul\":7070:7463   */\ntag_45:\n    /* \"#utility.yul\":7139:7145   */\n  0x00\n    /* \"#utility.yul\":7189:7190   */\n  0x08\n    /* \"#utility.yul\":7177:7187   */\n  dup4\n    /* \"#utility.yul\":7173:7191   */\n  mul\n    /* \"#utility.yul\":7212:7309   */\n  tag_136\n    /* \"#utility.yul\":7242:7308   */\n  0xffffffffffffffffffffffffffffffffffffffffffffffffffffffffffffffff\n    /* \"#utility.yul\":7231:7240   */\n  dup3\n    /* \"#utility.yul\":7212:7309   */\n  tag_44\n  jump\t// in\ntag_136:\n    /* \"#utility.yul\":7330:7369   */\n  tag_137\n    /* \"#utility.yul\":7360:7368   */\n  dup7\n    /* \"#utility.yul\":7349:7358   */\n  dup4\n    /* \"#utility.yul\":7330:7369   */\n  tag_44\n  jump\t// in\ntag_137:\n    /* \"#utility.yul\":7318:7369   */\n  swap6\n  pop\n    /* \"#utility.yul\":7402:7406   */\n  dup1\n    /* \"#utility.yul\":7398:7407   */\n  not\n    /* \"#utility.yul\":7391:7396   */\n  dup5\n    /* \"#utility.yul\":7387:7408   */\n  and\n    /* \"#utility.yul\":7378:7408   */\n  swap4\n  pop\n    /* \"#utility.yul\":7451:7455   */\n  dup1\n    /* \"#utility.yul\":7441:7449   */\n  dup7\n    /* \"#utility.yul\":7437:7456   */\n  and\n    /* \"#utility.yul\":7430:7435   */\n  dup5\n    /* \"#utility.yul\":7427:7457   */\n  or\n    /* \"#utility.yul\":7417:7457   */\n  swap3\n  pop\n    /* \"#utility.yul\":7146:7463   */\n  pop\n  pop\n    /* \"#utility.yul\":7070:7463   */\n  swap4\n  swap3\n  pop\n  pop\n  pop\n  jump\t// out\n    /* \"#utility.yul\":7469:7529   */\ntag_46:\n    /* \"#utility.yul\":7497:7500   */\n  0x00\n    /* \"#utility.yul\":7518:7523   */\n  dup2\n    /* \"#utility.yul\":7511:7523   */\n  swap1\n  pop\n    /* \"#utility.yul\":7469:7529   */\n  swap2\n  swap1\n  pop\n  jump\t// out\n    /* \"#utility.yul\":7535:7677   */\ntag_47:\n    /* \"#utility.yul\":7585:7594   */\n  0x00\n    /* \"#utility.yul\":7618:7671   */\n  tag_140\n    /* \"#utility.yul\":7636:7670   */\n  tag_141\n    /* \"#utility.yul\":7645:7669   */\n  tag_142\n    /* \"#utility.yul\":7663:7668   */\n  dup5\n    /* \"#utility.yul\":7645:7669   */\n  tag_35\n  jump\t// in\ntag_142:\n    /* \"#utility.yul\":7636:7670   */\n  tag_46\n  jump\t// in\ntag_141:\n    /* \"#utility.yul\":7618:7671   */\n  tag_35\n  jump\t// in\ntag_140:\n    /* \"#utility.yul\":7605:7671   */\n  swap1\n  pop\n    /* \"#utility.yul\":7535:7677   */\n  swap2\n  swap1\n  pop\n  jump\t// out\n    /* \"#utility.yul\":7683:7758   */\ntag_48:\n    /* \"#utility.yul\":7726:7729   */\n  0x00\n    /* \"#utility.yul\":7747:7752   */\n  dup2\n    /* \"#utility.yul\":7740:7752   */\n  swap1\n  pop\n    /* \"#utility.yul\":7683:7758   */\n  swap2\n  swap1\n  pop\n  jump\t// out\n    /* \"#utility.yul\":7764:8033   */\ntag_49:\n    /* \"#utility.yul\":7874:7913   */\n  tag_145\n    /* \"#utility.yul\":7905:7912   */\n  dup4\n    /* \"#utility.yul\":7874:7913   */\n  tag_47\n  jump\t// in\ntag_145:\n    /* \"#utility.yul\":7935:8026   */\n  tag_146\n    /* \"#utility.yul\":7984:8025   */\n  tag_147\n    /* \"#utility.yul\":8008:8024   */\n  dup3\n    /* \"#utility.yul\":7984:8025   */\n  tag_48\n  jump\t// in\ntag_147:\n    /* \"#utility.yul\":7976:7982   */\n  dup5\n    /* \"#utility.yul\":7969:7973   */\n  dup5\n    /* \"#utility.yul\":7963:7974   */\n  sload\n    /* \"#utility.yul\":7935:8026   */\n  tag_45\n  jump\t// in\ntag_146:\n    /* \"#utility.yul\":7929:7933   */\n  dup3\n    /* \"#utility.yul\":7922:8027   */\n  sstore\n    /* \"#utility.yul\":7840:8033   */\n  pop\n    /* \"#utility.yul\":7764:8033   */\n  pop\n  pop\n  pop\n  jump\t// out\n    /* \"#utility.yul\":8039:8112   */\ntag_50:\n    /* \"#utility.yul\":8084:8087   */\n  0x00\n    /* \"#utility.yul\":8105:8106   */\n  0x00\n    /* \"#utility.yul\":8098:8106   */\n  swap1\n  pop\n    /* \"#utility.yul\":8039:8112   */\n  swap1\n  jump\t// out\n    /* \"#utility.yul\":8118:8307   */\ntag_51:\n    /* \"#utility.yul\":8195:8227   */\n  tag_150\n  tag_50\n  jump\t// in\ntag_150:\n    /* \"#utility.yul\":8236:8301   */\n  tag_151\n    /* \"#utility.yul\":8294:8300   */\n  dup2\n    /* \"#utility.yul\":8286:8292   */\n  dup5\n    /* \"#utility.yul\":8280:8284   */\n  dup5\n    /* \"#utility.yul\":8236:8301   */\n  tag_49\n  jump\t// in\ntag_151:\n    /* \"#utility.yul\":8171:8307   */\n  pop\n    /* \"#utility.yul\":8118:8307   */\n  pop\n  pop\n  jump\t// out\n    /* \"#utility.yul\":8313:8499   */\ntag_52:\n    /* \"#utility.yul\":8373:8493   */\ntag_153:\n    /* \"#utility.yul\":8390:8393   */\n  dup2\n    /* \"#utility.yul\":8383:8388   */\n  dup2\n    /* \"#utility.yul\":8380:8394   */\n  lt\n    /* \"#utility.yul\":8373:8493   */\n  iszero\n  tag_155\n  jumpi\n    /* \"#utility.yul\":8444:8483   */\n  tag_156\n    /* \"#utility.yul\":8481:8482   */\n  0x00\n    /* \"#utility.yul\":8474:8479   */\n  dup3\n    /* \"#utility.yul\":8444:8483   */\n  tag_51\n  jump\t// in\ntag_156:\n    /* \"#utility.yul\":8417:8418   */\n  0x01\n    /* \"#utility.yul\":8410:8415   */\n  dup2\n    /* \"#utility.yul\":8406:8419   */\n  add\n    /* \"#utility.yul\":8397:8419   */\n  swap1\n  pop\n    /* \"#utility.yul\":8373:8493   */\n  jump(tag_153)\ntag_155:\n    /* \"#utility.yul\":8313:8499   */\n  pop\n  pop\n  jump\t// out\n    /* \"#utility.yul\":8505:9048   */\ntag_53:\n    /* \"#utility.yul\":8606:8608   */\n  0x1f\n    /* \"#utility.yul\":8601:8604   */\n  dup3\n    /* \"#utility.yul\":8598:8609   */\n  gt\n    /* \"#utility.yul\":8595:9041   */\n  iszero\n  tag_158\n  jumpi\n    /* \"#utility.yul\":8640:8678   */\n  tag_159\n    /* \"#utility.yul\":8672:8677   */\n  dup2\n    /* \"#utility.yul\":8640:8678   */\n  tag_42\n  jump\t// in\ntag_159:\n    /* \"#utility.yul\":8724:8753   */\n  tag_160\n    /* \"#utility.yul\":8742:8752   */\n  dup5\n    /* \"#utility.yul\":8724:8753   */\n  tag_43\n  jump\t// in\ntag_160:\n    /* \"#utility.yul\":8714:8722   */\n  dup2\n    /* \"#utility.yul\":8710:8754   */\n  add\n    /* \"#utility.yul\":8907:8909   */\n  0x20\n    /* \"#utility.yul\":8895:8905   */\n  dup6\n    /* \"#utility.yul\":8892:8910   */\n  lt\n    /* \"#utility.yul\":8889:8938   */\n  iszero\n  tag_161\n  jumpi\n    /* \"#utility.yul\":8928:8936   */\n  dup2\n    /* \"#utility.yul\":8913:8936   */\n  swap1\n  pop\n    /* \"#utility.yul\":8889:8938   */\ntag_161:\n    /* \"#utility.yul\":8951:9031   */\n  tag_162\n    /* \"#utility.yul\":9007:9029   */\n  tag_163\n    /* \"#utility.yul\":9025:9028   */\n  dup6\n    /* \"#utility.yul\":9007:9029   */\n  tag_43\n  jump\t// in\ntag_163:\n    /* \"#utility.yul\":8997:9005   */\n  dup4\n    /* \"#utility.yul\":8993:9030   */\n  add\n    /* \"#utility.yul\":8980:8991   */\n  dup3\n    /* \"#utility.yul\":8951:9031   */\n  tag_52\n  jump\t// in\ntag_162:\n    /* \"#utility.yul\":8610:9041   */\n  pop\n  pop\n    /* \"#utility.yul\":8595:9041   */\ntag_158:\n    /* \"#utility.yul\":8505:9048   */\n  pop\n  pop\n  pop\n  jump\t// out\n    /* \"#utility.yul\":9054:9171   */\ntag_54:\n    /* \"#utility.yul\":9108:9116   */\n  0x00\n    /* \"#utility.yul\":9158:9163   */\n  dup3\n    /* \"#utility.yul\":9152:9156   */\n  dup3\n    /* \"#utility.yul\":9148:9164   */\n  shr\n    /* \"#utility.yul\":9127:9164   */\n  swap1\n  pop\n    /* \"#utility.yul\":9054:9171   */\n  swap3\n  swap2\n  pop\n  pop\n  jump\t// out\n    /* \"#utility.yul\":9177:9346   */\ntag_55:\n    /* \"#utility.yul\":9221:9227   */\n  0x00\n    /* \"#utility.yul\":9254:9305   */\n  tag_166\n    /* \"#utility.yul\":9302:9303   */\n  0x00\n    /* \"#utility.yul\":9298:9304   */\n  not\n    /* \"#utility.yul\":9290:9295   */\n  dup5\n    /* \"#utility.yul\":9287:9288   */\n  0x08\n    /* \"#utility.yul\":9283:9296   */\n  mul\n    /* \"#utility.yul\":9254:9305   */\n  tag_54\n  jump\t// in\ntag_166:\n    /* \"#utility.yul\":9250:9306   */\n  not\n    /* \"#utility.yul\":9335:9339   */\n  dup1\n    /* \"#utility.yul\":9329:9333   */\n  dup4\n    /* \"#utility.yul\":9325:9340   */\n  and\n    /* \"#utility.yul\":9315:9340   */\n  swap2\n  pop\n    /* \"#utility.yul\":9228:9346   */\n  pop\n    /* \"#utility.yul\":9177:9346   */\n  swap3\n  swap2\n  pop\n  pop\n  jump\t// out\n    /* \"#utility.yul\":9351:9646   */\ntag_56:\n    /* \"#utility.yul\":9427:9431   */\n  0x00\n    /* \"#utility.yul\":9573:9602   */\n  tag_168\n    /* \"#utility.yul\":9598:9601   */\n  dup4\n    /* \"#utility.yul\":9592:9596   */\n  dup4\n    /* \"#utility.yul\":9573:9602   */\n  tag_55\n  jump\t// in\ntag_168:\n    /* \"#utility.yul\":9565:9602   */\n  swap2\n  pop\n    /* \"#utility.yul\":9635:9638   */\n  dup3\n    /* \"#utility.yul\":9632:9633   */\n  0x02\n    /* \"#utility.yul\":9628:9639   */\n  mul\n    /* \"#utility.yul\":9622:9626   */\n  dup3\n    /* \"#utility.yul\":9619:9640   */\n  or\n    /* \"#utility.yul\":9611:9640   */\n  swap1\n  pop\n    /* \"#utility.yul\":9351:9646   */\n  swap3\n  swap2\n  pop\n  pop\n  jump\t// out\n    /* \"#utility.yul\":9651:11046   */\ntag_16:\n    /* \"#utility.yul\":9768:9805   */\n  tag_170\n    /* \"#utility.yul\":9801:9804   */\n  dup3\n    /* \"#utility.yul\":9768:9805   */\n  tag_39\n  jump\t// in\ntag_170:\n    /* \"#utility.yul\":9870:9888   */\n  0xffffffffffffffff\n    /* \"#utility.yul\":9862:9868   */\n  dup2\n    /* \"#utility.yul\":9859:9889   */\n  gt\n    /* \"#utility.yul\":9856:9912   */\n  iszero\n  tag_171\n  jumpi\n    /* \"#utility.yul\":9892:9910   */\n  tag_172\n  tag_23\n  jump\t// in\ntag_172:\n    /* \"#utility.yul\":9856:9912   */\ntag_171:\n    /* \"#utility.yul\":9936:9974   */\n  tag_173\n    /* \"#utility.yul\":9968:9972   */\n  dup3\n    /* \"#utility.yul\":9962:9973   */\n  sload\n    /* \"#utility.yul\":9936:9974   */\n  tag_41\n  jump\t// in\ntag_173:\n    /* \"#utility.yul\":10021:10088   */\n  tag_174\n    /* \"#utility.yul\":10081:10087   */\n  dup3\n    /* \"#utility.yul\":10073:10079   */\n  dup3\n    /* \"#utility.yul\":10067:10071   */\n  dup6\n    /* \"#utility.yul\":10021:10088   */\n  tag_53\n  jump\t// in\ntag_174:\n    /* \"#utility.yul\":10115:10116   */\n  0x00\n    /* \"#utility.yul\":10139:10143   */\n  0x20\n    /* \"#utility.yul\":10126:10143   */\n  swap1\n  pop\n    /* \"#utility.yul\":10171:10173   */\n  0x1f\n    /* \"#utility.yul\":10163:10169   */\n  dup4\n    /* \"#utility.yul\":10160:10174   */\n  gt\n    /* \"#utility.yul\":10188:10189   */\n  0x01\n    /* \"#utility.yul\":10183:10801   */\n  dup2\n  eq\n  tag_176\n  jumpi\n    /* \"#utility.yul\":10845:10846   */\n  0x00\n    /* \"#utility.yul\":10862:10868   */\n  dup5\n    /* \"#utility.yul\":10859:10936   */\n  iszero\n  tag_177\n  jumpi\n    /* \"#utility.yul\":10911:10920   */\n  dup3\n    /* \"#utility.yul\":10906:10909   */\n  dup8\n    /* \"#utility.yul\":10902:10921   */\n  add\n    /* \"#utility.yul\":10896:10922   */\n  mload\n    /* \"#utility.yul\":10887:10922   */\n  swap1\n  pop\n    /* \"#utility.yul\":10859:10936   */\ntag_177:\n    /* \"#utility.yul\":10962:11029   */\n  tag_178\n    /* \"#utility.yul\":11022:11028   */\n  dup6\n    /* \"#utility.yul\":11015:11020   */\n  dup3\n    /* \"#utility.yul\":10962:11029   */\n  tag_56\n  jump\t// in\ntag_178:\n    /* \"#utility.yul\":10956:10960   */\n  dup7\n    /* \"#utility.yul\":10949:11030   */\n  sstore\n    /* \"#utility.yul\":10818:11040   */\n  pop\n    /* \"#utility.yul\":10153:11040   */\n  jump(tag_175)\n    /* \"#utility.yul\":10183:10801   */\ntag_176:\n    /* \"#utility.yul\":10235:10239   */\n  0x1f\n    /* \"#utility.yul\":10231:10240   */\n  not\n    /* \"#utility.yul\":10223:10229   */\n  dup5\n    /* \"#utility.yul\":10219:10241   */\n  and\n    /* \"#utility.yul\":10269:10306   */\n  tag_179\n    /* \"#utility.yul\":10301:10305   */\n  dup7\n    /* \"#utility.yul\":10269:10306   */\n  tag_42\n  jump\t// in\ntag_179:\n    /* \"#utility.yul\":10328:10329   */\n  0x00\n    /* \"#utility.yul\":10342:10550   */\ntag_180:\n    /* \"#utility.yul\":10356:10363   */\n  dup3\n    /* \"#utility.yul\":10353:10354   */\n  dup2\n    /* \"#utility.yul\":10350:10364   */\n  lt\n    /* \"#utility.yul\":10342:10550   */\n  iszero\n  tag_182\n  jumpi\n    /* \"#utility.yul\":10435:10444   */\n  dup5\n    /* \"#utility.yul\":10430:10433   */\n  dup10\n    /* \"#utility.yul\":10426:10445   */\n  add\n    /* \"#utility.yul\":10420:10446   */\n  mload\n    /* \"#utility.yul\":10412:10418   */\n  dup3\n    /* \"#utility.yul\":10405:10447   */\n  sstore\n    /* \"#utility.yul\":10486:10487   */\n  0x01\n    /* \"#utility.yul\":10478:10484   */\n  dup3\n    /* \"#utility.yul\":10474:10488   */\n  add\n    /* \"#utility.yul\":10464:10488   */\n  swap2\n  pop\n    /* \"#utility.yul\":10533:10535   */\n  0x20\n    /* \"#utility.yul\":10522:10531   */\n  dup6\n    /* \"#utility.yul\":10518:10536   */\n  add\n    /* \"#utility.yul\":10505:10536   */\n  swap5\n  pop\n    /* \"#utility.yul\":10379:10383   */\n  0x20\n    /* \"#utility.yul\":10376:10377   */\n  dup2\n    /* \"#utility.yul\":10372:10384   */\n  add\n    /* \"#utility.yul\":10367:10384   */\n  swap1\n  pop\n    /* \"#utility.yul\":10342:10550   */\n  jump(tag_180)\ntag_182:\n    /* \"#utility.yul\":10578:10584   */\n  dup7\n    /* \"#utility.yul\":10569:10576   */\n  dup4\n    /* \"#utility.yul\":10566:10585   */\n  lt\n    /* \"#utility.yul\":10563:10742   */\n  iszero\n  tag_183\n  jumpi\n    /* \"#utility.yul\":10636:10645   */\n  dup5\n    /* \"#utility.yul\":10631:10634   */\n  dup10\n    /* \"#utility.yul\":10627:10646   */\n  add\n    /* \"#utility.yul\":10621:10647   */\n  mload\n    /* \"#utility.yul\":10679:10727   */\n  tag_184\n    /* \"#utility.yul\":10721:10725   */\n  0x1f\n    /* \"#utility.yul\":10713:10719   */\n  dup10\n    /* \"#utility.yul\":10709:10726   */\n  and\n    /* \"#utility.yul\":10698:10707   */\n  dup3\n    /* \"#utility.yul\":10679:10727   */\n  tag_55\n  jump\t// in\ntag_184:\n    /* \"#utility.yul\":10671:10677   */\n  dup4\n    /* \"#utility.yul\":10664:10728   */\n  sstore\n    /* \"#utility.yul\":10586:10742   */\n  pop\n    /* \"#utility.yul\":10563:10742   */\ntag_183:\n    /* \"#utility.yul\":10788:10789   */\n  0x01\n    /* \"#utility.yul\":10784:10785   */\n  0x02\n    /* \"#utility.yul\":10776:10782   */\n  dup9\n    /* \"#utility.yul\":10772:10786   */\n  mul\n    /* \"#utility.yul\":10768:10790   */\n  add\n    /* \"#utility.yul\":10762:10766   */\n  dup9\n    /* \"#utility.yul\":10755:10791   */\n  sstore\n    /* \"#utility.yul\":10190:10801   */\n  pop\n  pop\n  pop\n    /* \"#utility.yul\":10153:11040   */\ntag_175:\n  pop\n    /* \"#utility.yul\":9743:11046   */\n  pop\n  pop\n  pop\n    /* \"#utility.yul\":9651:11046   */\n  pop\n  pop\n  jump\t// out\n    /* \"evoting.sol\":230:3678  contract SistemVoting {... */\ntag_17:\n  mload(0x80)\n  codecopy(0x00, dataOffset(sub_0), dataSize(sub_0))\n  0x00\n  assignImmutable(\"0x7880aec93413f117ef14bd4e6d130875ab2c7d7d55a064fac3c2f7bd51516380\")\n  return(0x00, dataSize(sub_0))\nstop\n\nsub_0: assembly {\n        /* \"evoting.sol\":230:3678  contract SistemVoting {... */\n      mstore(0x40, 0x80)\n      callvalue\n      dup1\n      iszero\n      tag_1\n      jumpi\n      revert(0x00, 0x00)\n    tag_1:\n      pop\n      jumpi(tag_2, lt(calldatasize, 0x04))\n      shr(0xe0, calldataload(0x00))\n      dup1\n      0x986c14b2\n      gt\n      tag_12\n      jumpi\n      dup1\n      0x986c14b2\n      eq\n      tag_7\n      jumpi\n      dup1\n      0xdae770ef\n      eq\n      tag_8\n      jumpi\n      dup1\n      0xe5ac3796\n      eq\n      tag_9\n      jumpi\n      dup1\n      0xf782311c\n      eq\n      tag_10\n      jumpi\n      dup1\n      0xfe3b4410\n      eq\n      tag_11\n      jumpi\n      jump(tag_2)\n    tag_12:\n      dup1\n      0x0cf57856\n      eq\n      tag_3\n      jumpi\n      dup1\n      0x66bc84d2\n      eq\n      tag_4\n      jumpi\n      dup1\n      0x79abf651\n      eq\n      tag_5\n      jumpi\n      dup1\n      0x8da5cb5b\n      eq\n      tag_6\n      jumpi\n    tag_2:\n      revert(0x00, 0x00)\n        /* \"evoting.sol\":666:714  mapping(address => bool) public pemilihTerdaftar */\n    tag_3:\n      tag_13\n      0x04\n      dup1\n      calldatasize\n      sub\n      dup2\n      add\n      swap1\n      tag_14\n      swap2\n      swap1\n      tag_15\n      jump\t// in\n    tag_14:\n      tag_16\n      jump\t// in\n    tag_13:\n      mload(0x40)\n      tag_17\n      swap2\n      swap1\n      tag_18\n      jump\t// in\n    tag_17:\n      mload(0x40)\n      dup1\n      swap2\n      sub\n      swap1\n      return\n        /* \"evoting.sol\":3470:3676  function getKandidat(uint _idKandidat) public view returns (Kandidat memory) {... */\n    tag_4:\n      tag_19\n      0x04\n      dup1\n      calldatasize\n      sub\n      dup2\n      add\n      swap1\n      tag_20\n      swap2\n      swap1\n      tag_21\n      jump\t// in\n    tag_20:\n      tag_22\n      jump\t// in\n    tag_19:\n      mload(0x40)\n      tag_23\n      swap2\n      swap1\n      tag_24\n      jump\t// in\n    tag_23:\n      mload(0x40)\n      dup1\n      swap2\n      sub\n      swap1\n      return\n        /* \"evoting.sol\":720:764  mapping(address => bool) public sudahMemilih */\n    tag_5:\n      tag_25\n      0x04\n      dup1\n      calldatasize\n      sub\n      dup2\n      add\n      swap1\n      tag_26\n      swap2\n      swap1\n      tag_15\n      jump\t// in\n    tag_26:\n      tag_27\n      jump\t// in\n    tag_25:\n      mload(0x40)\n      tag_28\n      swap2\n      swap1\n      tag_18\n      jump\t// in\n    tag_28:\n      mload(0x40)\n      dup1\n      swap2\n      sub\n      swap1\n      return\n        /* \"evoting.sol\":492:522  address public immutable owner */\n    tag_6:\n      tag_29\n      tag_30\n      jump\t// in\n    tag_29:\n      mload(0x40)\n      tag_31\n      swap2\n      swap1\n      tag_32\n      jump\t// in\n    tag_31:\n      mload(0x40)\n      dup1\n      swap2\n      sub\n      swap1\n      return\n        /* \"evoting.sol\":870:894  uint public waktuSelesai */\n    tag_7:\n      tag_33\n      tag_34\n      jump\t// in\n    tag_33:\n      mload(0x40)\n      tag_35\n      swap2\n      swap1\n      tag_36\n      jump\t// in\n    tag_35:\n      mload(0x40)\n      dup1\n      swap2\n      sub\n      swap1\n      return\n        /* \"evoting.sol\":842:864  uint public waktuMulai */\n    tag_8:\n      tag_37\n      tag_38\n      jump\t// in\n    tag_37:\n      mload(0x40)\n      tag_39\n      swap2\n      swap1\n      tag_36\n      jump\t// in\n    tag_39:\n      mload(0x40)\n      dup1\n      swap2\n      sub\n      swap1\n      return\n        /* \"evoting.sol\":2650:3232  function berikanSuara(uint _idKandidat) public votingAktif {... */\n    tag_9:\n      tag_40\n      0x04\n      dup1\n      calldatasize\n      sub\n      dup2\n      add\n      swap1\n      tag_41\n      swap2\n      swap1\n      tag_21\n      jump\t// in\n    tag_41:\n      tag_42\n      jump\t// in\n    tag_40:\n      stop\n        /* \"evoting.sol\":2213:2469  function daftarkanPemilih(address _alamatPemilih) public onlyOwner {... */\n    tag_10:\n      tag_43\n      0x04\n      dup1\n      calldatasize\n      sub\n      dup2\n      add\n      swap1\n      tag_44\n      swap2\n      swap1\n      tag_15\n      jump\t// in\n    tag_44:\n      tag_45\n      jump\t// in\n    tag_43:\n      stop\n        /* \"evoting.sol\":590:620  Kandidat[] public kandidatList */\n    tag_11:\n      tag_46\n      0x04\n      dup1\n      calldatasize\n      sub\n      dup2\n      add\n      swap1\n      tag_47\n      swap2\n      swap1\n      tag_21\n      jump\t// in\n    tag_47:\n      tag_48\n      jump\t// in\n    tag_46:\n      mload(0x40)\n      tag_49\n      swap4\n      swap3\n      swap2\n      swap1\n      tag_50\n      jump\t// in\n    tag_49:\n      mload(0x40)\n      dup1\n      swap2\n      sub\n      swap1\n      return\n        /* \"evoting.sol\":666:714  mapping(address => bool) public pemilihTerdaftar */\n    tag_16:\n      mstore(0x20, 0x01)\n      dup1\n      0x00\n      mstore\n      keccak256(0x00, 0x40)\n      0x00\n      swap2\n      pop\n      sload\n      swap1\n      0x0100\n      exp\n      swap1\n      div\n      0xff\n      and\n      dup2\n      jump\t// out\n        /* \"evoting.sol\":3470:3676  function getKandidat(uint _idKandidat) public view returns (Kandidat memory) {... */\n    tag_22:\n        /* \"evoting.sol\":3530:3545  Kandidat memory */\n      tag_51\n      tag_52\n      jump\t// in\n    tag_51:\n        /* \"evoting.sol\":3579:3591  kandidatList */\n      0x00\n        /* \"evoting.sol\":3579:3598  kandidatList.length */\n      dup1\n      sload\n      swap1\n      pop\n        /* \"evoting.sol\":3565:3576  _idKandidat */\n      dup3\n        /* \"evoting.sol\":3565:3598  _idKandidat < kandidatList.length */\n      lt\n        /* \"evoting.sol\":3557:3627  require(_idKandidat < kandidatList.length, \"ID Kandidat tidak valid.\") */\n      tag_54\n      jumpi\n      mload(0x40)\n      0x08c379a000000000000000000000000000000000000000000000000000000000\n      dup2\n      mstore\n      0x04\n      add\n      tag_55\n      swap1\n      tag_56\n      jump\t// in\n    tag_55:\n      mload(0x40)\n      dup1\n      swap2\n      sub\n      swap1\n      revert\n    tag_54:\n        /* \"evoting.sol\":3644:3656  kandidatList */\n      0x00\n        /* \"evoting.sol\":3657:3668  _idKandidat */\n      dup3\n        /* \"evoting.sol\":3644:3669  kandidatList[_idKandidat] */\n      dup2\n      sload\n      dup2\n      lt\n      tag_57\n      jumpi\n      tag_58\n      tag_59\n      jump\t// in\n    tag_58:\n    tag_57:\n      swap1\n      0x00\n      mstore\n      keccak256(0x00, 0x20)\n      swap1\n      0x03\n      mul\n      add\n        /* \"evoting.sol\":3637:3669  return kandidatList[_idKandidat] */\n      mload(0x40)\n      dup1\n      0x60\n      add\n      0x40\n      mstore\n      swap1\n      dup2\n      0x00\n      dup3\n      add\n      sload\n      dup2\n      mstore\n      0x20\n      add\n      0x01\n      dup3\n      add\n      dup1\n      sload\n      tag_61\n      swap1\n      tag_62\n      jump\t// in\n    tag_61:\n      dup1\n      0x1f\n      add\n      0x20\n      dup1\n      swap2\n      div\n      mul\n      0x20\n      add\n      mload(0x40)\n      swap1\n      dup2\n      add\n      0x40\n      mstore\n      dup1\n      swap3\n      swap2\n      swap1\n      dup2\n      dup2\n      mstore\n      0x20\n      add\n      dup3\n      dup1\n      sload\n      tag_63\n      swap1\n      tag_62\n      jump\t// in\n    tag_63:\n      dup1\n      iszero\n      tag_64\n      jumpi\n      dup1\n      0x1f\n      lt\n      tag_65\n      jumpi\n      0x0100\n      dup1\n      dup4\n      sload\n      div\n      mul\n      dup4\n      mstore\n      swap2\n      0x20\n      add\n      swap2\n      jump(tag_64)\n    tag_65:\n      dup3\n      add\n      swap2\n      swap1\n      0x00\n      mstore\n      keccak256(0x00, 0x20)\n      swap1\n    tag_66:\n      dup2\n      sload\n      dup2\n      mstore\n      swap1\n      0x01\n      add\n      swap1\n      0x20\n      add\n      dup1\n      dup4\n      gt\n      tag_66\n      jumpi\n      dup3\n      swap1\n      sub\n      0x1f\n      and\n      dup3\n      add\n      swap2\n    tag_64:\n      pop\n      pop\n      pop\n      pop\n      pop\n      dup2\n      mstore\n      0x20\n      add\n      0x02\n      dup3\n      add\n      sload\n      dup2\n      mstore\n      pop\n      pop\n      swap1\n      pop\n        /* \"evoting.sol\":3470:3676  function getKandidat(uint _idKandidat) public view returns (Kandidat memory) {... */\n      swap2\n      swap1\n      pop\n      jump\t// out\n        /* \"evoting.sol\":720:764  mapping(address => bool) public sudahMemilih */\n    tag_27:\n      mstore(0x20, 0x02)\n      dup1\n      0x00\n      mstore\n      keccak256(0x00, 0x40)\n      0x00\n      swap2\n      pop\n      sload\n      swap1\n      0x0100\n      exp\n      swap1\n      div\n      0xff\n      and\n      dup2\n      jump\t// out\n        /* \"evoting.sol\":492:522  address public immutable owner */\n    tag_30:\n      immutable(\"0x7880aec93413f117ef14bd4e6d130875ab2c7d7d55a064fac3c2f7bd51516380\")\n      dup2\n      jump\t// out\n        /* \"evoting.sol\":870:894  uint public waktuSelesai */\n    tag_34:\n      sload(0x04)\n      dup2\n      jump\t// out\n        /* \"evoting.sol\":842:864  uint public waktuMulai */\n    tag_38:\n      sload(0x03)\n      dup2\n      jump\t// out\n        /* \"evoting.sol\":2650:3232  function berikanSuara(uint _idKandidat) public votingAktif {... */\n    tag_42:\n        /* \"evoting.sol\":1265:1275  waktuMulai */\n      sload(0x03)\n        /* \"evoting.sol\":1246:1261  block.timestamp */\n      timestamp\n        /* \"evoting.sol\":1246:1275  block.timestamp >= waktuMulai */\n      lt\n      iszero\n        /* \"evoting.sol\":1238:1301  require(block.timestamp >= waktuMulai, \"Voting belum dimulai.\") */\n      tag_68\n      jumpi\n      mload(0x40)\n      0x08c379a000000000000000000000000000000000000000000000000000000000\n      dup2\n      mstore\n      0x04\n      add\n      tag_69\n      swap1\n      tag_70\n      jump\t// in\n    tag_69:\n      mload(0x40)\n      dup1\n      swap2\n      sub\n      swap1\n      revert\n    tag_68:\n        /* \"evoting.sol\":1337:1349  waktuSelesai */\n      sload(0x04)\n        /* \"evoting.sol\":1319:1334  block.timestamp */\n      timestamp\n        /* \"evoting.sol\":1319:1349  block.timestamp < waktuSelesai */\n      lt\n        /* \"evoting.sol\":1311:1384  require(block.timestamp < waktuSelesai, \"Periode voting sudah berakhir.\") */\n      tag_71\n      jumpi\n      mload(0x40)\n      0x08c379a000000000000000000000000000000000000000000000000000000000\n      dup2\n      mstore\n      0x04\n      add\n      tag_72\n      swap1\n      tag_73\n      jump\t// in\n    tag_72:\n      mload(0x40)\n      dup1\n      swap2\n      sub\n      swap1\n      revert\n    tag_71:\n        /* \"evoting.sol\":2778:2794  pemilihTerdaftar */\n      0x01\n        /* \"evoting.sol\":2778:2806  pemilihTerdaftar[msg.sender] */\n      0x00\n        /* \"evoting.sol\":2795:2805  msg.sender */\n      caller\n        /* \"evoting.sol\":2778:2806  pemilihTerdaftar[msg.sender] */\n      0xffffffffffffffffffffffffffffffffffffffff\n      and\n      0xffffffffffffffffffffffffffffffffffffffff\n      and\n      dup2\n      mstore\n      0x20\n      add\n      swap1\n      dup2\n      mstore\n      0x20\n      add\n      0x00\n      keccak256\n      0x00\n      swap1\n      sload\n      swap1\n      0x0100\n      exp\n      swap1\n      div\n      0xff\n      and\n        /* \"evoting.sol\":2770:2848  require(pemilihTerdaftar[msg.sender], \"Anda tidak terdaftar sebagai pemilih.\") */\n      tag_75\n      jumpi\n      mload(0x40)\n      0x08c379a000000000000000000000000000000000000000000000000000000000\n      dup2\n      mstore\n      0x04\n      add\n      tag_76\n      swap1\n      tag_77\n      jump\t// in\n    tag_76:\n      mload(0x40)\n      dup1\n      swap2\n      sub\n      swap1\n      revert\n    tag_75:\n        /* \"evoting.sol\":2867:2879  sudahMemilih */\n      0x02\n        /* \"evoting.sol\":2867:2891  sudahMemilih[msg.sender] */\n      0x00\n        /* \"evoting.sol\":2880:2890  msg.sender */\n      caller\n        /* \"evoting.sol\":2867:2891  sudahMemilih[msg.sender] */\n      0xffffffffffffffffffffffffffffffffffffffff\n      and\n      0xffffffffffffffffffffffffffffffffffffffff\n      and\n      dup2\n      mstore\n      0x20\n      add\n      swap1\n      dup2\n      mstore\n      0x20\n      add\n      0x00\n      keccak256\n      0x00\n      swap1\n      sload\n      swap1\n      0x0100\n      exp\n      swap1\n      div\n      0xff\n      and\n        /* \"evoting.sol\":2866:2891  !sudahMemilih[msg.sender] */\n      iszero\n        /* \"evoting.sol\":2858:2935  require(!sudahMemilih[msg.sender], \"Anda sudah memberikan suara sebelumnya.\") */\n      tag_78\n      jumpi\n      mload(0x40)\n      0x08c379a000000000000000000000000000000000000000000000000000000000\n      dup2\n      mstore\n      0x04\n      add\n      tag_79\n      swap1\n      tag_80\n      jump\t// in\n    tag_79:\n      mload(0x40)\n      dup1\n      swap2\n      sub\n      swap1\n      revert\n    tag_78:\n        /* \"evoting.sol\":2967:2979  kandidatList */\n      0x00\n        /* \"evoting.sol\":2967:2986  kandidatList.length */\n      dup1\n      sload\n      swap1\n      pop\n        /* \"evoting.sol\":2953:2964  _idKandidat */\n      dup2\n        /* \"evoting.sol\":2953:2986  _idKandidat < kandidatList.length */\n      lt\n        /* \"evoting.sol\":2945:3015  require(_idKandidat < kandidatList.length, \"ID Kandidat tidak valid.\") */\n      tag_81\n      jumpi\n      mload(0x40)\n      0x08c379a000000000000000000000000000000000000000000000000000000000\n      dup2\n      mstore\n      0x04\n      add\n      tag_82\n      swap1\n      tag_56\n      jump\t// in\n    tag_82:\n      mload(0x40)\n      dup1\n      swap2\n      sub\n      swap1\n      revert\n    tag_81:\n        /* \"evoting.sol\":3090:3094  true */\n      0x01\n        /* \"evoting.sol\":3063:3075  sudahMemilih */\n      0x02\n        /* \"evoting.sol\":3063:3087  sudahMemilih[msg.sender] */\n      0x00\n        /* \"evoting.sol\":3076:3086  msg.sender */\n      caller\n        /* \"evoting.sol\":3063:3087  sudahMemilih[msg.sender] */\n      0xffffffffffffffffffffffffffffffffffffffff\n      and\n      0xffffffffffffffffffffffffffffffffffffffff\n      and\n      dup2\n      mstore\n      0x20\n      add\n      swap1\n      dup2\n      mstore\n      0x20\n      add\n      0x00\n      keccak256\n      0x00\n        /* \"evoting.sol\":3063:3094  sudahMemilih[msg.sender] = true */\n      0x0100\n      exp\n      dup2\n      sload\n      dup2\n      0xff\n      mul\n      not\n      and\n      swap1\n      dup4\n      iszero\n      iszero\n      mul\n      or\n      swap1\n      sstore\n      pop\n        /* \"evoting.sol\":3104:3116  kandidatList */\n      0x00\n        /* \"evoting.sol\":3117:3128  _idKandidat */\n      dup2\n        /* \"evoting.sol\":3104:3129  kandidatList[_idKandidat] */\n      dup2\n      sload\n      dup2\n      lt\n      tag_83\n      jumpi\n      tag_84\n      tag_59\n      jump\t// in\n    tag_84:\n    tag_83:\n      swap1\n      0x00\n      mstore\n      keccak256(0x00, 0x20)\n      swap1\n      0x03\n      mul\n      add\n        /* \"evoting.sol\":3104:3141  kandidatList[_idKandidat].jumlahSuara */\n      0x02\n      add\n      0x00\n        /* \"evoting.sol\":3104:3143  kandidatList[_idKandidat].jumlahSuara++ */\n      dup2\n      sload\n      dup1\n      swap3\n      swap2\n      swap1\n      tag_86\n      swap1\n      tag_87\n      jump\t// in\n    tag_86:\n      swap2\n      swap1\n      pop\n      sstore\n      pop\n        /* \"evoting.sol\":3201:3211  msg.sender */\n      caller\n        /* \"evoting.sol\":3186:3225  SuaraDiberikan(msg.sender, _idKandidat) */\n      0xffffffffffffffffffffffffffffffffffffffff\n      and\n      0x0414a0afd59cb51603a2a29fd5f77a2f9863fd52831d972d5c210bb0dbf8dc8f\n        /* \"evoting.sol\":3213:3224  _idKandidat */\n      dup3\n        /* \"evoting.sol\":3186:3225  SuaraDiberikan(msg.sender, _idKandidat) */\n      mload(0x40)\n      tag_88\n      swap2\n      swap1\n      tag_36\n      jump\t// in\n    tag_88:\n      mload(0x40)\n      dup1\n      swap2\n      sub\n      swap1\n      log2\n        /* \"evoting.sol\":2650:3232  function berikanSuara(uint _idKandidat) public votingAktif {... */\n      pop\n      jump\t// out\n        /* \"evoting.sol\":2213:2469  function daftarkanPemilih(address _alamatPemilih) public onlyOwner {... */\n    tag_45:\n        /* \"evoting.sol\":1125:1130  owner */\n      immutable(\"0x7880aec93413f117ef14bd4e6d130875ab2c7d7d55a064fac3c2f7bd51516380\")\n        /* \"evoting.sol\":1111:1130  msg.sender == owner */\n      0xffffffffffffffffffffffffffffffffffffffff\n      and\n        /* \"evoting.sol\":1111:1121  msg.sender */\n      caller\n        /* \"evoting.sol\":1111:1130  msg.sender == owner */\n      0xffffffffffffffffffffffffffffffffffffffff\n      and\n      eq\n        /* \"evoting.sol\":1103:1181  require(msg.sender == owner, \"Hanya pemilik kontrak yang bisa melakukan ini.\") */\n      tag_90\n      jumpi\n      mload(0x40)\n      0x08c379a000000000000000000000000000000000000000000000000000000000\n      dup2\n      mstore\n      0x04\n      add\n      tag_91\n      swap1\n      tag_92\n      jump\t// in\n    tag_91:\n      mload(0x40)\n      dup1\n      swap2\n      sub\n      swap1\n      revert\n    tag_90:\n        /* \"evoting.sol\":2299:2315  pemilihTerdaftar */\n      0x01\n        /* \"evoting.sol\":2299:2331  pemilihTerdaftar[_alamatPemilih] */\n      0x00\n        /* \"evoting.sol\":2316:2330  _alamatPemilih */\n      dup3\n        /* \"evoting.sol\":2299:2331  pemilihTerdaftar[_alamatPemilih] */\n      0xffffffffffffffffffffffffffffffffffffffff\n      and\n      0xffffffffffffffffffffffffffffffffffffffff\n      and\n      dup2\n      mstore\n      0x20\n      add\n      swap1\n      dup2\n      mstore\n      0x20\n      add\n      0x00\n      keccak256\n      0x00\n      swap1\n      sload\n      swap1\n      0x0100\n      exp\n      swap1\n      div\n      0xff\n      and\n        /* \"evoting.sol\":2298:2331  !pemilihTerdaftar[_alamatPemilih] */\n      iszero\n        /* \"evoting.sol\":2290:2364  require(!pemilihTerdaftar[_alamatPemilih], \"Pemilih ini sudah terdaftar.\") */\n      tag_94\n      jumpi\n      mload(0x40)\n      0x08c379a000000000000000000000000000000000000000000000000000000000\n      dup2\n      mstore\n      0x04\n      add\n      tag_95\n      swap1\n      tag_96\n      jump\t// in\n    tag_95:\n      mload(0x40)\n      dup1\n      swap2\n      sub\n      swap1\n      revert\n    tag_94:\n        /* \"evoting.sol\":2409:2413  true */\n      0x01\n        /* \"evoting.sol\":2374:2390  pemilihTerdaftar */\n      dup1\n        /* \"evoting.sol\":2374:2406  pemilihTerdaftar[_alamatPemilih] */\n      0x00\n        /* \"evoting.sol\":2391:2405  _alamatPemilih */\n      dup4\n        /* \"evoting.sol\":2374:2406  pemilihTerdaftar[_alamatPemilih] */\n      0xffffffffffffffffffffffffffffffffffffffff\n      and\n      0xffffffffffffffffffffffffffffffffffffffff\n      and\n      dup2\n      mstore\n      0x20\n      add\n      swap1\n      dup2\n      mstore\n      0x20\n      add\n      0x00\n      keccak256\n      0x00\n        /* \"evoting.sol\":2374:2413  pemilihTerdaftar[_alamatPemilih] = true */\n      0x0100\n      exp\n      dup2\n      sload\n      dup2\n      0xff\n      mul\n      not\n      and\n      swap1\n      dup4\n      iszero\n      iszero\n      mul\n      or\n      swap1\n      sstore\n      pop\n        /* \"evoting.sol\":2447:2461  _alamatPemilih */\n      dup1\n        /* \"evoting.sol\":2428:2462  PemilihDidaftarkan(_alamatPemilih) */\n      0xffffffffffffffffffffffffffffffffffffffff\n      and\n      0xdc557d1883a1466b8ab9ae10851c2179fbd2ea03afd713d53455222bfe4d498d\n      mload(0x40)\n      mload(0x40)\n      dup1\n      swap2\n      sub\n      swap1\n      log2\n        /* \"evoting.sol\":2213:2469  function daftarkanPemilih(address _alamatPemilih) public onlyOwner {... */\n      pop\n      jump\t// out\n        /* \"evoting.sol\":590:620  Kandidat[] public kandidatList */\n    tag_48:\n      0x00\n      dup2\n      dup2\n      sload\n      dup2\n      lt\n      tag_97\n      jumpi\n      0x00\n      dup1\n      revert\n    tag_97:\n      swap1\n      0x00\n      mstore\n      keccak256(0x00, 0x20)\n      swap1\n      0x03\n      mul\n      add\n      0x00\n      swap2\n      pop\n      swap1\n      pop\n      dup1\n      0x00\n      add\n      sload\n      swap1\n      dup1\n      0x01\n      add\n      dup1\n      sload\n      tag_99\n      swap1\n      tag_62\n      jump\t// in\n    tag_99:\n      dup1\n      0x1f\n      add\n      0x20\n      dup1\n      swap2\n      div\n      mul\n      0x20\n      add\n      mload(0x40)\n      swap1\n      dup2\n      add\n      0x40\n      mstore\n      dup1\n      swap3\n      swap2\n      swap1\n      dup2\n      dup2\n      mstore\n      0x20\n      add\n      dup3\n      dup1\n      sload\n      tag_100\n      swap1\n      tag_62\n      jump\t// in\n    tag_100:\n      dup1\n      iszero\n      tag_101\n      jumpi\n      dup1\n      0x1f\n      lt\n      tag_102\n      jumpi\n      0x0100\n      dup1\n      dup4\n      sload\n      div\n      mul\n      dup4\n      mstore\n      swap2\n      0x20\n      add\n      swap2\n      jump(tag_101)\n    tag_102:\n      dup3\n      add\n      swap2\n      swap1\n      0x00\n      mstore\n      keccak256(0x00, 0x20)\n      swap1\n    tag_103:\n      dup2\n      sload\n      dup2\n      mstore\n      swap1\n      0x01\n      add\n      swap1\n      0x20\n      add\n      dup1\n      dup4\n      gt\n      tag_103\n      jumpi\n      dup3\n      swap1\n      sub\n      0x1f\n      and\n      dup3\n      add\n      swap2\n    tag_101:\n      pop\n      pop\n      pop\n      pop\n      pop\n      swap1\n      dup1\n      0x02\n      add\n      sload\n      swap1\n      pop\n      dup4\n      jump\t// out\n    tag_52:\n      mload(0x40)\n      dup1\n      0x60\n      add\n      0x40\n      mstore\n      dup1\n      0x00\n      dup2\n      mstore\n      0x20\n      add\n      0x60\n      dup2\n      mstore\n      0x20\n      add\n      0x00\n      dup2\n      mstore\n      pop\n      swap1\n      jump\t// out\n        /* \"#utility.yul\":88:205   */\n    tag_105:\n        /* \"#utility.yul\":197:198   */\n      0x00\n        /* \"#utility.yul\":194:195   */\n      0x00\n        /* \"#utility.yul\":187:199   */\n      revert\n        /* \"#utility.yul\":334:460   */\n    tag_107:\n        /* \"#utility.yul\":371:378   */\n      0x00\n        /* \"#utility.yul\":411:453   */\n      0xffffffffffffffffffffffffffffffffffffffff\n        /* \"#utility.yul\":404:409   */\n      dup3\n        /* \"#utility.yul\":400:454   */\n      and\n        /* \"#utility.yul\":389:454   */\n      swap1\n      pop\n        /* \"#utility.yul\":334:460   */\n      swap2\n      swap1\n      pop\n      jump\t// out\n        /* \"#utility.yul\":466:562   */\n    tag_108:\n        /* \"#utility.yul\":503:510   */\n      0x00\n        /* \"#utility.yul\":532:556   */\n      tag_149\n        /* \"#utility.yul\":550:555   */\n      dup3\n        /* \"#utility.yul\":532:556   */\n      tag_107\n      jump\t// in\n    tag_149:\n        /* \"#utility.yul\":521:556   */\n      swap1\n      pop\n        /* \"#utility.yul\":466:562   */\n      swap2\n      swap1\n      pop\n      jump\t// out\n        /* \"#utility.yul\":568:690   */\n    tag_109:\n        /* \"#utility.yul\":641:665   */\n      tag_151\n        /* \"#utility.yul\":659:664   */\n      dup2\n        /* \"#utility.yul\":641:665   */\n      tag_108\n      jump\t// in\n    tag_151:\n        /* \"#utility.yul\":634:639   */\n      dup2\n        /* \"#utility.yul\":631:666   */\n      eq\n        /* \"#utility.yul\":621:684   */\n      tag_152\n      jumpi\n        /* \"#utility.yul\":680:681   */\n      0x00\n        /* \"#utility.yul\":677:678   */\n      0x00\n        /* \"#utility.yul\":670:682   */\n      revert\n        /* \"#utility.yul\":621:684   */\n    tag_152:\n        /* \"#utility.yul\":568:690   */\n      pop\n      jump\t// out\n        /* \"#utility.yul\":696:835   */\n    tag_110:\n        /* \"#utility.yul\":742:747   */\n      0x00\n        /* \"#utility.yul\":780:786   */\n      dup2\n        /* \"#utility.yul\":767:787   */\n      calldataload\n        /* \"#utility.yul\":758:787   */\n      swap1\n      pop\n        /* \"#utility.yul\":796:829   */\n      tag_154\n        /* \"#utility.yul\":823:828   */\n      dup2\n        /* \"#utility.yul\":796:829   */\n      tag_109\n      jump\t// in\n    tag_154:\n        /* \"#utility.yul\":696:835   */\n      swap3\n      swap2\n      pop\n      pop\n      jump\t// out\n        /* \"#utility.yul\":841:1170   */\n    tag_15:\n        /* \"#utility.yul\":900:906   */\n      0x00\n        /* \"#utility.yul\":949:951   */\n      0x20\n        /* \"#utility.yul\":937:946   */\n      dup3\n        /* \"#utility.yul\":928:935   */\n      dup5\n        /* \"#utility.yul\":924:947   */\n      sub\n        /* \"#utility.yul\":920:952   */\n      slt\n        /* \"#utility.yul\":917:1036   */\n      iszero\n      tag_156\n      jumpi\n        /* \"#utility.yul\":955:1034   */\n      tag_157\n      tag_105\n      jump\t// in\n    tag_157:\n        /* \"#utility.yul\":917:1036   */\n    tag_156:\n        /* \"#utility.yul\":1075:1076   */\n      0x00\n        /* \"#utility.yul\":1100:1153   */\n      tag_158\n        /* \"#utility.yul\":1145:1152   */\n      dup5\n        /* \"#utility.yul\":1136:1142   */\n      dup3\n        /* \"#utility.yul\":1125:1134   */\n      dup6\n        /* \"#utility.yul\":1121:1143   */\n      add\n        /* \"#utility.yul\":1100:1153   */\n      tag_110\n      jump\t// in\n    tag_158:\n        /* \"#utility.yul\":1090:1153   */\n      swap2\n      pop\n        /* \"#utility.yul\":1046:1163   */\n      pop\n        /* \"#utility.yul\":841:1170   */\n      swap3\n      swap2\n      pop\n      pop\n      jump\t// out\n        /* \"#utility.yul\":1176:1266   */\n    tag_111:\n        /* \"#utility.yul\":1210:1217   */\n      0x00\n        /* \"#utility.yul\":1253:1258   */\n      dup2\n        /* \"#utility.yul\":1246:1259   */\n      iszero\n        /* \"#utility.yul\":1239:1260   */\n      iszero\n        /* \"#utility.yul\":1228:1260   */\n      swap1\n      pop\n        /* \"#utility.yul\":1176:1266   */\n      swap2\n      swap1\n      pop\n      jump\t// out\n        /* \"#utility.yul\":1272:1381   */\n    tag_112:\n        /* \"#utility.yul\":1353:1374   */\n      tag_161\n        /* \"#utility.yul\":1368:1373   */\n      dup2\n        /* \"#utility.yul\":1353:1374   */\n      tag_111\n      jump\t// in\n    tag_161:\n        /* \"#utility.yul\":1348:1351   */\n      dup3\n        /* \"#utility.yul\":1341:1375   */\n      mstore\n        /* \"#utility.yul\":1272:1381   */\n      pop\n      pop\n      jump\t// out\n        /* \"#utility.yul\":1387:1597   */\n    tag_18:\n        /* \"#utility.yul\":1474:1478   */\n      0x00\n        /* \"#utility.yul\":1512:1514   */\n      0x20\n        /* \"#utility.yul\":1501:1510   */\n      dup3\n        /* \"#utility.yul\":1497:1515   */\n      add\n        /* \"#utility.yul\":1489:1515   */\n      swap1\n      pop\n        /* \"#utility.yul\":1525:1590   */\n      tag_163\n        /* \"#utility.yul\":1587:1588   */\n      0x00\n        /* \"#utility.yul\":1576:1585   */\n      dup4\n        /* \"#utility.yul\":1572:1589   */\n      add\n        /* \"#utility.yul\":1563:1569   */\n      dup5\n        /* \"#utility.yul\":1525:1590   */\n      tag_112\n      jump\t// in\n    tag_163:\n        /* \"#utility.yul\":1387:1597   */\n      swap3\n      swap2\n      pop\n      pop\n      jump\t// out\n        /* \"#utility.yul\":1603:1680   */\n    tag_113:\n        /* \"#utility.yul\":1640:1647   */\n      0x00\n        /* \"#utility.yul\":1669:1674   */\n      dup2\n        /* \"#utility.yul\":1658:1674   */\n      swap1\n      pop\n        /* \"#utility.yul\":1603:1680   */\n      swap2\n      swap1\n      pop\n      jump\t// out\n        /* \"#utility.yul\":1686:1808   */\n    tag_114:\n        /* \"#utility.yul\":1759:1783   */\n      tag_166\n        /* \"#utility.yul\":1777:1782   */\n      dup2\n        /* \"#utility.yul\":1759:1783   */\n      tag_113\n      jump\t// in\n    tag_166:\n        /* \"#utility.yul\":1752:1757   */\n      dup2\n        /* \"#utility.yul\":1749:1784   */\n      eq\n        /* \"#utility.yul\":1739:1802   */\n      tag_167\n      jumpi\n        /* \"#utility.yul\":1798:1799   */\n      0x00\n        /* \"#utility.yul\":1795:1796   */\n      0x00\n        /* \"#utility.yul\":1788:1800   */\n      revert\n        /* \"#utility.yul\":1739:1802   */\n    tag_167:\n        /* \"#utility.yul\":1686:1808   */\n      pop\n      jump\t// out\n        /* \"#utility.yul\":1814:1953   */\n    tag_115:\n        /* \"#utility.yul\":1860:1865   */\n      0x00\n        /* \"#utility.yul\":1898:1904   */\n      dup2\n        /* \"#utility.yul\":1885:1905   */\n      calldataload\n        /* \"#utility.yul\":1876:1905   */\n      swap1\n      pop\n        /* \"#utility.yul\":1914:1947   */\n      tag_169\n        /* \"#utility.yul\":1941:1946   */\n      dup2\n        /* \"#utility.yul\":1914:1947   */\n      tag_114\n      jump\t// in\n    tag_169:\n        /* \"#utility.yul\":1814:1953   */\n      swap3\n      swap2\n      pop\n      pop\n      jump\t// out\n        /* \"#utility.yul\":1959:2288   */\n    tag_21:\n        /* \"#utility.yul\":2018:2024   */\n      0x00\n        /* \"#utility.yul\":2067:2069   */\n      0x20\n        /* \"#utility.yul\":2055:2064   */\n      dup3\n        /* \"#utility.yul\":2046:2053   */\n      dup5\n        /* \"#utility.yul\":2042:2065   */\n      sub\n        /* \"#utility.yul\":2038:2070   */\n      slt\n        /* \"#utility.yul\":2035:2154   */\n      iszero\n      tag_171\n      jumpi\n        /* \"#utility.yul\":2073:2152   */\n      tag_172\n      tag_105\n      jump\t// in\n    tag_172:\n        /* \"#utility.yul\":2035:2154   */\n    tag_171:\n        /* \"#utility.yul\":2193:2194   */\n      0x00\n        /* \"#utility.yul\":2218:2271   */\n      tag_173\n        /* \"#utility.yul\":2263:2270   */\n      dup5\n        /* \"#utility.yul\":2254:2260   */\n      dup3\n        /* \"#utility.yul\":2243:2252   */\n      dup6\n        /* \"#utility.yul\":2239:2261   */\n      add\n        /* \"#utility.yul\":2218:2271   */\n      tag_115\n      jump\t// in\n    tag_173:\n        /* \"#utility.yul\":2208:2271   */\n      swap2\n      pop\n        /* \"#utility.yul\":2164:2281   */\n      pop\n        /* \"#utility.yul\":1959:2288   */\n      swap3\n      swap2\n      pop\n      pop\n      jump\t// out\n        /* \"#utility.yul\":2294:2402   */\n    tag_116:\n        /* \"#utility.yul\":2371:2395   */\n      tag_175\n        /* \"#utility.yul\":2389:2394   */\n      dup2\n        /* \"#utility.yul\":2371:2395   */\n      tag_113\n      jump\t// in\n    tag_175:\n        /* \"#utility.yul\":2366:2369   */\n      dup3\n        /* \"#utility.yul\":2359:2396   */\n      mstore\n        /* \"#utility.yul\":2294:2402   */\n      pop\n      pop\n      jump\t// out\n        /* \"#utility.yul\":2408:2507   */\n    tag_117:\n        /* \"#utility.yul\":2460:2466   */\n      0x00\n        /* \"#utility.yul\":2494:2499   */\n      dup2\n        /* \"#utility.yul\":2488:2500   */\n      mload\n        /* \"#utility.yul\":2478:2500   */\n      swap1\n      pop\n        /* \"#utility.yul\":2408:2507   */\n      swap2\n      swap1\n      pop\n      jump\t// out\n        /* \"#utility.yul\":2513:2672   */\n    tag_118:\n        /* \"#utility.yul\":2587:2598   */\n      0x00\n        /* \"#utility.yul\":2621:2627   */\n      dup3\n        /* \"#utility.yul\":2616:2619   */\n      dup3\n        /* \"#utility.yul\":2609:2628   */\n      mstore\n        /* \"#utility.yul\":2661:2665   */\n      0x20\n        /* \"#utility.yul\":2656:2659   */\n      dup3\n        /* \"#utility.yul\":2652:2666   */\n      add\n        /* \"#utility.yul\":2637:2666   */\n      swap1\n      pop\n        /* \"#utility.yul\":2513:2672   */\n      swap3\n      swap2\n      pop\n      pop\n      jump\t// out\n        /* \"#utility.yul\":2678:2817   */\n    tag_119:\n        /* \"#utility.yul\":2767:2773   */\n      dup3\n        /* \"#utility.yul\":2762:2765   */\n      dup2\n        /* \"#utility.yul\":2757:2760   */\n      dup4\n        /* \"#utility.yul\":2751:2774   */\n      mcopy\n        /* \"#utility.yul\":2808:2809   */\n      0x00\n        /* \"#utility.yul\":2799:2805   */\n      dup4\n        /* \"#utility.yul\":2794:2797   */\n      dup4\n        /* \"#utility.yul\":2790:2806   */\n      add\n        /* \"#utility.yul\":2783:2810   */\n      mstore\n        /* \"#utility.yul\":2678:2817   */\n      pop\n      pop\n      pop\n      jump\t// out\n        /* \"#utility.yul\":2823:2925   */\n    tag_120:\n        /* \"#utility.yul\":2864:2870   */\n      0x00\n        /* \"#utility.yul\":2915:2917   */\n      0x1f\n        /* \"#utility.yul\":2911:2918   */\n      not\n        /* \"#utility.yul\":2906:2908   */\n      0x1f\n        /* \"#utility.yul\":2899:2904   */\n      dup4\n        /* \"#utility.yul\":2895:2909   */\n      add\n        /* \"#utility.yul\":2891:2919   */\n      and\n        /* \"#utility.yul\":2881:2919   */\n      swap1\n      pop\n        /* \"#utility.yul\":2823:2925   */\n      swap2\n      swap1\n      pop\n      jump\t// out\n        /* \"#utility.yul\":2931:3288   */\n    tag_121:\n        /* \"#utility.yul\":3009:3012   */\n      0x00\n        /* \"#utility.yul\":3037:3076   */\n      tag_181\n        /* \"#utility.yul\":3070:3075   */\n      dup3\n        /* \"#utility.yul\":3037:3076   */\n      tag_117\n      jump\t// in\n    tag_181:\n        /* \"#utility.yul\":3092:3153   */\n      tag_182\n        /* \"#utility.yul\":3146:3152   */\n      dup2\n        /* \"#utility.yul\":3141:3144   */\n      dup6\n        /* \"#utility.yul\":3092:3153   */\n      tag_118\n      jump\t// in\n    tag_182:\n        /* \"#utility.yul\":3085:3153   */\n      swap4\n      pop\n        /* \"#utility.yul\":3162:3227   */\n      tag_183\n        /* \"#utility.yul\":3220:3226   */\n      dup2\n        /* \"#utility.yul\":3215:3218   */\n      dup6\n        /* \"#utility.yul\":3208:3212   */\n      0x20\n        /* \"#utility.yul\":3201:3206   */\n      dup7\n        /* \"#utility.yul\":3197:3213   */\n      add\n        /* \"#utility.yul\":3162:3227   */\n      tag_119\n      jump\t// in\n    tag_183:\n        /* \"#utility.yul\":3252:3281   */\n      tag_184\n        /* \"#utility.yul\":3274:3280   */\n      dup2\n        /* \"#utility.yul\":3252:3281   */\n      tag_120\n      jump\t// in\n    tag_184:\n        /* \"#utility.yul\":3247:3250   */\n      dup5\n        /* \"#utility.yul\":3243:3282   */\n      add\n        /* \"#utility.yul\":3236:3282   */\n      swap2\n      pop\n        /* \"#utility.yul\":3013:3288   */\n      pop\n        /* \"#utility.yul\":2931:3288   */\n      swap3\n      swap2\n      pop\n      pop\n      jump\t// out\n        /* \"#utility.yul\":3362:4143   */\n    tag_122:\n        /* \"#utility.yul\":3477:3480   */\n      0x00\n        /* \"#utility.yul\":3513:3517   */\n      0x60\n        /* \"#utility.yul\":3508:3511   */\n      dup4\n        /* \"#utility.yul\":3504:3518   */\n      add\n        /* \"#utility.yul\":3598:3602   */\n      0x00\n        /* \"#utility.yul\":3591:3596   */\n      dup4\n        /* \"#utility.yul\":3587:3603   */\n      add\n        /* \"#utility.yul\":3581:3604   */\n      mload\n        /* \"#utility.yul\":3617:3680   */\n      tag_186\n        /* \"#utility.yul\":3674:3678   */\n      0x00\n        /* \"#utility.yul\":3669:3672   */\n      dup7\n        /* \"#utility.yul\":3665:3679   */\n      add\n        /* \"#utility.yul\":3651:3663   */\n      dup3\n        /* \"#utility.yul\":3617:3680   */\n      tag_116\n      jump\t// in\n    tag_186:\n        /* \"#utility.yul\":3528:3690   */\n      pop\n        /* \"#utility.yul\":3772:3776   */\n      0x20\n        /* \"#utility.yul\":3765:3770   */\n      dup4\n        /* \"#utility.yul\":3761:3777   */\n      add\n        /* \"#utility.yul\":3755:3778   */\n      mload\n        /* \"#utility.yul\":3825:3828   */\n      dup5\n        /* \"#utility.yul\":3819:3823   */\n      dup3\n        /* \"#utility.yul\":3815:3829   */\n      sub\n        /* \"#utility.yul\":3808:3812   */\n      0x20\n        /* \"#utility.yul\":3803:3806   */\n      dup7\n        /* \"#utility.yul\":3799:3813   */\n      add\n        /* \"#utility.yul\":3792:3830   */\n      mstore\n        /* \"#utility.yul\":3851:3924   */\n      tag_187\n        /* \"#utility.yul\":3919:3923   */\n      dup3\n        /* \"#utility.yul\":3905:3917   */\n      dup3\n        /* \"#utility.yul\":3851:3924   */\n      tag_121\n      jump\t// in\n    tag_187:\n        /* \"#utility.yul\":3843:3924   */\n      swap2\n      pop\n        /* \"#utility.yul\":3700:3935   */\n      pop\n        /* \"#utility.yul\":4024:4028   */\n      0x40\n        /* \"#utility.yul\":4017:4022   */\n      dup4\n        /* \"#utility.yul\":4013:4029   */\n      add\n        /* \"#utility.yul\":4007:4030   */\n      mload\n        /* \"#utility.yul\":4043:4106   */\n      tag_188\n        /* \"#utility.yul\":4100:4104   */\n      0x40\n        /* \"#utility.yul\":4095:4098   */\n      dup7\n        /* \"#utility.yul\":4091:4105   */\n      add\n        /* \"#utility.yul\":4077:4089   */\n      dup3\n        /* \"#utility.yul\":4043:4106   */\n      tag_116\n      jump\t// in\n    tag_188:\n        /* \"#utility.yul\":3945:4116   */\n      pop\n        /* \"#utility.yul\":4133:4137   */\n      dup1\n        /* \"#utility.yul\":4126:4137   */\n      swap2\n      pop\n        /* \"#utility.yul\":3482:4143   */\n      pop\n        /* \"#utility.yul\":3362:4143   */\n      swap3\n      swap2\n      pop\n      pop\n      jump\t// out\n        /* \"#utility.yul\":4149:4514   */\n    tag_24:\n        /* \"#utility.yul\":4288:4292   */\n      0x00\n        /* \"#utility.yul\":4326:4328   */\n      0x20\n        /* \"#utility.yul\":4315:4324   */\n      dup3\n        /* \"#utility.yul\":4311:4329   */\n      add\n        /* \"#utility.yul\":4303:4329   */\n      swap1\n      pop\n        /* \"#utility.yul\":4375:4384   */\n      dup2\n        /* \"#utility.yul\":4369:4373   */\n      dup2\n        /* \"#utility.yul\":4365:4385   */\n      sub\n        /* \"#utility.yul\":4361:4362   */\n      0x00\n        /* \"#utility.yul\":4350:4359   */\n      dup4\n        /* \"#utility.yul\":4346:4363   */\n      add\n        /* \"#utility.yul\":4339:4386   */\n      mstore\n        /* \"#utility.yul\":4403:4507   */\n      tag_190\n        /* \"#utility.yul\":4502:4506   */\n      dup2\n        /* \"#utility.yul\":4493:4499   */\n      dup5\n        /* \"#utility.yul\":4403:4507   */\n      tag_122\n      jump\t// in\n    tag_190:\n        /* \"#utility.yul\":4395:4507   */\n      swap1\n      pop\n        /* \"#utility.yul\":4149:4514   */\n      swap3\n      swap2\n      pop\n      pop\n      jump\t// out\n        /* \"#utility.yul\":4520:4638   */\n    tag_123:\n        /* \"#utility.yul\":4607:4631   */\n      tag_192\n        /* \"#utility.yul\":4625:4630   */\n      dup2\n        /* \"#utility.yul\":4607:4631   */\n      tag_108\n      jump\t// in\n    tag_192:\n        /* \"#utility.yul\":4602:4605   */\n      dup3\n        /* \"#utility.yul\":4595:4632   */\n      mstore\n        /* \"#utility.yul\":4520:4638   */\n      pop\n      pop\n      jump\t// out\n        /* \"#utility.yul\":4644:4866   */\n    tag_32:\n        /* \"#utility.yul\":4737:4741   */\n      0x00\n        /* \"#utility.yul\":4775:4777   */\n      0x20\n        /* \"#utility.yul\":4764:4773   */\n      dup3\n        /* \"#utility.yul\":4760:4778   */\n      add\n        /* \"#utility.yul\":4752:4778   */\n      swap1\n      pop\n        /* \"#utility.yul\":4788:4859   */\n      tag_194\n        /* \"#utility.yul\":4856:4857   */\n      0x00\n        /* \"#utility.yul\":4845:4854   */\n      dup4\n        /* \"#utility.yul\":4841:4858   */\n      add\n        /* \"#utility.yul\":4832:4838   */\n      dup5\n        /* \"#utility.yul\":4788:4859   */\n      tag_123\n      jump\t// in\n    tag_194:\n        /* \"#utility.yul\":4644:4866   */\n      swap3\n      swap2\n      pop\n      pop\n      jump\t// out\n        /* \"#utility.yul\":4872:4990   */\n    tag_124:\n        /* \"#utility.yul\":4959:4983   */\n      tag_196\n        /* \"#utility.yul\":4977:4982   */\n      dup2\n        /* \"#utility.yul\":4959:4983   */\n      tag_113\n      jump\t// in\n    tag_196:\n        /* \"#utility.yul\":4954:4957   */\n      dup3\n        /* \"#utility.yul\":4947:4984   */\n      mstore\n        /* \"#utility.yul\":4872:4990   */\n      pop\n      pop\n      jump\t// out\n        /* \"#utility.yul\":4996:5218   */\n    tag_36:\n        /* \"#utility.yul\":5089:5093   */\n      0x00\n        /* \"#utility.yul\":5127:5129   */\n      0x20\n        /* \"#utility.yul\":5116:5125   */\n      dup3\n        /* \"#utility.yul\":5112:5130   */\n      add\n        /* \"#utility.yul\":5104:5130   */\n      swap1\n      pop\n        /* \"#utility.yul\":5140:5211   */\n      tag_198\n        /* \"#utility.yul\":5208:5209   */\n      0x00\n        /* \"#utility.yul\":5197:5206   */\n      dup4\n        /* \"#utility.yul\":5193:5210   */\n      add\n        /* \"#utility.yul\":5184:5190   */\n      dup5\n        /* \"#utility.yul\":5140:5211   */\n      tag_124\n      jump\t// in\n    tag_198:\n        /* \"#utility.yul\":4996:5218   */\n      swap3\n      swap2\n      pop\n      pop\n      jump\t// out\n        /* \"#utility.yul\":5224:5393   */\n    tag_125:\n        /* \"#utility.yul\":5308:5319   */\n      0x00\n        /* \"#utility.yul\":5342:5348   */\n      dup3\n        /* \"#utility.yul\":5337:5340   */\n      dup3\n        /* \"#utility.yul\":5330:5349   */\n      mstore\n        /* \"#utility.yul\":5382:5386   */\n      0x20\n        /* \"#utility.yul\":5377:5380   */\n      dup3\n        /* \"#utility.yul\":5373:5387   */\n      add\n        /* \"#utility.yul\":5358:5387   */\n      swap1\n      pop\n        /* \"#utility.yul\":5224:5393   */\n      swap3\n      swap2\n      pop\n      pop\n      jump\t// out\n        /* \"#utility.yul\":5399:5776   */\n    tag_126:\n        /* \"#utility.yul\":5487:5490   */\n      0x00\n        /* \"#utility.yul\":5515:5554   */\n      tag_201\n        /* \"#utility.yul\":5548:5553   */\n      dup3\n        /* \"#utility.yul\":5515:5554   */\n      tag_117\n      jump\t// in\n    tag_201:\n        /* \"#utility.yul\":5570:5641   */\n      tag_202\n        /* \"#utility.yul\":5634:5640   */\n      dup2\n        /* \"#utility.yul\":5629:5632   */\n      dup6\n        /* \"#utility.yul\":5570:5641   */\n      tag_125\n      jump\t// in\n    tag_202:\n        /* \"#utility.yul\":5563:5641   */\n      swap4\n      pop\n        /* \"#utility.yul\":5650:5715   */\n      tag_203\n        /* \"#utility.yul\":5708:5714   */\n      dup2\n        /* \"#utility.yul\":5703:5706   */\n      dup6\n        /* \"#utility.yul\":5696:5700   */\n      0x20\n        /* \"#utility.yul\":5689:5694   */\n      dup7\n        /* \"#utility.yul\":5685:5701   */\n      add\n        /* \"#utility.yul\":5650:5715   */\n      tag_119\n      jump\t// in\n    tag_203:\n        /* \"#utility.yul\":5740:5769   */\n      tag_204\n        /* \"#utility.yul\":5762:5768   */\n      dup2\n        /* \"#utility.yul\":5740:5769   */\n      tag_120\n      jump\t// in\n    tag_204:\n        /* \"#utility.yul\":5735:5738   */\n      dup5\n        /* \"#utility.yul\":5731:5770   */\n      add\n        /* \"#utility.yul\":5724:5770   */\n      swap2\n      pop\n        /* \"#utility.yul\":5491:5776   */\n      pop\n        /* \"#utility.yul\":5399:5776   */\n      swap3\n      swap2\n      pop\n      pop\n      jump\t// out\n        /* \"#utility.yul\":5782:6315   */\n    tag_50:\n        /* \"#utility.yul\":5951:5955   */\n      0x00\n        /* \"#utility.yul\":5989:5991   */\n      0x60\n        /* \"#utility.yul\":5978:5987   */\n      dup3\n        /* \"#utility.yul\":5974:5992   */\n      add\n        /* \"#utility.yul\":5966:5992   */\n      swap1\n      pop\n        /* \"#utility.yul\":6002:6073   */\n      tag_206\n        /* \"#utility.yul\":6070:6071   */\n      0x00\n        /* \"#utility.yul\":6059:6068   */\n      dup4\n        /* \"#utility.yul\":6055:6072   */\n      add\n        /* \"#utility.yul\":6046:6052   */\n      dup7\n        /* \"#utility.yul\":6002:6073   */\n      tag_124\n      jump\t// in\n    tag_206:\n        /* \"#utility.yul\":6120:6129   */\n      dup2\n        /* \"#utility.yul\":6114:6118   */\n      dup2\n        /* \"#utility.yul\":6110:6130   */\n      sub\n        /* \"#utility.yul\":6105:6107   */\n      0x20\n        /* \"#utility.yul\":6094:6103   */\n      dup4\n        /* \"#utility.yul\":6090:6108   */\n      add\n        /* \"#utility.yul\":6083:6131   */\n      mstore\n        /* \"#utility.yul\":6148:6226   */\n      tag_207\n        /* \"#utility.yul\":6221:6225   */\n      dup2\n        /* \"#utility.yul\":6212:6218   */\n      dup6\n        /* \"#utility.yul\":6148:6226   */\n      tag_126\n      jump\t// in\n    tag_207:\n        /* \"#utility.yul\":6140:6226   */\n      swap1\n      pop\n        /* \"#utility.yul\":6236:6308   */\n      tag_208\n        /* \"#utility.yul\":6304:6306   */\n      0x40\n        /* \"#utility.yul\":6293:6302   */\n      dup4\n        /* \"#utility.yul\":6289:6307   */\n      add\n        /* \"#utility.yul\":6280:6286   */\n      dup5\n        /* \"#utility.yul\":6236:6308   */\n      tag_124\n      jump\t// in\n    tag_208:\n        /* \"#utility.yul\":5782:6315   */\n      swap5\n      swap4\n      pop\n      pop\n      pop\n      pop\n      jump\t// out\n        /* \"#utility.yul\":6321:6495   */\n    tag_127:\n        /* \"#utility.yul\":6461:6487   */\n      0x4944204b616e646964617420746964616b2076616c69642e0000000000000000\n        /* \"#utility.yul\":6457:6458   */\n      0x00\n        /* \"#utility.yul\":6449:6455   */\n      dup3\n        /* \"#utility.yul\":6445:6459   */\n      add\n        /* \"#utility.yul\":6438:6488   */\n      mstore\n        /* \"#utility.yul\":6321:6495   */\n      pop\n      jump\t// out\n        /* \"#utility.yul\":6501:6867   */\n    tag_128:\n        /* \"#utility.yul\":6643:6646   */\n      0x00\n        /* \"#utility.yul\":6664:6731   */\n      tag_211\n        /* \"#utility.yul\":6728:6730   */\n      0x18\n        /* \"#utility.yul\":6723:6726   */\n      dup4\n        /* \"#utility.yul\":6664:6731   */\n      tag_125\n      jump\t// in\n    tag_211:\n        /* \"#utility.yul\":6657:6731   */\n      swap2\n      pop\n        /* \"#utility.yul\":6740:6833   */\n      tag_212\n        /* \"#utility.yul\":6829:6832   */\n      dup3\n        /* \"#utility.yul\":6740:6833   */\n      tag_127\n      jump\t// in\n    tag_212:\n        /* \"#utility.yul\":6858:6860   */\n      0x20\n        /* \"#utility.yul\":6853:6856   */\n      dup3\n        /* \"#utility.yul\":6849:6861   */\n      add\n        /* \"#utility.yul\":6842:6861   */\n      swap1\n      pop\n        /* \"#utility.yul\":6501:6867   */\n      swap2\n      swap1\n      pop\n      jump\t// out\n        /* \"#utility.yul\":6873:7292   */\n    tag_56:\n        /* \"#utility.yul\":7039:7043   */\n      0x00\n        /* \"#utility.yul\":7077:7079   */\n      0x20\n        /* \"#utility.yul\":7066:7075   */\n      dup3\n        /* \"#utility.yul\":7062:7080   */\n      add\n        /* \"#utility.yul\":7054:7080   */\n      swap1\n      pop\n        /* \"#utility.yul\":7126:7135   */\n      dup2\n        /* \"#utility.yul\":7120:7124   */\n      dup2\n        /* \"#utility.yul\":7116:7136   */\n      sub\n        /* \"#utility.yul\":7112:7113   */\n      0x00\n        /* \"#utility.yul\":7101:7110   */\n      dup4\n        /* \"#utility.yul\":7097:7114   */\n      add\n        /* \"#utility.yul\":7090:7137   */\n      mstore\n        /* \"#utility.yul\":7154:7285   */\n      tag_214\n        /* \"#utility.yul\":7280:7284   */\n      dup2\n        /* \"#utility.yul\":7154:7285   */\n      tag_128\n      jump\t// in\n    tag_214:\n        /* \"#utility.yul\":7146:7285   */\n      swap1\n      pop\n        /* \"#utility.yul\":6873:7292   */\n      swap2\n      swap1\n      pop\n      jump\t// out\n        /* \"#utility.yul\":7298:7478   */\n    tag_59:\n        /* \"#utility.yul\":7346:7423   */\n      0x4e487b7100000000000000000000000000000000000000000000000000000000\n        /* \"#utility.yul\":7343:7344   */\n      0x00\n        /* \"#utility.yul\":7336:7424   */\n      mstore\n        /* \"#utility.yul\":7443:7447   */\n      0x32\n        /* \"#utility.yul\":7440:7441   */\n      0x04\n        /* \"#utility.yul\":7433:7448   */\n      mstore\n        /* \"#utility.yul\":7467:7471   */\n      0x24\n        /* \"#utility.yul\":7464:7465   */\n      0x00\n        /* \"#utility.yul\":7457:7472   */\n      revert\n        /* \"#utility.yul\":7484:7664   */\n    tag_129:\n        /* \"#utility.yul\":7532:7609   */\n      0x4e487b7100000000000000000000000000000000000000000000000000000000\n        /* \"#utility.yul\":7529:7530   */\n      0x00\n        /* \"#utility.yul\":7522:7610   */\n      mstore\n        /* \"#utility.yul\":7629:7633   */\n      0x22\n        /* \"#utility.yul\":7626:7627   */\n      0x04\n        /* \"#utility.yul\":7619:7634   */\n      mstore\n        /* \"#utility.yul\":7653:7657   */\n      0x24\n        /* \"#utility.yul\":7650:7651   */\n      0x00\n        /* \"#utility.yul\":7643:7658   */\n      revert\n        /* \"#utility.yul\":7670:7990   */\n    tag_62:\n        /* \"#utility.yul\":7714:7720   */\n      0x00\n        /* \"#utility.yul\":7751:7752   */\n      0x02\n        /* \"#utility.yul\":7745:7749   */\n      dup3\n        /* \"#utility.yul\":7741:7753   */\n      div\n        /* \"#utility.yul\":7731:7753   */\n      swap1\n      pop\n        /* \"#utility.yul\":7798:7799   */\n      0x01\n        /* \"#utility.yul\":7792:7796   */\n      dup3\n        /* \"#utility.yul\":7788:7800   */\n      and\n        /* \"#utility.yul\":7819:7837   */\n      dup1\n        /* \"#utility.yul\":7809:7890   */\n      tag_218\n      jumpi\n        /* \"#utility.yul\":7875:7879   */\n      0x7f\n        /* \"#utility.yul\":7867:7873   */\n      dup3\n        /* \"#utility.yul\":7863:7880   */\n      and\n        /* \"#utility.yul\":7853:7880   */\n      swap2\n      pop\n        /* \"#utility.yul\":7809:7890   */\n    tag_218:\n        /* \"#utility.yul\":7937:7939   */\n      0x20\n        /* \"#utility.yul\":7929:7935   */\n      dup3\n        /* \"#utility.yul\":7926:7940   */\n      lt\n        /* \"#utility.yul\":7906:7924   */\n      dup2\n        /* \"#utility.yul\":7903:7941   */\n      sub\n        /* \"#utility.yul\":7900:7984   */\n      tag_219\n      jumpi\n        /* \"#utility.yul\":7956:7974   */\n      tag_220\n      tag_129\n      jump\t// in\n    tag_220:\n        /* \"#utility.yul\":7900:7984   */\n    tag_219:\n        /* \"#utility.yul\":7721:7990   */\n      pop\n        /* \"#utility.yul\":7670:7990   */\n      swap2\n      swap1\n      pop\n      jump\t// out\n        /* \"#utility.yul\":7996:8167   */\n    tag_130:\n        /* \"#utility.yul\":8136:8159   */\n      0x566f74696e672062656c756d2064696d756c61692e0000000000000000000000\n        /* \"#utility.yul\":8132:8133   */\n      0x00\n        /* \"#utility.yul\":8124:8130   */\n      dup3\n        /* \"#utility.yul\":8120:8134   */\n      add\n        /* \"#utility.yul\":8113:8160   */\n      mstore\n        /* \"#utility.yul\":7996:8167   */\n      pop\n      jump\t// out\n        /* \"#utility.yul\":8173:8539   */\n    tag_131:\n        /* \"#utility.yul\":8315:8318   */\n      0x00\n        /* \"#utility.yul\":8336:8403   */\n      tag_223\n        /* \"#utility.yul\":8400:8402   */\n      0x15\n        /* \"#utility.yul\":8395:8398   */\n      dup4\n        /* \"#utility.yul\":8336:8403   */\n      tag_125\n      jump\t// in\n    tag_223:\n        /* \"#utility.yul\":8329:8403   */\n      swap2\n      pop\n        /* \"#utility.yul\":8412:8505   */\n      tag_224\n        /* \"#utility.yul\":8501:8504   */\n      dup3\n        /* \"#utility.yul\":8412:8505   */\n      tag_130\n      jump\t// in\n    tag_224:\n        /* \"#utility.yul\":8530:8532   */\n      0x20\n        /* \"#utility.yul\":8525:8528   */\n      dup3\n        /* \"#utility.yul\":8521:8533   */\n      add\n        /* \"#utility.yul\":8514:8533   */\n      swap1\n      pop\n        /* \"#utility.yul\":8173:8539   */\n      swap2\n      swap1\n      pop\n      jump\t// out\n        /* \"#utility.yul\":8545:8964   */\n    tag_70:\n        /* \"#utility.yul\":8711:8715   */\n      0x00\n        /* \"#utility.yul\":8749:8751   */\n      0x20\n        /* \"#utility.yul\":8738:8747   */\n      dup3\n        /* \"#utility.yul\":8734:8752   */\n      add\n        /* \"#utility.yul\":8726:8752   */\n      swap1\n      pop\n        /* \"#utility.yul\":8798:8807   */\n      dup2\n        /* \"#utility.yul\":8792:8796   */\n      dup2\n        /* \"#utility.yul\":8788:8808   */\n      sub\n        /* \"#utility.yul\":8784:8785   */\n      0x00\n        /* \"#utility.yul\":8773:8782   */\n      dup4\n        /* \"#utility.yul\":8769:8786   */\n      add\n        /* \"#utility.yul\":8762:8809   */\n      mstore\n        /* \"#utility.yul\":8826:8957   */\n      tag_226\n        /* \"#utility.yul\":8952:8956   */\n      dup2\n        /* \"#utility.yul\":8826:8957   */\n      tag_131\n      jump\t// in\n    tag_226:\n        /* \"#utility.yul\":8818:8957   */\n      swap1\n      pop\n        /* \"#utility.yul\":8545:8964   */\n      swap2\n      swap1\n      pop\n      jump\t// out\n        /* \"#utility.yul\":8970:9150   */\n    tag_132:\n        /* \"#utility.yul\":9110:9142   */\n      0x506572696f646520766f74696e6720737564616820626572616b6869722e0000\n        /* \"#utility.yul\":9106:9107   */\n      0x00\n        /* \"#utility.yul\":9098:9104   */\n      dup3\n        /* \"#utility.yul\":9094:9108   */\n      add\n        /* \"#utility.yul\":9087:9143   */\n      mstore\n        /* \"#utility.yul\":8970:9150   */\n      pop\n      jump\t// out\n        /* \"#utility.yul\":9156:9522   */\n    tag_133:\n        /* \"#utility.yul\":9298:9301   */\n      0x00\n        /* \"#utility.yul\":9319:9386   */\n      tag_229\n        /* \"#utility.yul\":9383:9385   */\n      0x1e\n        /* \"#utility.yul\":9378:9381   */\n      dup4\n        /* \"#utility.yul\":9319:9386   */\n      tag_125\n      jump\t// in\n    tag_229:\n        /* \"#utility.yul\":9312:9386   */\n      swap2\n      pop\n        /* \"#utility.yul\":9395:9488   */\n      tag_230\n        /* \"#utility.yul\":9484:9487   */\n      dup3\n        /* \"#utility.yul\":9395:9488   */\n      tag_132\n      jump\t// in\n    tag_230:\n        /* \"#utility.yul\":9513:9515   */\n      0x20\n        /* \"#utility.yul\":9508:9511   */\n      dup3\n        /* \"#utility.yul\":9504:9516   */\n      add\n        /* \"#utility.yul\":9497:9516   */\n      swap1\n      pop\n        /* \"#utility.yul\":9156:9522   */\n      swap2\n      swap1\n      pop\n      jump\t// out\n        /* \"#utility.yul\":9528:9947   */\n    tag_73:\n        /* \"#utility.yul\":9694:9698   */\n      0x00\n        /* \"#utility.yul\":9732:9734   */\n      0x20\n        /* \"#utility.yul\":9721:9730   */\n      dup3\n        /* \"#utility.yul\":9717:9735   */\n      add\n        /* \"#utility.yul\":9709:9735   */\n      swap1\n      pop\n        /* \"#utility.yul\":9781:9790   */\n      dup2\n        /* \"#utility.yul\":9775:9779   */\n      dup2\n        /* \"#utility.yul\":9771:9791   */\n      sub\n        /* \"#utility.yul\":9767:9768   */\n      0x00\n        /* \"#utility.yul\":9756:9765   */\n      dup4\n        /* \"#utility.yul\":9752:9769   */\n      add\n        /* \"#utility.yul\":9745:9792   */\n      mstore\n        /* \"#utility.yul\":9809:9940   */\n      tag_232\n        /* \"#utility.yul\":9935:9939   */\n      dup2\n        /* \"#utility.yul\":9809:9940   */\n      tag_133\n      jump\t// in\n    tag_232:\n        /* \"#utility.yul\":9801:9940   */\n      swap1\n      pop\n        /* \"#utility.yul\":9528:9947   */\n      swap2\n      swap1\n      pop\n      jump\t// out\n        /* \"#utility.yul\":9953:10177   */\n    tag_134:\n        /* \"#utility.yul\":10093:10127   */\n      0x416e646120746964616b2074657264616674617220736562616761692070656d\n        /* \"#utility.yul\":10089:10090   */\n      0x00\n        /* \"#utility.yul\":10081:10087   */\n      dup3\n        /* \"#utility.yul\":10077:10091   */\n      add\n        /* \"#utility.yul\":10070:10128   */\n      mstore\n        /* \"#utility.yul\":10162:10169   */\n      0x696c69682e000000000000000000000000000000000000000000000000000000\n        /* \"#utility.yul\":10157:10159   */\n      0x20\n        /* \"#utility.yul\":10149:10155   */\n      dup3\n        /* \"#utility.yul\":10145:10160   */\n      add\n        /* \"#utility.yul\":10138:10170   */\n      mstore\n        /* \"#utility.yul\":9953:10177   */\n      pop\n      jump\t// out\n        /* \"#utility.yul\":10183:10549   */\n    tag_135:\n        /* \"#utility.yul\":10325:10328   */\n      0x00\n        /* \"#utility.yul\":10346:10413   */\n      tag_235\n        /* \"#utility.yul\":10410:10412   */\n      0x25\n        /* \"#utility.yul\":10405:10408   */\n      dup4\n        /* \"#utility.yul\":10346:10413   */\n      tag_125\n      jump\t// in\n    tag_235:\n        /* \"#utility.yul\":10339:10413   */\n      swap2\n      pop\n        /* \"#utility.yul\":10422:10515   */\n      tag_236\n        /* \"#utility.yul\":10511:10514   */\n      dup3\n        /* \"#utility.yul\":10422:10515   */\n      tag_134\n      jump\t// in\n    tag_236:\n        /* \"#utility.yul\":10540:10542   */\n      0x40\n        /* \"#utility.yul\":10535:10538   */\n      dup3\n        /* \"#utility.yul\":10531:10543   */\n      add\n        /* \"#utility.yul\":10524:10543   */\n      swap1\n      pop\n        /* \"#utility.yul\":10183:10549   */\n      swap2\n      swap1\n      pop\n      jump\t// out\n        /* \"#utility.yul\":10555:10974   */\n    tag_77:\n        /* \"#utility.yul\":10721:10725   */\n      0x00\n        /* \"#utility.yul\":10759:10761   */\n      0x20\n        /* \"#utility.yul\":10748:10757   */\n      dup3\n        /* \"#utility.yul\":10744:10762   */\n      add\n        /* \"#utility.yul\":10736:10762   */\n      swap1\n      pop\n        /* \"#utility.yul\":10808:10817   */\n      dup2\n        /* \"#utility.yul\":10802:10806   */\n      dup2\n        /* \"#utility.yul\":10798:10818   */\n      sub\n        /* \"#utility.yul\":10794:10795   */\n      0x00\n        /* \"#utility.yul\":10783:10792   */\n      dup4\n        /* \"#utility.yul\":10779:10796   */\n      add\n        /* \"#utility.yul\":10772:10819   */\n      mstore\n        /* \"#utility.yul\":10836:10967   */\n      tag_238\n        /* \"#utility.yul\":10962:10966   */\n      dup2\n        /* \"#utility.yul\":10836:10967   */\n      tag_135\n      jump\t// in\n    tag_238:\n        /* \"#utility.yul\":10828:10967   */\n      swap1\n      pop\n        /* \"#utility.yul\":10555:10974   */\n      swap2\n      swap1\n      pop\n      jump\t// out\n        /* \"#utility.yul\":10980:11206   */\n    tag_136:\n        /* \"#utility.yul\":11120:11154   */\n      0x416e6461207375646168206d656d626572696b616e2073756172612073656265\n        /* \"#utility.yul\":11116:11117   */\n      0x00\n        /* \"#utility.yul\":11108:11114   */\n      dup3\n        /* \"#utility.yul\":11104:11118   */\n      add\n        /* \"#utility.yul\":11097:11155   */\n      mstore\n        /* \"#utility.yul\":11189:11198   */\n      0x6c756d6e79612e00000000000000000000000000000000000000000000000000\n        /* \"#utility.yul\":11184:11186   */\n      0x20\n        /* \"#utility.yul\":11176:11182   */\n      dup3\n        /* \"#utility.yul\":11172:11187   */\n      add\n        /* \"#utility.yul\":11165:11199   */\n      mstore\n        /* \"#utility.yul\":10980:11206   */\n      pop\n      jump\t// out\n        /* \"#utility.yul\":11212:11578   */\n    tag_137:\n        /* \"#utility.yul\":11354:11357   */\n      0x00\n        /* \"#utility.yul\":11375:11442   */\n      tag_241\n        /* \"#utility.yul\":11439:11441   */\n      0x27\n        /* \"#utility.yul\":11434:11437   */\n      dup4\n        /* \"#utility.yul\":11375:11442   */\n      tag_125\n      jump\t// in\n    tag_241:\n        /* \"#utility.yul\":11368:11442   */\n      swap2\n      pop\n        /* \"#utility.yul\":11451:11544   */\n      tag_242\n        /* \"#utility.yul\":11540:11543   */\n      dup3\n        /* \"#utility.yul\":11451:11544   */\n      tag_136\n      jump\t// in\n    tag_242:\n        /* \"#utility.yul\":11569:11571   */\n      0x40\n        /* \"#utility.yul\":11564:11567   */\n      dup3\n        /* \"#utility.yul\":11560:11572   */\n      add\n        /* \"#utility.yul\":11553:11572   */\n      swap1\n      pop\n        /* \"#utility.yul\":11212:11578   */\n      swap2\n      swap1\n      pop\n      jump\t// out\n        /* \"#utility.yul\":11584:12003   */\n    tag_80:\n        /* \"#utility.yul\":11750:11754   */\n      0x00\n        /* \"#utility.yul\":11788:11790   */\n      0x20\n        /* \"#utility.yul\":11777:11786   */\n      dup3\n        /* \"#utility.yul\":11773:11791   */\n      add\n        /* \"#utility.yul\":11765:11791   */\n      swap1\n      pop\n        /* \"#utility.yul\":11837:11846   */\n      dup2\n        /* \"#utility.yul\":11831:11835   */\n      dup2\n        /* \"#utility.yul\":11827:11847   */\n      sub\n        /* \"#utility.yul\":11823:11824   */\n      0x00\n        /* \"#utility.yul\":11812:11821   */\n      dup4\n        /* \"#utility.yul\":11808:11825   */\n      add\n        /* \"#utility.yul\":11801:11848   */\n      mstore\n        /* \"#utility.yul\":11865:11996   */\n      tag_244\n        /* \"#utility.yul\":11991:11995   */\n      dup2\n        /* \"#utility.yul\":11865:11996   */\n      tag_137\n      jump\t// in\n    tag_244:\n        /* \"#utility.yul\":11857:11996   */\n      swap1\n      pop\n        /* \"#utility.yul\":11584:12003   */\n      swap2\n      swap1\n      pop\n      jump\t// out\n        /* \"#utility.yul\":12009:12189   */\n    tag_138:\n        /* \"#utility.yul\":12057:12134   */\n      0x4e487b7100000000000000000000000000000000000000000000000000000000\n        /* \"#utility.yul\":12054:12055   */\n      0x00\n        /* \"#utility.yul\":12047:12135   */\n      mstore\n        /* \"#utility.yul\":12154:12158   */\n      0x11\n        /* \"#utility.yul\":12151:12152   */\n      0x04\n        /* \"#utility.yul\":12144:12159   */\n      mstore\n        /* \"#utility.yul\":12178:12182   */\n      0x24\n        /* \"#utility.yul\":12175:12176   */\n      0x00\n        /* \"#utility.yul\":12168:12183   */\n      revert\n        /* \"#utility.yul\":12195:12428   */\n    tag_87:\n        /* \"#utility.yul\":12234:12237   */\n      0x00\n        /* \"#utility.yul\":12257:12281   */\n      tag_247\n        /* \"#utility.yul\":12275:12280   */\n      dup3\n        /* \"#utility.yul\":12257:12281   */\n      tag_113\n      jump\t// in\n    tag_247:\n        /* \"#utility.yul\":12248:12281   */\n      swap2\n      pop\n        /* \"#utility.yul\":12303:12369   */\n      0xffffffffffffffffffffffffffffffffffffffffffffffffffffffffffffffff\n        /* \"#utility.yul\":12296:12301   */\n      dup3\n        /* \"#utility.yul\":12293:12370   */\n      sub\n        /* \"#utility.yul\":12290:12393   */\n      tag_248\n      jumpi\n        /* \"#utility.yul\":12373:12391   */\n      tag_249\n      tag_138\n      jump\t// in\n    tag_249:\n        /* \"#utility.yul\":12290:12393   */\n    tag_248:\n        /* \"#utility.yul\":12420:12421   */\n      0x01\n        /* \"#utility.yul\":12413:12418   */\n      dup3\n        /* \"#utility.yul\":12409:12422   */\n      add\n        /* \"#utility.yul\":12402:12422   */\n      swap1\n      pop\n        /* \"#utility.yul\":12195:12428   */\n      swap2\n      swap1\n      pop\n      jump\t// out\n        /* \"#utility.yul\":12434:12667   */\n    tag_139:\n        /* \"#utility.yul\":12574:12608   */\n      0x48616e79612070656d696c696b206b6f6e7472616b2079616e67206269736120\n        /* \"#utility.yul\":12570:12571   */\n      0x00\n        /* \"#utility.yul\":12562:12568   */\n      dup3\n        /* \"#utility.yul\":12558:12572   */\n      add\n        /* \"#utility.yul\":12551:12609   */\n      mstore\n        /* \"#utility.yul\":12643:12659   */\n      0x6d656c616b756b616e20696e692e000000000000000000000000000000000000\n        /* \"#utility.yul\":12638:12640   */\n      0x20\n        /* \"#utility.yul\":12630:12636   */\n      dup3\n        /* \"#utility.yul\":12626:12641   */\n      add\n        /* \"#utility.yul\":12619:12660   */\n      mstore\n        /* \"#utility.yul\":12434:12667   */\n      pop\n      jump\t// out\n        /* \"#utility.yul\":12673:13039   */\n    tag_140:\n        /* \"#utility.yul\":12815:12818   */\n      0x00\n        /* \"#utility.yul\":12836:12903   */\n      tag_252\n        /* \"#utility.yul\":12900:12902   */\n      0x2e\n        /* \"#utility.yul\":12895:12898   */\n      dup4\n        /* \"#utility.yul\":12836:12903   */\n      tag_125\n      jump\t// in\n    tag_252:\n        /* \"#utility.yul\":12829:12903   */\n      swap2\n      pop\n        /* \"#utility.yul\":12912:13005   */\n      tag_253\n        /* \"#utility.yul\":13001:13004   */\n      dup3\n        /* \"#utility.yul\":12912:13005   */\n      tag_139\n      jump\t// in\n    tag_253:\n        /* \"#utility.yul\":13030:13032   */\n      0x40\n        /* \"#utility.yul\":13025:13028   */\n      dup3\n        /* \"#utility.yul\":13021:13033   */\n      add\n        /* \"#utility.yul\":13014:13033   */\n      swap1\n      pop\n        /* \"#utility.yul\":12673:13039   */\n      swap2\n      swap1\n      pop\n      jump\t// out\n        /* \"#utility.yul\":13045:13464   */\n    tag_92:\n        /* \"#utility.yul\":13211:13215   */\n      0x00\n        /* \"#utility.yul\":13249:13251   */\n      0x20\n        /* \"#utility.yul\":13238:13247   */\n      dup3\n        /* \"#utility.yul\":13234:13252   */\n      add\n        /* \"#utility.yul\":13226:13252   */\n      swap1\n      pop\n        /* \"#utility.yul\":13298:13307   */\n      dup2\n        /* \"#utility.yul\":13292:13296   */\n      dup2\n        /* \"#utility.yul\":13288:13308   */\n      sub\n        /* \"#utility.yul\":13284:13285   */\n      0x00\n        /* \"#utility.yul\":13273:13282   */\n      dup4\n        /* \"#utility.yul\":13269:13286   */\n      add\n        /* \"#utility.yul\":13262:13309   */\n      mstore\n        /* \"#utility.yul\":13326:13457   */\n      tag_255\n        /* \"#utility.yul\":13452:13456   */\n      dup2\n        /* \"#utility.yul\":13326:13457   */\n      tag_140\n      jump\t// in\n    tag_255:\n        /* \"#utility.yul\":13318:13457   */\n      swap1\n      pop\n        /* \"#utility.yul\":13045:13464   */\n      swap2\n      swap1\n      pop\n      jump\t// out\n        /* \"#utility.yul\":13470:13648   */\n    tag_141:\n        /* \"#utility.yul\":13610:13640   */\n      0x50656d696c696820696e69207375646168207465726461667461722e00000000\n        /* \"#utility.yul\":13606:13607   */\n      0x00\n        /* \"#utility.yul\":13598:13604   */\n      dup3\n        /* \"#utility.yul\":13594:13608   */\n      add\n        /* \"#utility.yul\":13587:13641   */\n      mstore\n        /* \"#utility.yul\":13470:13648   */\n      pop\n      jump\t// out\n        /* \"#utility.yul\":13654:14020   */\n    tag_142:\n        /* \"#utility.yul\":13796:13799   */\n      0x00\n        /* \"#utility.yul\":13817:13884   */\n      tag_258\n        /* \"#utility.yul\":13881:13883   */\n      0x1c\n        /* \"#utility.yul\":13876:13879   */\n      dup4\n        /* \"#utility.yul\":13817:13884   */\n      tag_125\n      jump\t// in\n    tag_258:\n        /* \"#utility.yul\":13810:13884   */\n      swap2\n      pop\n        /* \"#utility.yul\":13893:13986   */\n      tag_259\n        /* \"#utility.yul\":13982:13985   */\n      dup3\n        /* \"#utility.yul\":13893:13986   */\n      tag_141\n      jump\t// in\n    tag_259:\n        /* \"#utility.yul\":14011:14013   */\n      0x20\n        /* \"#utility.yul\":14006:14009   */\n      dup3\n        /* \"#utility.yul\":14002:14014   */\n      add\n        /* \"#utility.yul\":13995:14014   */\n      swap1\n      pop\n        /* \"#utility.yul\":13654:14020   */\n      swap2\n      swap1\n      pop\n      jump\t// out\n        /* \"#utility.yul\":14026:14445   */\n    tag_96:\n        /* \"#utility.yul\":14192:14196   */\n      0x00\n        /* \"#utility.yul\":14230:14232   */\n      0x20\n        /* \"#utility.yul\":14219:14228   */\n      dup3\n        /* \"#utility.yul\":14215:14233   */\n      add\n        /* \"#utility.yul\":14207:14233   */\n      swap1\n      pop\n        /* \"#utility.yul\":14279:14288   */\n      dup2\n        /* \"#utility.yul\":14273:14277   */\n      dup2\n        /* \"#utility.yul\":14269:14289   */\n      sub\n        /* \"#utility.yul\":14265:14266   */\n      0x00\n        /* \"#utility.yul\":14254:14263   */\n      dup4\n        /* \"#utility.yul\":14250:14267   */\n      add\n        /* \"#utility.yul\":14243:14290   */\n      mstore\n        /* \"#utility.yul\":14307:14438   */\n      tag_261\n        /* \"#utility.yul\":14433:14437   */\n      dup2\n        /* \"#utility.yul\":14307:14438   */\n      tag_142\n      jump\t// in\n    tag_261:\n        /* \"#utility.yul\":14299:14438   */\n      swap1\n      pop\n        /* \"#utility.yul\":14026:14445   */\n      swap2\n      swap1\n      pop\n      jump\t// out\n\n    auxdata: 0xa264697066735822122011739670efd58a3c76bda7ac1ed53081cc8e070a902fa5b228db06f904795afc64736f6c634300081e0033\n}\n",
				"bytecode": {
					"linkReferences": {},
					"object": "60a060405234801561000f575f5ffd5b5060405161177c38038061177c83398181016040528101906100319190610389565b3373ffffffffffffffffffffffffffffffffffffffff1660808173ffffffffffffffffffffffffffffffffffffffff16815250504260038190555080426100789190610410565b6004819055505f5f90505b825181101561011f575f60405180606001604052808381526020018584815181106100b1576100b0610443565b5b602002602001015181526020015f815250908060018154018082558091505060019003905f5260205f2090600302015f909190919091505f820151815f015560208201518160010190816101059190610677565b506040820151816002015550508080600101915050610083565b505050610746565b5f604051905090565b5f5ffd5b5f5ffd5b5f5ffd5b5f601f19601f8301169050919050565b7f4e487b71000000000000000000000000000000000000000000000000000000005f52604160045260245ffd5b6101828261013c565b810181811067ffffffffffffffff821117156101a1576101a061014c565b5b80604052505050565b5f6101b3610127565b90506101bf8282610179565b919050565b5f67ffffffffffffffff8211156101de576101dd61014c565b5b602082029050602081019050919050565b5f5ffd5b5f5ffd5b5f67ffffffffffffffff8211156102115761021061014c565b5b61021a8261013c565b9050602081019050919050565b8281835e5f83830152505050565b5f610247610242846101f7565b6101aa565b905082815260208101848484011115610263576102626101f3565b5b61026e848285610227565b509392505050565b5f82601f83011261028a57610289610138565b5b815161029a848260208601610235565b91505092915050565b5f6102b56102b0846101c4565b6101aa565b905080838252602082019050602084028301858111156102d8576102d76101ef565b5b835b8181101561031f57805167ffffffffffffffff8111156102fd576102fc610138565b5b80860161030a8982610276565b855260208501945050506020810190506102da565b5050509392505050565b5f82601f83011261033d5761033c610138565b5b815161034d8482602086016102a3565b91505092915050565b5f819050919050565b61036881610356565b8114610372575f5ffd5b50565b5f815190506103838161035f565b92915050565b5f5f6040838503121561039f5761039e610130565b5b5f83015167ffffffffffffffff8111156103bc576103bb610134565b5b6103c885828601610329565b92505060206103d985828601610375565b9150509250929050565b7f4e487b71000000000000000000000000000000000000000000000000000000005f52601160045260245ffd5b5f61041a82610356565b915061042583610356565b925082820190508082111561043d5761043c6103e3565b5b92915050565b7f4e487b71000000000000000000000000000000000000000000000000000000005f52603260045260245ffd5b5f81519050919050565b7f4e487b71000000000000000000000000000000000000000000000000000000005f52602260045260245ffd5b5f60028204905060018216806104be57607f821691505b6020821081036104d1576104d061047a565b5b50919050565b5f819050815f5260205f209050919050565b5f6020601f8301049050919050565b5f82821b905092915050565b5f600883026105337fffffffffffffffffffffffffffffffffffffffffffffffffffffffffffffffff826104f8565b61053d86836104f8565b95508019841693508086168417925050509392505050565b5f819050919050565b5f61057861057361056e84610356565b610555565b610356565b9050919050565b5f819050919050565b6105918361055e565b6105a561059d8261057f565b848454610504565b825550505050565b5f5f905090565b6105bc6105ad565b6105c7818484610588565b505050565b5b818110156105ea576105df5f826105b4565b6001810190506105cd565b5050565b601f82111561062f57610600816104d7565b610609846104e9565b81016020851015610618578190505b61062c610624856104e9565b8301826105cc565b50505b505050565b5f82821c905092915050565b5f61064f5f1984600802610634565b1980831691505092915050565b5f6106678383610640565b9150826002028217905092915050565b61068082610470565b67ffffffffffffffff8111156106995761069861014c565b5b6106a382546104a7565b6106ae8282856105ee565b5f60209050601f8311600181146106df575f84156106cd578287015190505b6106d7858261065c565b86555061073e565b601f1984166106ed866104d7565b5f5b82811015610714578489015182556001820191506020850194506020810190506106ef565b86831015610731578489015161072d601f891682610640565b8355505b6001600288020188555050505b505050505050565b6080516110176107655f395f8181610347015261063601526110175ff3fe608060405234801561000f575f5ffd5b5060043610610091575f3560e01c8063986c14b211610064578063986c14b214610143578063dae770ef14610161578063e5ac37961461017f578063f782311c1461019b578063fe3b4410146101b757610091565b80630cf578561461009557806366bc84d2146100c557806379abf651146100f55780638da5cb5b14610125575b5f5ffd5b6100af60048036038101906100aa919061091d565b6101e9565b6040516100bc9190610962565b60405180910390f35b6100df60048036038101906100da91906109ae565b610206565b6040516100ec9190610aa5565b60405180910390f35b61010f600480360381019061010a919061091d565b610328565b60405161011c9190610962565b60405180910390f35b61012d610345565b60405161013a9190610ad4565b60405180910390f35b61014b610369565b6040516101589190610afc565b60405180910390f35b61016961036f565b6040516101769190610afc565b60405180910390f35b610199600480360381019061019491906109ae565b610375565b005b6101b560048036038101906101b0919061091d565b610634565b005b6101d160048036038101906101cc91906109ae565b6107e6565b6040516101e093929190610b5d565b60405180910390f35b6001602052805f5260405f205f915054906101000a900460ff1681565b61020e6108a0565b5f805490508210610254576040517f08c379a000000000000000000000000000000000000000000000000000000000815260040161024b90610be3565b60405180910390fd5b5f828154811061026757610266610c01565b5b905f5260205f2090600302016040518060600160405290815f820154815260200160018201805461029790610c5b565b80601f01602080910402602001604051908101604052809291908181526020018280546102c390610c5b565b801561030e5780601f106102e55761010080835404028352916020019161030e565b820191905f5260205f20905b8154815290600101906020018083116102f157829003601f168201915b505050505081526020016002820154815250509050919050565b6002602052805f5260405f205f915054906101000a900460ff1681565b7f000000000000000000000000000000000000000000000000000000000000000081565b60045481565b60035481565b6003544210156103ba576040517f08c379a00000000000000000000000000000000000000000000000000000000081526004016103b190610cd5565b60405180910390fd5b60045442106103fe576040517f08c379a00000000000000000000000000000000000000000000000000000000081526004016103f590610d3d565b60405180910390fd5b60015f3373ffffffffffffffffffffffffffffffffffffffff1673ffffffffffffffffffffffffffffffffffffffff1681526020019081526020015f205f9054906101000a900460ff16610487576040517f08c379a000000000000000000000000000000000000000000000000000000000815260040161047e90610dcb565b60405180910390fd5b60025f3373ffffffffffffffffffffffffffffffffffffffff1673ffffffffffffffffffffffffffffffffffffffff1681526020019081526020015f205f9054906101000a900460ff1615610511576040517f08c379a000000000000000000000000000000000000000000000000000000000815260040161050890610e59565b60405180910390fd5b5f805490508110610557576040517f08c379a000000000000000000000000000000000000000000000000000000000815260040161054e90610be3565b60405180910390fd5b600160025f3373ffffffffffffffffffffffffffffffffffffffff1673ffffffffffffffffffffffffffffffffffffffff1681526020019081526020015f205f6101000a81548160ff0219169083151502179055505f81815481106105bf576105be610c01565b5b905f5260205f2090600302016002015f8154809291906105de90610ea4565b91905055503373ffffffffffffffffffffffffffffffffffffffff167f0414a0afd59cb51603a2a29fd5f77a2f9863fd52831d972d5c210bb0dbf8dc8f826040516106299190610afc565b60405180910390a250565b7f000000000000000000000000000000000000000000000000000000000000000073ffffffffffffffffffffffffffffffffffffffff163373ffffffffffffffffffffffffffffffffffffffff16146106c2576040517f08c379a00000000000000000000000000000000000000000000000000000000081526004016106b990610f5b565b60405180910390fd5b60015f8273ffffffffffffffffffffffffffffffffffffffff1673ffffffffffffffffffffffffffffffffffffffff1681526020019081526020015f205f9054906101000a900460ff161561074c576040517f08c379a000000000000000000000000000000000000000000000000000000000815260040161074390610fc3565b60405180910390fd5b6001805f8373ffffffffffffffffffffffffffffffffffffffff1673ffffffffffffffffffffffffffffffffffffffff1681526020019081526020015f205f6101000a81548160ff0219169083151502179055508073ffffffffffffffffffffffffffffffffffffffff167fdc557d1883a1466b8ab9ae10851c2179fbd2ea03afd713d53455222bfe4d498d60405160405180910390a250565b5f81815481106107f4575f80fd5b905f5260205f2090600302015f91509050805f01549080600101805461081990610c5b565b80601f016020809104026020016040519081016040528092919081815260200182805461084590610c5b565b80156108905780601f1061086757610100808354040283529160200191610890565b820191905f5260205f20905b81548152906001019060200180831161087357829003601f168201915b5050505050908060020154905083565b60405180606001604052805f8152602001606081526020015f81525090565b5f5ffd5b5f73ffffffffffffffffffffffffffffffffffffffff82169050919050565b5f6108ec826108c3565b9050919050565b6108fc816108e2565b8114610906575f5ffd5b50565b5f81359050610917816108f3565b92915050565b5f60208284031215610932576109316108bf565b5b5f61093f84828501610909565b91505092915050565b5f8115159050919050565b61095c81610948565b82525050565b5f6020820190506109755f830184610953565b92915050565b5f819050919050565b61098d8161097b565b8114610997575f5ffd5b50565b5f813590506109a881610984565b92915050565b5f602082840312156109c3576109c26108bf565b5b5f6109d08482850161099a565b91505092915050565b6109e28161097b565b82525050565b5f81519050919050565b5f82825260208201905092915050565b8281835e5f83830152505050565b5f601f19601f8301169050919050565b5f610a2a826109e8565b610a3481856109f2565b9350610a44818560208601610a02565b610a4d81610a10565b840191505092915050565b5f606083015f830151610a6d5f8601826109d9565b5060208301518482036020860152610a858282610a20565b9150506040830151610a9a60408601826109d9565b508091505092915050565b5f6020820190508181035f830152610abd8184610a58565b905092915050565b610ace816108e2565b82525050565b5f602082019050610ae75f830184610ac5565b92915050565b610af68161097b565b82525050565b5f602082019050610b0f5f830184610aed565b92915050565b5f82825260208201905092915050565b5f610b2f826109e8565b610b398185610b15565b9350610b49818560208601610a02565b610b5281610a10565b840191505092915050565b5f606082019050610b705f830186610aed565b8181036020830152610b828185610b25565b9050610b916040830184610aed565b949350505050565b7f4944204b616e646964617420746964616b2076616c69642e00000000000000005f82015250565b5f610bcd601883610b15565b9150610bd882610b99565b602082019050919050565b5f6020820190508181035f830152610bfa81610bc1565b9050919050565b7f4e487b71000000000000000000000000000000000000000000000000000000005f52603260045260245ffd5b7f4e487b71000000000000000000000000000000000000000000000000000000005f52602260045260245ffd5b5f6002820490506001821680610c7257607f821691505b602082108103610c8557610c84610c2e565b5b50919050565b7f566f74696e672062656c756d2064696d756c61692e00000000000000000000005f82015250565b5f610cbf601583610b15565b9150610cca82610c8b565b602082019050919050565b5f6020820190508181035f830152610cec81610cb3565b9050919050565b7f506572696f646520766f74696e6720737564616820626572616b6869722e00005f82015250565b5f610d27601e83610b15565b9150610d3282610cf3565b602082019050919050565b5f6020820190508181035f830152610d5481610d1b565b9050919050565b7f416e646120746964616b2074657264616674617220736562616761692070656d5f8201527f696c69682e000000000000000000000000000000000000000000000000000000602082015250565b5f610db5602583610b15565b9150610dc082610d5b565b604082019050919050565b5f6020820190508181035f830152610de281610da9565b9050919050565b7f416e6461207375646168206d656d626572696b616e20737561726120736562655f8201527f6c756d6e79612e00000000000000000000000000000000000000000000000000602082015250565b5f610e43602783610b15565b9150610e4e82610de9565b604082019050919050565b5f6020820190508181035f830152610e7081610e37565b9050919050565b7f4e487b71000000000000000000000000000000000000000000000000000000005f52601160045260245ffd5b5f610eae8261097b565b91507fffffffffffffffffffffffffffffffffffffffffffffffffffffffffffffffff8203610ee057610edf610e77565b5b600182019050919050565b7f48616e79612070656d696c696b206b6f6e7472616b2079616e672062697361205f8201527f6d656c616b756b616e20696e692e000000000000000000000000000000000000602082015250565b5f610f45602e83610b15565b9150610f5082610eeb565b604082019050919050565b5f6020820190508181035f830152610f7281610f39565b9050919050565b7f50656d696c696820696e69207375646168207465726461667461722e000000005f82015250565b5f610fad601c83610b15565b9150610fb882610f79565b602082019050919050565b5f6020820190508181035f830152610fda81610fa1565b905091905056fea264697066735822122011739670efd58a3c76bda7ac1ed53081cc8e070a902fa5b228db06f904795afc64736f6c634300081e0033",
					"opcodes": "PUSH1 0xA0 PUSH1 0x40 MSTORE CALLVALUE DUP1 ISZERO PUSH2 0xF JUMPI PUSH0 PUSH0 REVERT JUMPDEST POP PUSH1 0x40 MLOAD PUSH2 0x177C CODESIZE SUB DUP1 PUSH2 0x177C DUP4 CODECOPY DUP2 DUP2 ADD PUSH1 0x40 MSTORE DUP2 ADD SWAP1 PUSH2 0x31 SWAP2 SWAP1 PUSH2 0x389 JUMP JUMPDEST CALLER PUSH20 0xFFFFFFFFFFFFFFFFFFFFFFFFFFFFFFFFFFFFFFFF AND PUSH1 0x80 DUP2 PUSH20 0xFFFFFFFFFFFFFFFFFFFFFFFFFFFFFFFFFFFFFFFF AND DUP2 MSTORE POP POP TIMESTAMP PUSH1 0x3 DUP2 SWAP1 SSTORE POP DUP1 TIMESTAMP PUSH2 0x78 SWAP2 SWAP1 PUSH2 0x410 JUMP JUMPDEST PUSH1 0x4 DUP2 SWAP1 SSTORE POP PUSH0 PUSH0 SWAP1 POP JUMPDEST DUP3 MLOAD DUP2 LT ISZERO PUSH2 0x11F JUMPI PUSH0 PUSH1 0x40 MLOAD DUP1 PUSH1 0x60 ADD PUSH1 0x40 MSTORE DUP1 DUP4 DUP2 MSTORE PUSH1 0x20 ADD DUP6 DUP5 DUP2 MLOAD DUP2 LT PUSH2 0xB1 JUMPI PUSH2 0xB0 PUSH2 0x443 JUMP JUMPDEST JUMPDEST PUSH1 0x20 MUL PUSH1 0x20 ADD ADD MLOAD DUP2 MSTORE PUSH1 0x20 ADD PUSH0 DUP2 MSTORE POP SWAP1 DUP1 PUSH1 0x1 DUP2 SLOAD ADD DUP1 DUP3 SSTORE DUP1 SWAP2 POP POP PUSH1 0x1 SWAP1 SUB SWAP1 PUSH0 MSTORE PUSH1 0x20 PUSH0 KECCAK256 SWAP1 PUSH1 0x3 MUL ADD PUSH0 SWAP1 SWAP2 SWAP1 SWAP2 SWAP1 SWAP2 POP PUSH0 DUP3 ADD MLOAD DUP2 PUSH0 ADD SSTORE PUSH1 0x20 DUP3 ADD MLOAD DUP2 PUSH1 0x1 ADD SWAP1 DUP2 PUSH2 0x105 SWAP2 SWAP1 PUSH2 0x677 JUMP JUMPDEST POP PUSH1 0x40 DUP3 ADD MLOAD DUP2 PUSH1 0x2 ADD SSTORE POP POP DUP1 DUP1 PUSH1 0x1 ADD SWAP2 POP POP PUSH2 0x83 JUMP JUMPDEST POP POP POP PUSH2 0x746 JUMP JUMPDEST PUSH0 PUSH1 0x40 MLOAD SWAP1 POP SWAP1 JUMP JUMPDEST PUSH0 PUSH0 REVERT JUMPDEST PUSH0 PUSH0 REVERT JUMPDEST PUSH0 PUSH0 REVERT JUMPDEST PUSH0 PUSH1 0x1F NOT PUSH1 0x1F DUP4 ADD AND SWAP1 POP SWAP2 SWAP1 POP JUMP JUMPDEST PUSH32 0x4E487B7100000000000000000000000000000000000000000000000000000000 PUSH0 MSTORE PUSH1 0x41 PUSH1 0x4 MSTORE PUSH1 0x24 PUSH0 REVERT JUMPDEST PUSH2 0x182 DUP3 PUSH2 0x13C JUMP JUMPDEST DUP2 ADD DUP2 DUP2 LT PUSH8 0xFFFFFFFFFFFFFFFF DUP3 GT OR ISZERO PUSH2 0x1A1 JUMPI PUSH2 0x1A0 PUSH2 0x14C JUMP JUMPDEST JUMPDEST DUP1 PUSH1 0x40 MSTORE POP POP POP JUMP JUMPDEST PUSH0 PUSH2 0x1B3 PUSH2 0x127 JUMP JUMPDEST SWAP1 POP PUSH2 0x1BF DUP3 DUP3 PUSH2 0x179 JUMP JUMPDEST SWAP2 SWAP1 POP JUMP JUMPDEST PUSH0 PUSH8 0xFFFFFFFFFFFFFFFF DUP3 GT ISZERO PUSH2 0x1DE JUMPI PUSH2 0x1DD PUSH2 0x14C JUMP JUMPDEST JUMPDEST PUSH1 0x20 DUP3 MUL SWAP1 POP PUSH1 0x20 DUP2 ADD SWAP1 POP SWAP2 SWAP1 POP JUMP JUMPDEST PUSH0 PUSH0 REVERT JUMPDEST PUSH0 PUSH0 REVERT JUMPDEST PUSH0 PUSH8 0xFFFFFFFFFFFFFFFF DUP3 GT ISZERO PUSH2 0x211 JUMPI PUSH2 0x210 PUSH2 0x14C JUMP JUMPDEST JUMPDEST PUSH2 0x21A DUP3 PUSH2 0x13C JUMP JUMPDEST SWAP1 POP PUSH1 0x20 DUP2 ADD SWAP1 POP SWAP2 SWAP1 POP JUMP JUMPDEST DUP3 DUP2 DUP4 MCOPY PUSH0 DUP4 DUP4 ADD MSTORE POP POP POP JUMP JUMPDEST PUSH0 PUSH2 0x247 PUSH2 0x242 DUP5 PUSH2 0x1F7 JUMP JUMPDEST PUSH2 0x1AA JUMP JUMPDEST SWAP1 POP DUP3 DUP2 MSTORE PUSH1 0x20 DUP2 ADD DUP5 DUP5 DUP5 ADD GT ISZERO PUSH2 0x263 JUMPI PUSH2 0x262 PUSH2 0x1F3 JUMP JUMPDEST JUMPDEST PUSH2 0x26E DUP5 DUP3 DUP6 PUSH2 0x227 JUMP JUMPDEST POP SWAP4 SWAP3 POP POP POP JUMP JUMPDEST PUSH0 DUP3 PUSH1 0x1F DUP4 ADD SLT PUSH2 0x28A JUMPI PUSH2 0x289 PUSH2 0x138 JUMP JUMPDEST JUMPDEST DUP2 MLOAD PUSH2 0x29A DUP5 DUP3 PUSH1 0x20 DUP7 ADD PUSH2 0x235 JUMP JUMPDEST SWAP2 POP POP SWAP3 SWAP2 POP POP JUMP JUMPDEST PUSH0 PUSH2 0x2B5 PUSH2 0x2B0 DUP5 PUSH2 0x1C4 JUMP JUMPDEST PUSH2 0x1AA JUMP JUMPDEST SWAP1 POP DUP1 DUP4 DUP3 MSTORE PUSH1 0x20 DUP3 ADD SWAP1 POP PUSH1 0x20 DUP5 MUL DUP4 ADD DUP6 DUP2 GT ISZERO PUSH2 0x2D8 JUMPI PUSH2 0x2D7 PUSH2 0x1EF JUMP JUMPDEST JUMPDEST DUP4 JUMPDEST DUP2 DUP2 LT ISZERO PUSH2 0x31F JUMPI DUP1 MLOAD PUSH8 0xFFFFFFFFFFFFFFFF DUP2 GT ISZERO PUSH2 0x2FD JUMPI PUSH2 0x2FC PUSH2 0x138 JUMP JUMPDEST JUMPDEST DUP1 DUP7 ADD PUSH2 0x30A DUP10 DUP3 PUSH2 0x276 JUMP JUMPDEST DUP6 MSTORE PUSH1 0x20 DUP6 ADD SWAP5 POP POP POP PUSH1 0x20 DUP2 ADD SWAP1 POP PUSH2 0x2DA JUMP JUMPDEST POP POP POP SWAP4 SWAP3 POP POP POP JUMP JUMPDEST PUSH0 DUP3 PUSH1 0x1F DUP4 ADD SLT PUSH2 0x33D JUMPI PUSH2 0x33C PUSH2 0x138 JUMP JUMPDEST JUMPDEST DUP2 MLOAD PUSH2 0x34D DUP5 DUP3 PUSH1 0x20 DUP7 ADD PUSH2 0x2A3 JUMP JUMPDEST SWAP2 POP POP SWAP3 SWAP2 POP POP JUMP JUMPDEST PUSH0 DUP2 SWAP1 POP SWAP2 SWAP1 POP JUMP JUMPDEST PUSH2 0x368 DUP2 PUSH2 0x356 JUMP JUMPDEST DUP2 EQ PUSH2 0x372 JUMPI PUSH0 PUSH0 REVERT JUMPDEST POP JUMP JUMPDEST PUSH0 DUP2 MLOAD SWAP1 POP PUSH2 0x383 DUP2 PUSH2 0x35F JUMP JUMPDEST SWAP3 SWAP2 POP POP JUMP JUMPDEST PUSH0 PUSH0 PUSH1 0x40 DUP4 DUP6 SUB SLT ISZERO PUSH2 0x39F JUMPI PUSH2 0x39E PUSH2 0x130 JUMP JUMPDEST JUMPDEST PUSH0 DUP4 ADD MLOAD PUSH8 0xFFFFFFFFFFFFFFFF DUP2 GT ISZERO PUSH2 0x3BC JUMPI PUSH2 0x3BB PUSH2 0x134 JUMP JUMPDEST JUMPDEST PUSH2 0x3C8 DUP6 DUP3 DUP7 ADD PUSH2 0x329 JUMP JUMPDEST SWAP3 POP POP PUSH1 0x20 PUSH2 0x3D9 DUP6 DUP3 DUP7 ADD PUSH2 0x375 JUMP JUMPDEST SWAP2 POP POP SWAP3 POP SWAP3 SWAP1 POP JUMP JUMPDEST PUSH32 0x4E487B7100000000000000000000000000000000000000000000000000000000 PUSH0 MSTORE PUSH1 0x11 PUSH1 0x4 MSTORE PUSH1 0x24 PUSH0 REVERT JUMPDEST PUSH0 PUSH2 0x41A DUP3 PUSH2 0x356 JUMP JUMPDEST SWAP2 POP PUSH2 0x425 DUP4 PUSH2 0x356 JUMP JUMPDEST SWAP3 POP DUP3 DUP3 ADD SWAP1 POP DUP1 DUP3 GT ISZERO PUSH2 0x43D JUMPI PUSH2 0x43C PUSH2 0x3E3 JUMP JUMPDEST JUMPDEST SWAP3 SWAP2 POP POP JUMP JUMPDEST PUSH32 0x4E487B7100000000000000000000000000000000000000000000000000000000 PUSH0 MSTORE PUSH1 0x32 PUSH1 0x4 MSTORE PUSH1 0x24 PUSH0 REVERT JUMPDEST PUSH0 DUP2 MLOAD SWAP1 POP SWAP2 SWAP1 POP JUMP JUMPDEST PUSH32 0x4E487B7100000000000000000000000000000000000000000000000000000000 PUSH0 MSTORE PUSH1 0x22 PUSH1 0x4 MSTORE PUSH1 0x24 PUSH0 REVERT JUMPDEST PUSH0 PUSH1 0x2 DUP3 DIV SWAP1 POP PUSH1 0x1 DUP3 AND DUP1 PUSH2 0x4BE JUMPI PUSH1 0x7F DUP3 AND SWAP2 POP JUMPDEST PUSH1 0x20 DUP3 LT DUP2 SUB PUSH2 0x4D1 JUMPI PUSH2 0x4D0 PUSH2 0x47A JUMP JUMPDEST JUMPDEST POP SWAP2 SWAP1 POP JUMP JUMPDEST PUSH0 DUP2 SWAP1 POP DUP2 PUSH0 MSTORE PUSH1 0x20 PUSH0 KECCAK256 SWAP1 POP SWAP2 SWAP1 POP JUMP JUMPDEST PUSH0 PUSH1 0x20 PUSH1 0x1F DUP4 ADD DIV SWAP1 POP SWAP2 SWAP1 POP JUMP JUMPDEST PUSH0 DUP3 DUP3 SHL SWAP1 POP SWAP3 SWAP2 POP POP JUMP JUMPDEST PUSH0 PUSH1 0x8 DUP4 MUL PUSH2 0x533 PUSH32 0xFFFFFFFFFFFFFFFFFFFFFFFFFFFFFFFFFFFFFFFFFFFFFFFFFFFFFFFFFFFFFFFF DUP3 PUSH2 0x4F8 JUMP JUMPDEST PUSH2 0x53D DUP7 DUP4 PUSH2 0x4F8 JUMP JUMPDEST SWAP6 POP DUP1 NOT DUP5 AND SWAP4 POP DUP1 DUP7 AND DUP5 OR SWAP3 POP POP POP SWAP4 SWAP3 POP POP POP JUMP JUMPDEST PUSH0 DUP2 SWAP1 POP SWAP2 SWAP1 POP JUMP JUMPDEST PUSH0 PUSH2 0x578 PUSH2 0x573 PUSH2 0x56E DUP5 PUSH2 0x356 JUMP JUMPDEST PUSH2 0x555 JUMP JUMPDEST PUSH2 0x356 JUMP JUMPDEST SWAP1 POP SWAP2 SWAP1 POP JUMP JUMPDEST PUSH0 DUP2 SWAP1 POP SWAP2 SWAP1 POP JUMP JUMPDEST PUSH2 0x591 DUP4 PUSH2 0x55E JUMP JUMPDEST PUSH2 0x5A5 PUSH2 0x59D DUP3 PUSH2 0x57F JUMP JUMPDEST DUP5 DUP5 SLOAD PUSH2 0x504 JUMP JUMPDEST DUP3 SSTORE POP POP POP POP JUMP JUMPDEST PUSH0 PUSH0 SWAP1 POP SWAP1 JUMP JUMPDEST PUSH2 0x5BC PUSH2 0x5AD JUMP JUMPDEST PUSH2 0x5C7 DUP2 DUP5 DUP5 PUSH2 0x588 JUMP JUMPDEST POP POP POP JUMP JUMPDEST JUMPDEST DUP2 DUP2 LT ISZERO PUSH2 0x5EA JUMPI PUSH2 0x5DF PUSH0 DUP3 PUSH2 0x5B4 JUMP JUMPDEST PUSH1 0x1 DUP2 ADD SWAP1 POP PUSH2 0x5CD JUMP JUMPDEST POP POP JUMP JUMPDEST PUSH1 0x1F DUP3 GT ISZERO PUSH2 0x62F JUMPI PUSH2 0x600 DUP2 PUSH2 0x4D7 JUMP JUMPDEST PUSH2 0x609 DUP5 PUSH2 0x4E9 JUMP JUMPDEST DUP2 ADD PUSH1 0x20 DUP6 LT ISZERO PUSH2 0x618 JUMPI DUP2 SWAP1 POP JUMPDEST PUSH2 0x62C PUSH2 0x624 DUP6 PUSH2 0x4E9 JUMP JUMPDEST DUP4 ADD DUP3 PUSH2 0x5CC JUMP JUMPDEST POP POP JUMPDEST POP POP POP JUMP JUMPDEST PUSH0 DUP3 DUP3 SHR SWAP1 POP SWAP3 SWAP2 POP POP JUMP JUMPDEST PUSH0 PUSH2 0x64F PUSH0 NOT DUP5 PUSH1 0x8 MUL PUSH2 0x634 JUMP JUMPDEST NOT DUP1 DUP4 AND SWAP2 POP POP SWAP3 SWAP2 POP POP JUMP JUMPDEST PUSH0 PUSH2 0x667 DUP4 DUP4 PUSH2 0x640 JUMP JUMPDEST SWAP2 POP DUP3 PUSH1 0x2 MUL DUP3 OR SWAP1 POP SWAP3 SWAP2 POP POP JUMP JUMPDEST PUSH2 0x680 DUP3 PUSH2 0x470 JUMP JUMPDEST PUSH8 0xFFFFFFFFFFFFFFFF DUP2 GT ISZERO PUSH2 0x699 JUMPI PUSH2 0x698 PUSH2 0x14C JUMP JUMPDEST JUMPDEST PUSH2 0x6A3 DUP3 SLOAD PUSH2 0x4A7 JUMP JUMPDEST PUSH2 0x6AE DUP3 DUP3 DUP6 PUSH2 0x5EE JUMP JUMPDEST PUSH0 PUSH1 0x20 SWAP1 POP PUSH1 0x1F DUP4 GT PUSH1 0x1 DUP2 EQ PUSH2 0x6DF JUMPI PUSH0 DUP5 ISZERO PUSH2 0x6CD JUMPI DUP3 DUP8 ADD MLOAD SWAP1 POP JUMPDEST PUSH2 0x6D7 DUP6 DUP3 PUSH2 0x65C JUMP JUMPDEST DUP7 SSTORE POP PUSH2 0x73E JUMP JUMPDEST PUSH1 0x1F NOT DUP5 AND PUSH2 0x6ED DUP7 PUSH2 0x4D7 JUMP JUMPDEST PUSH0 JUMPDEST DUP3 DUP2 LT ISZERO PUSH2 0x714 JUMPI DUP5 DUP10 ADD MLOAD DUP3 SSTORE PUSH1 0x1 DUP3 ADD SWAP2 POP PUSH1 0x20 DUP6 ADD SWAP5 POP PUSH1 0x20 DUP2 ADD SWAP1 POP PUSH2 0x6EF JUMP JUMPDEST DUP7 DUP4 LT ISZERO PUSH2 0x731 JUMPI DUP5 DUP10 ADD MLOAD PUSH2 0x72D PUSH1 0x1F DUP10 AND DUP3 PUSH2 0x640 JUMP JUMPDEST DUP4 SSTORE POP JUMPDEST PUSH1 0x1 PUSH1 0x2 DUP9 MUL ADD DUP9 SSTORE POP POP POP JUMPDEST POP POP POP POP POP POP JUMP JUMPDEST PUSH1 0x80 MLOAD PUSH2 0x1017 PUSH2 0x765 PUSH0 CODECOPY PUSH0 DUP2 DUP2 PUSH2 0x347 ADD MSTORE PUSH2 0x636 ADD MSTORE PUSH2 0x1017 PUSH0 RETURN INVALID PUSH1 0x80 PUSH1 0x40 MSTORE CALLVALUE DUP1 ISZERO PUSH2 0xF JUMPI PUSH0 PUSH0 REVERT JUMPDEST POP PUSH1 0x4 CALLDATASIZE LT PUSH2 0x91 JUMPI PUSH0 CALLDATALOAD PUSH1 0xE0 SHR DUP1 PUSH4 0x986C14B2 GT PUSH2 0x64 JUMPI DUP1 PUSH4 0x986C14B2 EQ PUSH2 0x143 JUMPI DUP1 PUSH4 0xDAE770EF EQ PUSH2 0x161 JUMPI DUP1 PUSH4 0xE5AC3796 EQ PUSH2 0x17F JUMPI DUP1 PUSH4 0xF782311C EQ PUSH2 0x19B JUMPI DUP1 PUSH4 0xFE3B4410 EQ PUSH2 0x1B7 JUMPI PUSH2 0x91 JUMP JUMPDEST DUP1 PUSH4 0xCF57856 EQ PUSH2 0x95 JUMPI DUP1 PUSH4 0x66BC84D2 EQ PUSH2 0xC5 JUMPI DUP1 PUSH4 0x79ABF651 EQ PUSH2 0xF5 JUMPI DUP1 PUSH4 0x8DA5CB5B EQ PUSH2 0x125 JUMPI JUMPDEST PUSH0 PUSH0 REVERT JUMPDEST PUSH2 0xAF PUSH1 0x4 DUP1 CALLDATASIZE SUB DUP2 ADD SWAP1 PUSH2 0xAA SWAP2 SWAP1 PUSH2 0x91D JUMP JUMPDEST PUSH2 0x1E9 JUMP JUMPDEST PUSH1 0x40 MLOAD PUSH2 0xBC SWAP2 SWAP1 PUSH2 0x962 JUMP JUMPDEST PUSH1 0x40 MLOAD DUP1 SWAP2 SUB SWAP1 RETURN JUMPDEST PUSH2 0xDF PUSH1 0x4 DUP1 CALLDATASIZE SUB DUP2 ADD SWAP1 PUSH2 0xDA SWAP2 SWAP1 PUSH2 0x9AE JUMP JUMPDEST PUSH2 0x206 JUMP JUMPDEST PUSH1 0x40 MLOAD PUSH2 0xEC SWAP2 SWAP1 PUSH2 0xAA5 JUMP JUMPDEST PUSH1 0x40 MLOAD DUP1 SWAP2 SUB SWAP1 RETURN JUMPDEST PUSH2 0x10F PUSH1 0x4 DUP1 CALLDATASIZE SUB DUP2 ADD SWAP1 PUSH2 0x10A SWAP2 SWAP1 PUSH2 0x91D JUMP JUMPDEST PUSH2 0x328 JUMP JUMPDEST PUSH1 0x40 MLOAD PUSH2 0x11C SWAP2 SWAP1 PUSH2 0x962 JUMP JUMPDEST PUSH1 0x40 MLOAD DUP1 SWAP2 SUB SWAP1 RETURN JUMPDEST PUSH2 0x12D PUSH2 0x345 JUMP JUMPDEST PUSH1 0x40 MLOAD PUSH2 0x13A SWAP2 SWAP1 PUSH2 0xAD4 JUMP JUMPDEST PUSH1 0x40 MLOAD DUP1 SWAP2 SUB SWAP1 RETURN JUMPDEST PUSH2 0x14B PUSH2 0x369 JUMP JUMPDEST PUSH1 0x40 MLOAD PUSH2 0x158 SWAP2 SWAP1 PUSH2 0xAFC JUMP JUMPDEST PUSH1 0x40 MLOAD DUP1 SWAP2 SUB SWAP1 RETURN JUMPDEST PUSH2 0x169 PUSH2 0x36F JUMP JUMPDEST PUSH1 0x40 MLOAD PUSH2 0x176 SWAP2 SWAP1 PUSH2 0xAFC JUMP JUMPDEST PUSH1 0x40 MLOAD DUP1 SWAP2 SUB SWAP1 RETURN JUMPDEST PUSH2 0x199 PUSH1 0x4 DUP1 CALLDATASIZE SUB DUP2 ADD SWAP1 PUSH2 0x194 SWAP2 SWAP1 PUSH2 0x9AE JUMP JUMPDEST PUSH2 0x375 JUMP JUMPDEST STOP JUMPDEST PUSH2 0x1B5 PUSH1 0x4 DUP1 CALLDATASIZE SUB DUP2 ADD SWAP1 PUSH2 0x1B0 SWAP2 SWAP1 PUSH2 0x91D JUMP JUMPDEST PUSH2 0x634 JUMP JUMPDEST STOP JUMPDEST PUSH2 0x1D1 PUSH1 0x4 DUP1 CALLDATASIZE SUB DUP2 ADD SWAP1 PUSH2 0x1CC SWAP2 SWAP1 PUSH2 0x9AE JUMP JUMPDEST PUSH2 0x7E6 JUMP JUMPDEST PUSH1 0x40 MLOAD PUSH2 0x1E0 SWAP4 SWAP3 SWAP2 SWAP1 PUSH2 0xB5D JUMP JUMPDEST PUSH1 0x40 MLOAD DUP1 SWAP2 SUB SWAP1 RETURN JUMPDEST PUSH1 0x1 PUSH1 0x20 MSTORE DUP1 PUSH0 MSTORE PUSH1 0x40 PUSH0 KECCAK256 PUSH0 SWAP2 POP SLOAD SWAP1 PUSH2 0x100 EXP SWAP1 DIV PUSH1 0xFF AND DUP2 JUMP JUMPDEST PUSH2 0x20E PUSH2 0x8A0 JUMP JUMPDEST PUSH0 DUP1 SLOAD SWAP1 POP DUP3 LT PUSH2 0x254 JUMPI PUSH1 0x40 MLOAD PUSH32 0x8C379A000000000000000000000000000000000000000000000000000000000 DUP2 MSTORE PUSH1 0x4 ADD PUSH2 0x24B SWAP1 PUSH2 0xBE3 JUMP JUMPDEST PUSH1 0x40 MLOAD DUP1 SWAP2 SUB SWAP1 REVERT JUMPDEST PUSH0 DUP3 DUP2 SLOAD DUP2 LT PUSH2 0x267 JUMPI PUSH2 0x266 PUSH2 0xC01 JUMP JUMPDEST JUMPDEST SWAP1 PUSH0 MSTORE PUSH1 0x20 PUSH0 KECCAK256 SWAP1 PUSH1 0x3 MUL ADD PUSH1 0x40 MLOAD DUP1 PUSH1 0x60 ADD PUSH1 0x40 MSTORE SWAP1 DUP2 PUSH0 DUP3 ADD SLOAD DUP2 MSTORE PUSH1 0x20 ADD PUSH1 0x1 DUP3 ADD DUP1 SLOAD PUSH2 0x297 SWAP1 PUSH2 0xC5B JUMP JUMPDEST DUP1 PUSH1 0x1F ADD PUSH1 0x20 DUP1 SWAP2 DIV MUL PUSH1 0x20 ADD PUSH1 0x40 MLOAD SWAP1 DUP2 ADD PUSH1 0x40 MSTORE DUP1 SWAP3 SWAP2 SWAP1 DUP2 DUP2 MSTORE PUSH1 0x20 ADD DUP3 DUP1 SLOAD PUSH2 0x2C3 SWAP1 PUSH2 0xC5B JUMP JUMPDEST DUP1 ISZERO PUSH2 0x30E JUMPI DUP1 PUSH1 0x1F LT PUSH2 0x2E5 JUMPI PUSH2 0x100 DUP1 DUP4 SLOAD DIV MUL DUP4 MSTORE SWAP2 PUSH1 0x20 ADD SWAP2 PUSH2 0x30E JUMP JUMPDEST DUP3 ADD SWAP2 SWAP1 PUSH0 MSTORE PUSH1 0x20 PUSH0 KECCAK256 SWAP1 JUMPDEST DUP2 SLOAD DUP2 MSTORE SWAP1 PUSH1 0x1 ADD SWAP1 PUSH1 0x20 ADD DUP1 DUP4 GT PUSH2 0x2F1 JUMPI DUP3 SWAP1 SUB PUSH1 0x1F AND DUP3 ADD SWAP2 JUMPDEST POP POP POP POP POP DUP2 MSTORE PUSH1 0x20 ADD PUSH1 0x2 DUP3 ADD SLOAD DUP2 MSTORE POP POP SWAP1 POP SWAP2 SWAP1 POP JUMP JUMPDEST PUSH1 0x2 PUSH1 0x20 MSTORE DUP1 PUSH0 MSTORE PUSH1 0x40 PUSH0 KECCAK256 PUSH0 SWAP2 POP SLOAD SWAP1 PUSH2 0x100 EXP SWAP1 DIV PUSH1 0xFF AND DUP2 JUMP JUMPDEST PUSH32 0x0 DUP2 JUMP JUMPDEST PUSH1 0x4 SLOAD DUP2 JUMP JUMPDEST PUSH1 0x3 SLOAD DUP2 JUMP JUMPDEST PUSH1 0x3 SLOAD TIMESTAMP LT ISZERO PUSH2 0x3BA JUMPI PUSH1 0x40 MLOAD PUSH32 0x8C379A000000000000000000000000000000000000000000000000000000000 DUP2 MSTORE PUSH1 0x4 ADD PUSH2 0x3B1 SWAP1 PUSH2 0xCD5 JUMP JUMPDEST PUSH1 0x40 MLOAD DUP1 SWAP2 SUB SWAP1 REVERT JUMPDEST PUSH1 0x4 SLOAD TIMESTAMP LT PUSH2 0x3FE JUMPI PUSH1 0x40 MLOAD PUSH32 0x8C379A000000000000000000000000000000000000000000000000000000000 DUP2 MSTORE PUSH1 0x4 ADD PUSH2 0x3F5 SWAP1 PUSH2 0xD3D JUMP JUMPDEST PUSH1 0x40 MLOAD DUP1 SWAP2 SUB SWAP1 REVERT JUMPDEST PUSH1 0x1 PUSH0 CALLER PUSH20 0xFFFFFFFFFFFFFFFFFFFFFFFFFFFFFFFFFFFFFFFF AND PUSH20 0xFFFFFFFFFFFFFFFFFFFFFFFFFFFFFFFFFFFFFFFF AND DUP2 MSTORE PUSH1 0x20 ADD SWAP1 DUP2 MSTORE PUSH1 0x20 ADD PUSH0 KECCAK256 PUSH0 SWAP1 SLOAD SWAP1 PUSH2 0x100 EXP SWAP1 DIV PUSH1 0xFF AND PUSH2 0x487 JUMPI PUSH1 0x40 MLOAD PUSH32 0x8C379A000000000000000000000000000000000000000000000000000000000 DUP2 MSTORE PUSH1 0x4 ADD PUSH2 0x47E SWAP1 PUSH2 0xDCB JUMP JUMPDEST PUSH1 0x40 MLOAD DUP1 SWAP2 SUB SWAP1 REVERT JUMPDEST PUSH1 0x2 PUSH0 CALLER PUSH20 0xFFFFFFFFFFFFFFFFFFFFFFFFFFFFFFFFFFFFFFFF AND PUSH20 0xFFFFFFFFFFFFFFFFFFFFFFFFFFFFFFFFFFFFFFFF AND DUP2 MSTORE PUSH1 0x20 ADD SWAP1 DUP2 MSTORE PUSH1 0x20 ADD PUSH0 KECCAK256 PUSH0 SWAP1 SLOAD SWAP1 PUSH2 0x100 EXP SWAP1 DIV PUSH1 0xFF AND ISZERO PUSH2 0x511 JUMPI PUSH1 0x40 MLOAD PUSH32 0x8C379A000000000000000000000000000000000000000000000000000000000 DUP2 MSTORE PUSH1 0x4 ADD PUSH2 0x508 SWAP1 PUSH2 0xE59 JUMP JUMPDEST PUSH1 0x40 MLOAD DUP1 SWAP2 SUB SWAP1 REVERT JUMPDEST PUSH0 DUP1 SLOAD SWAP1 POP DUP2 LT PUSH2 0x557 JUMPI PUSH1 0x40 MLOAD PUSH32 0x8C379A000000000000000000000000000000000000000000000000000000000 DUP2 MSTORE PUSH1 0x4 ADD PUSH2 0x54E SWAP1 PUSH2 0xBE3 JUMP JUMPDEST PUSH1 0x40 MLOAD DUP1 SWAP2 SUB SWAP1 REVERT JUMPDEST PUSH1 0x1 PUSH1 0x2 PUSH0 CALLER PUSH20 0xFFFFFFFFFFFFFFFFFFFFFFFFFFFFFFFFFFFFFFFF AND PUSH20 0xFFFFFFFFFFFFFFFFFFFFFFFFFFFFFFFFFFFFFFFF AND DUP2 MSTORE PUSH1 0x20 ADD SWAP1 DUP2 MSTORE PUSH1 0x20 ADD PUSH0 KECCAK256 PUSH0 PUSH2 0x100 EXP DUP2 SLOAD DUP2 PUSH1 0xFF MUL NOT AND SWAP1 DUP4 ISZERO ISZERO MUL OR SWAP1 SSTORE POP PUSH0 DUP2 DUP2 SLOAD DUP2 LT PUSH2 0x5BF JUMPI PUSH2 0x5BE PUSH2 0xC01 JUMP JUMPDEST JUMPDEST SWAP1 PUSH0 MSTORE PUSH1 0x20 PUSH0 KECCAK256 SWAP1 PUSH1 0x3 MUL ADD PUSH1 0x2 ADD PUSH0 DUP2 SLOAD DUP1 SWAP3 SWAP2 SWAP1 PUSH2 0x5DE SWAP1 PUSH2 0xEA4 JUMP JUMPDEST SWAP2 SWAP1 POP SSTORE POP CALLER PUSH20 0xFFFFFFFFFFFFFFFFFFFFFFFFFFFFFFFFFFFFFFFF AND PUSH32 0x414A0AFD59CB51603A2A29FD5F77A2F9863FD52831D972D5C210BB0DBF8DC8F DUP3 PUSH1 0x40 MLOAD PUSH2 0x629 SWAP2 SWAP1 PUSH2 0xAFC JUMP JUMPDEST PUSH1 0x40 MLOAD DUP1 SWAP2 SUB SWAP1 LOG2 POP JUMP JUMPDEST PUSH32 0x0 PUSH20 0xFFFFFFFFFFFFFFFFFFFFFFFFFFFFFFFFFFFFFFFF AND CALLER PUSH20 0xFFFFFFFFFFFFFFFFFFFFFFFFFFFFFFFFFFFFFFFF AND EQ PUSH2 0x6C2 JUMPI PUSH1 0x40 MLOAD PUSH32 0x8C379A000000000000000000000000000000000000000000000000000000000 DUP2 MSTORE PUSH1 0x4 ADD PUSH2 0x6B9 SWAP1 PUSH2 0xF5B JUMP JUMPDEST PUSH1 0x40 MLOAD DUP1 SWAP2 SUB SWAP1 REVERT JUMPDEST PUSH1 0x1 PUSH0 DUP3 PUSH20 0xFFFFFFFFFFFFFFFFFFFFFFFFFFFFFFFFFFFFFFFF AND PUSH20 0xFFFFFFFFFFFFFFFFFFFFFFFFFFFFFFFFFFFFFFFF AND DUP2 MSTORE PUSH1 0x20 ADD SWAP1 DUP2 MSTORE PUSH1 0x20 ADD PUSH0 KECCAK256 PUSH0 SWAP1 SLOAD SWAP1 PUSH2 0x100 EXP SWAP1 DIV PUSH1 0xFF AND ISZERO PUSH2 0x74C JUMPI PUSH1 0x40 MLOAD PUSH32 0x8C379A000000000000000000000000000000000000000000000000000000000 DUP2 MSTORE PUSH1 0x4 ADD PUSH2 0x743 SWAP1 PUSH2 0xFC3 JUMP JUMPDEST PUSH1 0x40 MLOAD DUP1 SWAP2 SUB SWAP1 REVERT JUMPDEST PUSH1 0x1 DUP1 PUSH0 DUP4 PUSH20 0xFFFFFFFFFFFFFFFFFFFFFFFFFFFFFFFFFFFFFFFF AND PUSH20 0xFFFFFFFFFFFFFFFFFFFFFFFFFFFFFFFFFFFFFFFF AND DUP2 MSTORE PUSH1 0x20 ADD SWAP1 DUP2 MSTORE PUSH1 0x20 ADD PUSH0 KECCAK256 PUSH0 PUSH2 0x100 EXP DUP2 SLOAD DUP2 PUSH1 0xFF MUL NOT AND SWAP1 DUP4 ISZERO ISZERO MUL OR SWAP1 SSTORE POP DUP1 PUSH20 0xFFFFFFFFFFFFFFFFFFFFFFFFFFFFFFFFFFFFFFFF AND PUSH32 0xDC557D1883A1466B8AB9AE10851C2179FBD2EA03AFD713D53455222BFE4D498D PUSH1 0x40 MLOAD PUSH1 0x40 MLOAD DUP1 SWAP2 SUB SWAP1 LOG2 POP JUMP JUMPDEST PUSH0 DUP2 DUP2 SLOAD DUP2 LT PUSH2 0x7F4 JUMPI PUSH0 DUP1 REVERT JUMPDEST SWAP1 PUSH0 MSTORE PUSH1 0x20 PUSH0 KECCAK256 SWAP1 PUSH1 0x3 MUL ADD PUSH0 SWAP2 POP SWAP1 POP DUP1 PUSH0 ADD SLOAD SWAP1 DUP1 PUSH1 0x1 ADD DUP1 SLOAD PUSH2 0x819 SWAP1 PUSH2 0xC5B JUMP JUMPDEST DUP1 PUSH1 0x1F ADD PUSH1 0x20 DUP1 SWAP2 DIV MUL PUSH1 0x20 ADD PUSH1 0x40 MLOAD SWAP1 DUP2 ADD PUSH1 0x40 MSTORE DUP1 SWAP3 SWAP2 SWAP1 DUP2 DUP2 MSTORE PUSH1 0x20 ADD DUP3 DUP1 SLOAD PUSH2 0x845 SWAP1 PUSH2 0xC5B JUMP JUMPDEST DUP1 ISZERO PUSH2 0x890 JUMPI DUP1 PUSH1 0x1F LT PUSH2 0x867 JUMPI PUSH2 0x100 DUP1 DUP4 SLOAD DIV MUL DUP4 MSTORE SWAP2 PUSH1 0x20 ADD SWAP2 PUSH2 0x890 JUMP JUMPDEST DUP3 ADD SWAP2 SWAP1 PUSH0 MSTORE PUSH1 0x20 PUSH0 KECCAK256 SWAP1 JUMPDEST DUP2 SLOAD DUP2 MSTORE SWAP1 PUSH1 0x1 ADD SWAP1 PUSH1 0x20 ADD DUP1 DUP4 GT PUSH2 0x873 JUMPI DUP3 SWAP1 SUB PUSH1 0x1F AND DUP3 ADD SWAP2 JUMPDEST POP POP POP POP POP SWAP1 DUP1 PUSH1 0x2 ADD SLOAD SWAP1 POP DUP4 JUMP JUMPDEST PUSH1 0x40 MLOAD DUP1 PUSH1 0x60 ADD PUSH1 0x40 MSTORE DUP1 PUSH0 DUP2 MSTORE PUSH1 0x20 ADD PUSH1 0x60 DUP2 MSTORE PUSH1 0x20 ADD PUSH0 DUP2 MSTORE POP SWAP1 JUMP JUMPDEST PUSH0 PUSH0 REVERT JUMPDEST PUSH0 PUSH20 0xFFFFFFFFFFFFFFFFFFFFFFFFFFFFFFFFFFFFFFFF DUP3 AND SWAP1 POP SWAP2 SWAP1 POP JUMP JUMPDEST PUSH0 PUSH2 0x8EC DUP3 PUSH2 0x8C3 JUMP JUMPDEST SWAP1 POP SWAP2 SWAP1 POP JUMP JUMPDEST PUSH2 0x8FC DUP2 PUSH2 0x8E2 JUMP JUMPDEST DUP2 EQ PUSH2 0x906 JUMPI PUSH0 PUSH0 REVERT JUMPDEST POP JUMP JUMPDEST PUSH0 DUP2 CALLDATALOAD SWAP1 POP PUSH2 0x917 DUP2 PUSH2 0x8F3 JUMP JUMPDEST SWAP3 SWAP2 POP POP JUMP JUMPDEST PUSH0 PUSH1 0x20 DUP3 DUP5 SUB SLT ISZERO PUSH2 0x932 JUMPI PUSH2 0x931 PUSH2 0x8BF JUMP JUMPDEST JUMPDEST PUSH0 PUSH2 0x93F DUP5 DUP3 DUP6 ADD PUSH2 0x909 JUMP JUMPDEST SWAP2 POP POP SWAP3 SWAP2 POP POP JUMP JUMPDEST PUSH0 DUP2 ISZERO ISZERO SWAP1 POP SWAP2 SWAP1 POP JUMP JUMPDEST PUSH2 0x95C DUP2 PUSH2 0x948 JUMP JUMPDEST DUP3 MSTORE POP POP JUMP JUMPDEST PUSH0 PUSH1 0x20 DUP3 ADD SWAP1 POP PUSH2 0x975 PUSH0 DUP4 ADD DUP5 PUSH2 0x953 JUMP JUMPDEST SWAP3 SWAP2 POP POP JUMP JUMPDEST PUSH0 DUP2 SWAP1 POP SWAP2 SWAP1 POP JUMP JUMPDEST PUSH2 0x98D DUP2 PUSH2 0x97B JUMP JUMPDEST DUP2 EQ PUSH2 0x997 JUMPI PUSH0 PUSH0 REVERT JUMPDEST POP JUMP JUMPDEST PUSH0 DUP2 CALLDATALOAD SWAP1 POP PUSH2 0x9A8 DUP2 PUSH2 0x984 JUMP JUMPDEST SWAP3 SWAP2 POP POP JUMP JUMPDEST PUSH0 PUSH1 0x20 DUP3 DUP5 SUB SLT ISZERO PUSH2 0x9C3 JUMPI PUSH2 0x9C2 PUSH2 0x8BF JUMP JUMPDEST JUMPDEST PUSH0 PUSH2 0x9D0 DUP5 DUP3 DUP6 ADD PUSH2 0x99A JUMP JUMPDEST SWAP2 POP POP SWAP3 SWAP2 POP POP JUMP JUMPDEST PUSH2 0x9E2 DUP2 PUSH2 0x97B JUMP JUMPDEST DUP3 MSTORE POP POP JUMP JUMPDEST PUSH0 DUP2 MLOAD SWAP1 POP SWAP2 SWAP1 POP JUMP JUMPDEST PUSH0 DUP3 DUP3 MSTORE PUSH1 0x20 DUP3 ADD SWAP1 POP SWAP3 SWAP2 POP POP JUMP JUMPDEST DUP3 DUP2 DUP4 MCOPY PUSH0 DUP4 DUP4 ADD MSTORE POP POP POP JUMP JUMPDEST PUSH0 PUSH1 0x1F NOT PUSH1 0x1F DUP4 ADD AND SWAP1 POP SWAP2 SWAP1 POP JUMP JUMPDEST PUSH0 PUSH2 0xA2A DUP3 PUSH2 0x9E8 JUMP JUMPDEST PUSH2 0xA34 DUP2 DUP6 PUSH2 0x9F2 JUMP JUMPDEST SWAP4 POP PUSH2 0xA44 DUP2 DUP6 PUSH1 0x20 DUP7 ADD PUSH2 0xA02 JUMP JUMPDEST PUSH2 0xA4D DUP2 PUSH2 0xA10 JUMP JUMPDEST DUP5 ADD SWAP2 POP POP SWAP3 SWAP2 POP POP JUMP JUMPDEST PUSH0 PUSH1 0x60 DUP4 ADD PUSH0 DUP4 ADD MLOAD PUSH2 0xA6D PUSH0 DUP7 ADD DUP3 PUSH2 0x9D9 JUMP JUMPDEST POP PUSH1 0x20 DUP4 ADD MLOAD DUP5 DUP3 SUB PUSH1 0x20 DUP7 ADD MSTORE PUSH2 0xA85 DUP3 DUP3 PUSH2 0xA20 JUMP JUMPDEST SWAP2 POP POP PUSH1 0x40 DUP4 ADD MLOAD PUSH2 0xA9A PUSH1 0x40 DUP7 ADD DUP3 PUSH2 0x9D9 JUMP JUMPDEST POP DUP1 SWAP2 POP POP SWAP3 SWAP2 POP POP JUMP JUMPDEST PUSH0 PUSH1 0x20 DUP3 ADD SWAP1 POP DUP2 DUP2 SUB PUSH0 DUP4 ADD MSTORE PUSH2 0xABD DUP2 DUP5 PUSH2 0xA58 JUMP JUMPDEST SWAP1 POP SWAP3 SWAP2 POP POP JUMP JUMPDEST PUSH2 0xACE DUP2 PUSH2 0x8E2 JUMP JUMPDEST DUP3 MSTORE POP POP JUMP JUMPDEST PUSH0 PUSH1 0x20 DUP3 ADD SWAP1 POP PUSH2 0xAE7 PUSH0 DUP4 ADD DUP5 PUSH2 0xAC5 JUMP JUMPDEST SWAP3 SWAP2 POP POP JUMP JUMPDEST PUSH2 0xAF6 DUP2 PUSH2 0x97B JUMP JUMPDEST DUP3 MSTORE POP POP JUMP JUMPDEST PUSH0 PUSH1 0x20 DUP3 ADD SWAP1 POP PUSH2 0xB0F PUSH0 DUP4 ADD DUP5 PUSH2 0xAED JUMP JUMPDEST SWAP3 SWAP2 POP POP JUMP JUMPDEST PUSH0 DUP3 DUP3 MSTORE PUSH1 0x20 DUP3 ADD SWAP1 POP SWAP3 SWAP2 POP POP JUMP JUMPDEST PUSH0 PUSH2 0xB2F DUP3 PUSH2 0x9E8 JUMP JUMPDEST PUSH2 0xB39 DUP2 DUP6 PUSH2 0xB15 JUMP JUMPDEST SWAP4 POP PUSH2 0xB49 DUP2 DUP6 PUSH1 0x20 DUP7 ADD PUSH2 0xA02 JUMP JUMPDEST PUSH2 0xB52 DUP2 PUSH2 0xA10 JUMP JUMPDEST DUP5 ADD SWAP2 POP POP SWAP3 SWAP2 POP POP JUMP JUMPDEST PUSH0 PUSH1 0x60 DUP3 ADD SWAP1 POP PUSH2 0xB70 PUSH0 DUP4 ADD DUP7 PUSH2 0xAED JUMP JUMPDEST DUP2 DUP2 SUB PUSH1 0x20 DUP4 ADD MSTORE PUSH2 0xB82 DUP2 DUP6 PUSH2 0xB25 JUMP JUMPDEST SWAP1 POP PUSH2 0xB91 PUSH1 0x40 DUP4 ADD DUP5 PUSH2 0xAED JUMP JUMPDEST SWAP5 SWAP4 POP POP POP POP JUMP JUMPDEST PUSH32 0x4944204B616E646964617420746964616B2076616C69642E0000000000000000 PUSH0 DUP3 ADD MSTORE POP JUMP JUMPDEST PUSH0 PUSH2 0xBCD PUSH1 0x18 DUP4 PUSH2 0xB15 JUMP JUMPDEST SWAP2 POP PUSH2 0xBD8 DUP3 PUSH2 0xB99 JUMP JUMPDEST PUSH1 0x20 DUP3 ADD SWAP1 POP SWAP2 SWAP1 POP JUMP JUMPDEST PUSH0 PUSH1 0x20 DUP3 ADD SWAP1 POP DUP2 DUP2 SUB PUSH0 DUP4 ADD MSTORE PUSH2 0xBFA DUP2 PUSH2 0xBC1 JUMP JUMPDEST SWAP1 POP SWAP2 SWAP1 POP JUMP JUMPDEST PUSH32 0x4E487B7100000000000000000000000000000000000000000000000000000000 PUSH0 MSTORE PUSH1 0x32 PUSH1 0x4 MSTORE PUSH1 0x24 PUSH0 REVERT JUMPDEST PUSH32 0x4E487B7100000000000000000000000000000000000000000000000000000000 PUSH0 MSTORE PUSH1 0x22 PUSH1 0x4 MSTORE PUSH1 0x24 PUSH0 REVERT JUMPDEST PUSH0 PUSH1 0x2 DUP3 DIV SWAP1 POP PUSH1 0x1 DUP3 AND DUP1 PUSH2 0xC72 JUMPI PUSH1 0x7F DUP3 AND SWAP2 POP JUMPDEST PUSH1 0x20 DUP3 LT DUP2 SUB PUSH2 0xC85 JUMPI PUSH2 0xC84 PUSH2 0xC2E JUMP JUMPDEST JUMPDEST POP SWAP2 SWAP1 POP JUMP JUMPDEST PUSH32 0x566F74696E672062656C756D2064696D756C61692E0000000000000000000000 PUSH0 DUP3 ADD MSTORE POP JUMP JUMPDEST PUSH0 PUSH2 0xCBF PUSH1 0x15 DUP4 PUSH2 0xB15 JUMP JUMPDEST SWAP2 POP PUSH2 0xCCA DUP3 PUSH2 0xC8B JUMP JUMPDEST PUSH1 0x20 DUP3 ADD SWAP1 POP SWAP2 SWAP1 POP JUMP JUMPDEST PUSH0 PUSH1 0x20 DUP3 ADD SWAP1 POP DUP2 DUP2 SUB PUSH0 DUP4 ADD MSTORE PUSH2 0xCEC DUP2 PUSH2 0xCB3 JUMP JUMPDEST SWAP1 POP SWAP2 SWAP1 POP JUMP JUMPDEST PUSH32 0x506572696F646520766F74696E6720737564616820626572616B6869722E0000 PUSH0 DUP3 ADD MSTORE POP JUMP JUMPDEST PUSH0 PUSH2 0xD27 PUSH1 0x1E DUP4 PUSH2 0xB15 JUMP JUMPDEST SWAP2 POP PUSH2 0xD32 DUP3 PUSH2 0xCF3 JUMP JUMPDEST PUSH1 0x20 DUP3 ADD SWAP1 POP SWAP2 SWAP1 POP JUMP JUMPDEST PUSH0 PUSH1 0x20 DUP3 ADD SWAP1 POP DUP2 DUP2 SUB PUSH0 DUP4 ADD MSTORE PUSH2 0xD54 DUP2 PUSH2 0xD1B JUMP JUMPDEST SWAP1 POP SWAP2 SWAP1 POP JUMP JUMPDEST PUSH32 0x416E646120746964616B2074657264616674617220736562616761692070656D PUSH0 DUP3 ADD MSTORE PUSH32 0x696C69682E000000000000000000000000000000000000000000000000000000 PUSH1 0x20 DUP3 ADD MSTORE POP JUMP JUMPDEST PUSH0 PUSH2 0xDB5 PUSH1 0x25 DUP4 PUSH2 0xB15 JUMP JUMPDEST SWAP2 POP PUSH2 0xDC0 DUP3 PUSH2 0xD5B JUMP JUMPDEST PUSH1 0x40 DUP3 ADD SWAP1 POP SWAP2 SWAP1 POP JUMP JUMPDEST PUSH0 PUSH1 0x20 DUP3 ADD SWAP1 POP DUP2 DUP2 SUB PUSH0 DUP4 ADD MSTORE PUSH2 0xDE2 DUP2 PUSH2 0xDA9 JUMP JUMPDEST SWAP1 POP SWAP2 SWAP1 POP JUMP JUMPDEST PUSH32 0x416E6461207375646168206D656D626572696B616E2073756172612073656265 PUSH0 DUP3 ADD MSTORE PUSH32 0x6C756D6E79612E00000000000000000000000000000000000000000000000000 PUSH1 0x20 DUP3 ADD MSTORE POP JUMP JUMPDEST PUSH0 PUSH2 0xE43 PUSH1 0x27 DUP4 PUSH2 0xB15 JUMP JUMPDEST SWAP2 POP PUSH2 0xE4E DUP3 PUSH2 0xDE9 JUMP JUMPDEST PUSH1 0x40 DUP3 ADD SWAP1 POP SWAP2 SWAP1 POP JUMP JUMPDEST PUSH0 PUSH1 0x20 DUP3 ADD SWAP1 POP DUP2 DUP2 SUB PUSH0 DUP4 ADD MSTORE PUSH2 0xE70 DUP2 PUSH2 0xE37 JUMP JUMPDEST SWAP1 POP SWAP2 SWAP1 POP JUMP JUMPDEST PUSH32 0x4E487B7100000000000000000000000000000000000000000000000000000000 PUSH0 MSTORE PUSH1 0x11 PUSH1 0x4 MSTORE PUSH1 0x24 PUSH0 REVERT JUMPDEST PUSH0 PUSH2 0xEAE DUP3 PUSH2 0x97B JUMP JUMPDEST SWAP2 POP PUSH32 0xFFFFFFFFFFFFFFFFFFFFFFFFFFFFFFFFFFFFFFFFFFFFFFFFFFFFFFFFFFFFFFFF DUP3 SUB PUSH2 0xEE0 JUMPI PUSH2 0xEDF PUSH2 0xE77 JUMP JUMPDEST JUMPDEST PUSH1 0x1 DUP3 ADD SWAP1 POP SWAP2 SWAP1 POP JUMP JUMPDEST PUSH32 0x48616E79612070656D696C696B206B6F6E7472616B2079616E67206269736120 PUSH0 DUP3 ADD MSTORE PUSH32 0x6D656C616B756B616E20696E692E000000000000000000000000000000000000 PUSH1 0x20 DUP3 ADD MSTORE POP JUMP JUMPDEST PUSH0 PUSH2 0xF45 PUSH1 0x2E DUP4 PUSH2 0xB15 JUMP JUMPDEST SWAP2 POP PUSH2 0xF50 DUP3 PUSH2 0xEEB JUMP JUMPDEST PUSH1 0x40 DUP3 ADD SWAP1 POP SWAP2 SWAP1 POP JUMP JUMPDEST PUSH0 PUSH1 0x20 DUP3 ADD SWAP1 POP DUP2 DUP2 SUB PUSH0 DUP4 ADD MSTORE PUSH2 0xF72 DUP2 PUSH2 0xF39 JUMP JUMPDEST SWAP1 POP SWAP2 SWAP1 POP JUMP JUMPDEST PUSH32 0x50656D696C696820696E69207375646168207465726461667461722E00000000 PUSH0 DUP3 ADD MSTORE POP JUMP JUMPDEST PUSH0 PUSH2 0xFAD PUSH1 0x1C DUP4 PUSH2 0xB15 JUMP JUMPDEST SWAP2 POP PUSH2 0xFB8 DUP3 PUSH2 0xF79 JUMP JUMPDEST PUSH1 0x20 DUP3 ADD SWAP1 POP SWAP2 SWAP1 POP JUMP JUMPDEST PUSH0 PUSH1 0x20 DUP3 ADD SWAP1 POP DUP2 DUP2 SUB PUSH0 DUP4 ADD MSTORE PUSH2 0xFDA DUP2 PUSH2 0xFA1 JUMP JUMPDEST SWAP1 POP SWAP2 SWAP1 POP JUMP INVALID LOG2 PUSH5 0x6970667358 0x22 SLT KECCAK256 GT PUSH20 0x9670EFD58A3C76BDA7AC1ED53081CC8E070A902F 0xA5 0xB2 0x28 0xDB MOD EXTDELEGATECALL DIV PUSH26 0x5AFC64736F6C634300081E003300000000000000000000000000 "
				},
				"gasEstimates": {
					"creation": {
						"codeDepositCost": "823800",
						"executionCost": "infinite",
						"totalCost": "infinite"
					},
					"external": {
						"berikanSuara(uint256)": "infinite",
						"daftarkanPemilih(address)": "infinite",
						"getKandidat(uint256)": "infinite",
						"kandidatList(uint256)": "infinite",
						"owner()": "infinite",
						"pemilihTerdaftar(address)": "2834",
						"sudahMemilih(address)": "2878",
						"waktuMulai()": "2447",
						"waktuSelesai()": "2425"
					}
				},
				"methodIdentifiers": {
					"berikanSuara(uint256)": "e5ac3796",
					"daftarkanPemilih(address)": "f782311c",
					"getKandidat(uint256)": "66bc84d2",
					"kandidatList(uint256)": "fe3b4410",
					"owner()": "8da5cb5b",
					"pemilihTerdaftar(address)": "0cf57856",
					"sudahMemilih(address)": "79abf651",
					"waktuMulai()": "dae770ef",
					"waktuSelesai()": "986c14b2"
				}
			},
			"storageLayout": {
				"storage": [
					{
						"astId": 15,
						"contract": "evoting.sol:SistemVoting",
						"label": "kandidatList",
						"offset": 0,
						"slot": "0",
						"type": "t_array(t_struct(Kandidat)9_storage)dyn_storage"
					},
					{
						"astId": 19,
						"contract": "evoting.sol:SistemVoting",
						"label": "pemilihTerdaftar",
						"offset": 0,
						"slot": "1",
						"type": "t_mapping(t_address,t_bool)"
					},
					{
						"astId": 23,
						"contract": "evoting.sol:SistemVoting",
						"label": "sudahMemilih",
						"offset": 0,
						"slot": "2",
						"type": "t_mapping(t_address,t_bool)"
					},
					{
						"astId": 25,
						"contract": "evoting.sol:SistemVoting",
						"label": "waktuMulai",
						"offset": 0,
						"slot": "3",
						"type": "t_uint256"
					},
					{
						"astId": 27,
						"contract": "evoting.sol:SistemVoting",
						"label": "waktuSelesai",
						"offset": 0,
						"slot": "4",
						"type": "t_uint256"
					}
				],
				"types": {
					"t_address": {
						"encoding": "inplace",
						"label": "address",
						"numberOfBytes": "20"
					},
					"t_array(t_struct(Kandidat)9_storage)dyn_storage": {
						"base": "t_struct(Kandidat)9_storage",
						"encoding": "dynamic_array",
						"label": "struct SistemVoting.Kandidat[]",
						"numberOfBytes": "32"
					},
					"t_bool": {
						"encoding": "inplace",
						"label": "bool",
						"numberOfBytes": "1"
					},
					"t_mapping(t_address,t_bool)": {
						"encoding": "mapping",
						"key": "t_address",
						"label": "mapping(address => bool)",
						"numberOfBytes": "32",
						"value": "t_bool"
					},
					"t_string_storage": {
						"encoding": "bytes",
						"label": "string",
						"numberOfBytes": "32"
					},
					"t_struct(Kandidat)9_storage": {
						"encoding": "inplace",
						"label": "struct SistemVoting.Kandidat",
						"members": [
							{
								"astId": 4,
								"contract": "evoting.sol:SistemVoting",
								"label": "id",
								"offset": 0,
								"slot": "0",
								"type": "t_uint256"
							},
							{
								"astId": 6,
								"contract": "evoting.sol:SistemVoting",
								"label": "nama",
								"offset": 0,
								"slot": "1",
								"type": "t_string_storage"
							},
							{
								"astId": 8,
								"contract": "evoting.sol:SistemVoting",
								"label": "jumlahSuara",
								"offset": 0,
								"slot": "2",
								"type": "t_uint256"
							}
						],
						"numberOfBytes": "96"
					},
					"t_uint256": {
						"encoding": "inplace",
						"label": "uint256",
						"numberOfBytes": "32"
					}
				}
			},
			"userdoc": {
				"kind": "user",
				"methods": {
					"berikanSuara(uint256)": {
						"notice": "Memberikan suara ke salah satu kandidat."
					},
					"daftarkanPemilih(address)": {
						"notice": "Mendaftarkan satu alamat sebagai pemilih yang sah."
					},
					"getKandidat(uint256)": {
						"notice": "Mendapatkan detail lengkap dari seorang kandidat."
					}
				},
				"notice": "Kontrak untuk melakukan voting terdesentralisasi dengan daftar pemilih dan periode waktu yang ditentukan.",
				"version": 1
			}
		}
	}
}